:020000040800F2
:100000005007002041020008172D0008D32B0008DC
:10001000152D00082B130008B13300080000000064
:100020000000000000000000000000001B2D000880
:100030002D13000800000000192D00081D2D0008D8
:100040005B0200085B0200085B0200085B0200081C
:100050005B0200085B0200085B0200085B0200080C
:100060005B0200085B0200085B0200085B020008FC
:100070005B0200085B0200085B0200085B020008EC
:100080005B0200085B0200085B0200085B020008DC
:100090005B0200085B0200085B0200085B020008CC
:1000A0005B0200085B0200085B0200089D2D00084F
:1000B0005B0200085B020008000000005B02000811
:1000C0005B02000800000000000000005B02000866
:1000D000000000005B020008A53300085B02000876
:1000E0005B0200085B020008000000000000000046
:1000F0000000000000000000000000000000000000
:1001000000000000000000000000000000000000EF
:1001100000000000000000005B0200085B02000815
:1001200000000000000000000000000000000000CF
:1001300000000000000000000000000000000000BF
:100140005B0200085B0200080000000000000000E5
:10015000000000000000000000000000000000009F
:10016000000000000000000000000000000000008F
:10017000000000000000000000000000000000007F
:10018000000000005B02000800F002F800F049F8EF
:100190000AA090E8000C82448344AAF10107DA45E2
:1001A00001D100F03EF8AFF2090EBAE80F0013F0EB
:1001B000010F18BFFB1A43F0010318473C3700003A
:1001C0005C370000103A24BF78C878C1FAD85207CB
:1001D00024BF30C830C144BF04680C6070470000C1
:1001E0000023002400250026103A28BF78C1FBD840
:1001F000520728BF30C148BF0B607047662903F023
:100200001283002070471FB503F003FB00F050FB82
:1002100004000020002103F033F9E0601FBD10B599
:1002200010BD00F045FC1146FFF7EDFF03F0EAF8C2
:1002300000F063FC03B4FFF7F2FF03BC00F0A6FC80
:100240000948804709480047FEE7FEE7FEE7FEE76A
:10025000FEE7FEE7FEE7FEE7FEE7FEE704480549A6
:10026000054A064B704700008D2D000889010008E3
:1002700050010020500700205003002050030020B0
:1002800053EA020C00F069802DE9F04B4FF00006B4
:10029000002B1FBFB3FA83F503FA05F424FA05F621
:1002A0005E4012BF1643B2FA82F502FA05F4C5F1B8
:1002B00020051EBF22FA05FC44EA0C04203556EA4C
:1002C000044C4FEA144418BF641C4FF000084FF070
:1002D0000009904271EB030C39D3002919BFB1FA20
:1002E00081F701FA07F6B0FA80F700FA07F6C7F1CE
:1002F00020071EBF20FA07FC46EA0C062037B6FB93
:10030000F4FCA7EB0507103F07F01F0BCBF120060D
:100310000CFA0BFB2CFA06F644BFB3460026202F3E
:10032000A4BF5E464FF0000B5BEA060C08BF4FF01F
:10033000010B19EB0B09ABFB027C48EB0608C01B59
:1003400006FB02CC0BFB03CC71EB0C01C1E70B46A7
:10035000024641464846BDE8F08B13B54FF0000019
:100360004FF00001AFF30080BDE81C407047000073
:100370000FB41CB5074B06AA7B446946009005984C
:1003800000F07DFA0020694600F08CFA1CBC5DF894
:1003900014FB0000290500002DE9F0410E4604463B
:1003A000002020622046E168884730B3252805D028
:1003B000D4E901219047206A401CF2E7E168204619
:1003C00000278847050018D0A5F14100192802D858
:1003D00020354FF400673246294620462760FFF754
:1003E0000DFF40B1012804D0F61D26F0070608369F
:1003F000D8E7361DD6E72846DAE7206ABDE8F0815F
:100400004FF0000200B5134694469646203922BFAD
:10041000A0E80C50A0E80C50B1F12001BFF4F7AFF8
:10042000090728BFA0E80C5048BF0CC05DF804EBDA
:10043000890028BF40F8042B08BF704748BF20F848
:10044000022B11F0804F18BF00F8012B7047704746
:100450007047704770472DE9FF4F0C461E464FF01E
:10046000FF378BB0D2E90001DDF860800A908A4640
:10047000C1F30A5505B93D46002108464FF000007A
:10048000BAF1000F00F4400005DA00EB80004FF4F1
:10049000400101EA50004FEA9059B9F1010F00DD27
:1004A000B9460A9850EA4A000ED044F61050A5F218
:1004B000FF3545432F14B8F1000F1ED07542291E99
:1004C0001EDDC9F100021CE0B8F1010F4FF0000081
:1004D00001D0302103E0F24305E02154401CB0423A
:1004E000FBDB30460022002121540B99C1F8088023
:1004F000C1E900200FB0BDE8F08FBD1B6D1CDEE729
:100500004A4600DA694206A800F05CFA06AB93E8B6
:10051000070003AB83E8070050460A9900F03DFB53
:100520008DE80700A0F500501F3800900398002DBB
:100530000ADD42F21F014A460844002303A9039042
:10054000684600F0A6FD09E0A0F500504A461F38B5
:10055000002303A90390684600F0B0FD8DE8070072
:100560000004000C03D04FF0FF30410800E01046BB
:10057000B8F1000F03D00022009215461EE0751E50
:1005800005D400F099F9303262556D1EF9D5B346A5
:100590000122084302D000227F1C04E0207830288A
:1005A00001D100227F1E002A099784D01DE0112D61
:1005B00007DA00F081F9303262556D1C50EA010211
:1005C000F5D1084302D00098C8B10EE00021681EA2
:1005D00005E0235C625C63542254401E491C814246
:1005E000F7DBAB46A81B401E0990002004F80B0067
:1005F0000B98099AC0F80880C0E9002B7AE7112609
:100600004FF0000857E72DE9F04F88460446D21D09
:1006100022F0070191B0D1E90001CDE90A0102F011
:10062000C8FE02460B98C00F01D02D2007E02068BD
:10063000810701D52B2002E0202101EAC000032A16
:10064000099001D0072A05DB03464146204600F009
:1006500079F90BE12078800601D5E06900E00620F9
:10066000B8F1650F814606D0B8F1660F18D0B8F121
:10067000670F70D131E00020B9F1110F009001DB5C
:10068000112301E009F101030AAA01A90CA8FFF74F
:10069000E2FEDDE90C70002609F10105834647E022
:1006A00001204B4600904FF000470AAA01A90CA870
:1006B000FFF7D1FEDDE90DB00C995D46002610B9BB
:1006C00009F101000D18B9EB050003D4C0F1FF36A4
:1006D00009F10105A5EB09002BE0B9F1010F01DAE1
:1006E0004FF001090020B9F1110F0090484601DDDB
:1006F000112300E003460AAA01A90CA8FFF7ABFEEC
:10070000DDE90C704D4600268346207800070AD4A8
:10071000AB4500DA5D4601A8012D04DD411911F851
:10072000011C302907D04F4502DA17F1040F04DA13
:10073000012082460FE06D1EEEE7002F02DCED1B6C
:100740003E4403E0781CA84200DD7D1CB81B00F18C
:10075000010A4FF000472078000703D4AA4501DBC7
:100760004FF0FF3A0021B7F1004F0DF143088DF82B
:10077000431024D002202B23002F01DA7F422D23A7
:100780000A21021EA0F1010000DC5FB197FBF1FC21
:1007900097FBF1F201FB1C7C17460CF1300C08F8BA
:1007A00001CDEEE7A8F1010003702188090501D50C
:1007B000452100E06521A0F1010800F8011C09981D
:1007C0000FA9A1EB0807FF1D00B10120411901EBA2
:1007D000EA70A1693844081A401EA0612078C0065A
:1007E00002D42046AFF30080099828B1D4E9012152
:1007F0009047206A401C20622078C00622D52046FF
:10080000AFF300801EE0002E04DBB34502DD01A83B
:10081000805D00E03020D4E901219047206A401C2F
:100820002062761CAAF101005FEA000A0AD100F0FA
:100830003FF8C0680168405CD4E901219047206A14
:10084000401C2062281EA5F10105DCDC07E0D4E98C
:10085000012118F8010B9047206A401C2062381EC5
:10086000A7F10107F3DC2046AFF30080032011B0AD
:1008700041E6000001694A1C02610878704700B532
:100880008FB0CDE901310021059105497944CDE9C9
:10089000031011466846FFF77FFD0FB000BD000052
:1008A000E5FFFFFF0A6802F8010B0A6070470000CD
:1008B000004870471001002030B5B0F10A024FEA3D
:1008C000900E71F100034EEA817EB0EB0E0061EBF9
:1008D00091014FEA101E4EEA017E10EB0E0041EB33
:1008E00011114FEA102E4EEA016E10EB0E0041EB93
:1008F00011214FEA104E4EEA014E10EB0E0041EB73
:100900001141401841F100014FEAD00040EA417026
:100910004FEAD10110EB80054FEA810444EA90745C
:1009200044EB01046D1944EB0404521BA3414FF046
:10093000000348BF0A3200D530BD401C41F1000120
:1009400030BD00002DE9F0411F4604460326016832
:10095000072A01F4006004DB08B116A505E016A51E
:1009600003E008B115A500E015A521F010002060F6
:10097000A069C01EA0610FB1401EA0612046AFF368
:1009800000804FB1D4E9012138469047206A401CCD
:100990002062C01C206206E0206AFAE7D4E9012147
:1009A00015F8010B9047761EF8D22046AFF3008071
:1009B000BDE8F0814E414E006E616E00494E46002A
:1009C000696E66002DE9F047814616468AB03548C3
:1009D00078440DC88DE80D0032487844801C03AC83
:1009E0000DC884E80D0041F69B300844372190FB88
:1009F000F1F290FBF1F5A5F1800501FB12041B3C1F
:100A000002D56442012000E00020DFF898A0804673
:100A10000027FA44AAF1BE0A0EE0E0070AD03246E7
:100A2000684607EB470101230AEB810100F046FB12
:100A30008DE8070064107F1C002CEED1194F7F4415
:100A4000AE3F19E0E80715D007EB04100DF1180AC6
:100A500090E80E008AE80E00C068F04201D19819B3
:100A600008903246012306A903A800F027FB03AB38
:100A700083E807006D10641C002DE3D14FF00103E3
:100A800032466946B8F1000F03A802D000F001FB1E
:100A900001E000F013FBC9E90001C9F808200AB021
:100AA000BDE8F0870C2F000000487047F0000020E0
:100AB0007546FFF7F9FFAE4605006946534620F03C
:100AC0000700854618B020B5FFF7C8FBBDE82040F9
:100AD0004FF000064FF000074FF000084FF0000BFA
:100AE00021F00701AC46ACE8C009ACE8C009ACE8AD
:100AF000C009ACE8C0098D46704710B50446AFF395
:100B000000802046BDE81040FFF794BB4FF0013C49
:100B100050F8042B51F8043B9A4221D1A2EB0C036C
:100B2000934313EACC1317D150F8042B51F8043B2C
:100B30009A4215D1A2EB0C03934313EACC130BD1C9
:100B400050F8042B51F8043B9A4209D1A2EB0C0354
:100B5000934313EACC13DBD04FF00000704700BF83
:100B6000D01A01BAB1FA81F101F0180122FA01F0AC
:100B7000CB40C1F12001DBB2C0B2C01A2CFA01F3A4
:100B8000D11A914311EAC311E6D1704701491820E7
:100B9000ABBEFEE72600020070475FEA400C08BFCC
:100BA00091F0000F4FEA8C234FEAC12243EA5151E2
:100BB0004FEA1C5018BF00F5F0404FEA300018BF54
:100BC00041F000415FEA6C5C00F02980BCF1FF3F1E
:100BD00008BF40F080407047130C06BF12044FF06E
:100BE000100C4FF0000C130E04BF12020CF1080C95
:100BF000130F04BF12010CF1040C930F04BF9200F9
:100C00000CF1020CD30F04BF52000CF1010C114681
:100C10004FF00002A0F11F00A0EB0C00704711F094
:100C2000004F08BF704731F000413FF4D5AF0B0CC7
:100C300006BF09044FF0100C4FF0000C0B0E04BF60
:100C400009020CF1080C0B0F04BF09010CF1040C94
:100C50008B0F04BF89000CF1020CCB0F04BF4900BD
:100C60000CF1010CCCF12003A0EB0C0022FA03F3F1
:100C700002FA0CF241EA030100F10100704720F092
:100C80007F4C80EA030023F07F47ACEB070303F5BA
:100C90007C5300F0004003F1FF032DE980494FEA47
:100CA000154B09B44FEA144325EA0B4E24EA0348D6
:100CB0000FF2042606EB132749083E785FEA32025A
:100CC00003FB0667C7F5000707FB06F64FEA543734
:100CD0004FEAD64606F1020607FB066CCCF1005C33
:100CE0004FEA1C472CEA074C07FB06F40CFB06F501
:100CF00004EB15464FEA961634BF00204FF0004033
:100D00004FEAD13706FB07FC4FEA1C4C0CFB0BF7F4
:100D1000D21B03FB0CF761EB07010CFB0EF7B0EBEA
:100D2000074072EB17420CFB08F734BFA2EB0742F7
:100D3000B2EB074261EB17414FEA0C444FEA9107CF
:100D400006FB07FC4FEA1C4C0CFB0BF7B0EBC74053
:100D500072EB573203FB0CF734BFA2EBC742B2EB86
:100D6000C74261EB57310CFB0EF7B0EBC70072EBDB
:100D700057720CFB08F734BFA2EBC702B2EBC702F5
:100D800061EB5771039F4FEA816141EA921104EBD5
:100D9000CC044FEAD1374FEA826206FB07FC42EAF5
:100DA00090124FEA80604FEA1C4C0CFB0BF7D21BF1
:100DB00003FB0CF761EB07010CFB0EF7B0EB0740F0
:100DC00072EB17420CFB08F734BFA2EB0742B2EB01
:100DD000074261EB17414FEA8C554FEA910704EB4C
:100DE0009C2406FB07FC4FEA1C4C0CFB0BF7B0EBFA
:100DF000C74072EB573203FB0CF734BFA2EBC7427C
:100E0000B2EBC74261EB57310CFB0EF7B0EBC700FA
:100E100072EB57720CFB08F734BFA2EBC702B2EBC0
:100E2000C70261EB577115EB4C254FEA816141EA2E
:100E300092114FEA82624FEAD13742EA901206FBE2
:100E400007FC44F100044FEA80604FEA1C4C0CFBA5
:100E50000BF7D21B03FB0CF761EB07010CFB0EF742
:100E6000B0EB074072EB17420CFB08F734BFA2EB64
:100E70000742B2EB074261EB174115EB1C154FEA35
:100E8000813141EA92414FEA823242EA90424FEA8E
:100E900080304FEA0C7644F1000448EA03434EEAFE
:100EA0000B484FF0000EB2EB080C71EB030724BFA8
:100EB000624639464EEB0E0E4FF0000B00185241C1
:100EC00049414BEB0B0BB2EB080C71EB03077BF1C9
:100ED000000B24BF624639464EEB0E0E4FF0000B5E
:100EE0000018524149414BEB0B0BB2EB080C71EB74
:100EF00003077BF1000B24BF624639464EEB0E0E12
:100F000051EA020718BF46F0010616EB0E7655F1BE
:100F1000000254F1000103D5BDE88901BDE8008855
:100F2000BDE88901BDE80048B619524141EB010115
:100F3000A3F10103704780807F7E7D7C7B7A797886
:100F4000777676757473727171706F6E6E6D6C6C8E
:100F50006B6A6A6968686766666564646363626130
:100F60006160605F5F5E5E5D5D5C5C5B5B5A5A59B1
:100F7000595858575756565555555454535352521D
:100F80005251515050504F4F4F4E4E4D4D4D4C4C75
:100F90004C4B4B4B4A4A4A494949484848474747BE
:100FA00047464646454545444444444343434342FB
:100FB000424242414141002B9C4630D477002BD025
:100FC0001CB54FEA370703B44FF010004FF0100183
:100FD000BAF1000F06D0BCF1000FDCBF40F00800F2
:100FE00040F008014FF000000FBCBDE810400BF1CD
:100FF000010BBBF1010F08BF5FEA170722BF12F117
:10100000010211F101014FF0004143F1000300F032
:10101000004043EA00007047F9D35708D0E746EA9A
:10102000064613F1400F4FEA16461FDD13F1200F5D
:10103000DFBF16430A46002120335B42BED0C3F116
:10104000200746EA064602FA07F74FEA164646EA3E
:101050000706C3F1200722FA03F201FA07F721FA83
:1010600003F14FF0000342EA0702A7E746EA02064F
:1010700046EA06464FEA164646EA0106BCBF46EA7D
:101080000646360C4FF000034FF000024FF000010F
:1010900094E72DE9804C9A46934670B491E8380065
:1010A00007C831EA400C48BF34EA430C03D5FFF7C8
:1010B000E6FDFFF780FFF0BCBDE8008C2DE9804C19
:1010C0009A46934670B491E8380007C810F0804FF4
:1010D00008BF13F0804F03D100F005F8FFF76BFF56
:1010E000F0BCBDE8008C20F07F4780EA030023F0CD
:1010F0007F4C07EB0C03A3F57C5300F00040A3F1F9
:10110000FE0392F0000F00F0B38095F0000F00F0A6
:1011100077802DE901494FEA11404FEA144621EA50
:10112000004800FB06FC24EA064708FB06F607FB1E
:1011300008F800FB07F718EB06484CEB164C4FEA93
:10114000124B18EB07484FEA15464CEB174022EAC2
:101150000B4E0BFB06FC25EA06470EFB06F607FBCB
:101160000EFE0BFB07F71EEB064E4CEB164C4FF03A
:1011700000061EEB074E4CEB174B18EB0B0840F12B
:10118000000018EB0E0B58EB000840F100008F1A1E
:101190004FF000013CBFC943661B14BFB5EB040C04
:1011A00000213CBFC943F61B4FEA17444EEA8E0E9E
:1011B00027EA04454FEA1C4704FB07622CEA074C68
:1011C00005FB07F70CFB05F604FB0CFC16EB0746CA
:1011D00042EB174216EB0C4642EB1C421BEB060699
:1011E00058EB0202414146EA9E0601D5BDE801895D
:1011F000B619524141EB0101A3F10103BDE8018998
:101200004FEA14454FEA114724EA054621EA074C04
:1012100005FB07F406FB07F70CFB06F105FB0CFCCE
:1012200011EB074144EB17444FEA124711EB0C4115
:1012300044EB1C4422EA074C05FB07F206FB07F7C8
:101240000CFB06F605FB0CFC16EB074642EB1742BF
:1012500016EB0C4642EB1C456A1854F1000148BFDE
:101260007047B619524141EB0101A3F101037047E8
:1012700095F0000F37D04FEA11424FEA144721EAA8
:10128000024624EA074C02FB07F106FB07F70CFBBA
:1012900006F402FB0CFC14EB074441EB17414FEA48
:1012A000154714EB0C4441EB1C4125EA074C02FBAB
:1012B00007F506FB07F70CFB06F602FB0CFC16EB2A
:1012C000074645EB174516EB0C4645EB1C42121939
:1012D00051F1000148BF7047B619524141EB01017D
:1012E000A3F1010370474FEA14454FEA114724EA7E
:1012F000054621EA074C05FB07F106FB07F70CFB47
:1013000006F24FF0000605FB0CFC12EB074241EB26
:10131000174112EB0C4251EB1C4148BF7047921829
:1013200041EB0101A3F101037047FEE7704710B5DF
:1013300090F821100022022905D00421816380F851
:101340002020012010BD01680B6823F00E030B6004
:1013500001680B6823F001030B6090F84030C46B08
:10136000012101FA03F3636080F8211080F8202046
:10137000002010BD10B590F821100024022903D0E0
:1013800004218163012418E001680A6822F00E023A
:101390000A6001680A6822F001020A6090F84020A1
:1013A000C36B012101FA02F25A6080F8211000217A
:1013B00080F82010416B01B18847204610BD000025
:1013C00070B5044600F024F90546601C02D00448BC
:1013D0000078044400F01CF9401BA042FAD370BD11
:1013E0000C0000202DE9F04FDFF8009200230126C9
:1013F0000325A9F1040B85B00F2709F1040AABF10D
:10140000040EEAE006FA03F422407CD091F804C00E
:101410000CF0030CBCF1010F02D0BCF1020F26D17D
:10142000D0F808C0CDF800C04FEA430C05FA0CF81C
:10143000CDF810C0DDF800C02CEA080CCDF800C0D3
:10144000D1F80C80DDF810C008FA0CF8DDF800C007
:1014500048EA0C08C0F80880D0F804C02CEA040C54
:101460000C79C4F300149C4044EA0C0444600C79E9
:10147000E443A4070DD0D0F80CC04FEA430805FAA6
:1014800008F42CEA040C8C6804FA08F444EA0C040E
:10149000C4600C7904F00304022C19D1DC0800EBC1
:1014A00084040294246A4FEA437C4FEADC6CCDF852
:1014B00010C007FA0CFC24EA0C04D1F81080DDF807
:1014C00010C008FA0CF848EA0408029CC4F820800E
:1014D00004684FEA430805FA08FC24EA0C0491F872
:1014E00004C00CF0030C0CFA08FC4CEA040CC0F825
:1014F00000C04C6814F4403F6ED03D4CD4F818C086
:101500004CF0010C00E067E0C4F818C0A46923F0B7
:10151000030C04F001040094364C64440294A46863
:101520004FEA837C4FEA1C7807FA08FC24EA0C0493
:10153000B0F1904F06D0DFF8C0C0604505D14FF044
:10154000010C12E04FF0000C0FE0DFF8B0C0604576
:1015500002D14FF0020C08E0DFF8A4C0604502D1D0
:101560004FF0030C01E04FF0050C0CFA08FC4CEABC
:10157000040C029CC4F808C0D9F80040CC46D1F84D
:10158000048094435FEAC82800D51443CCF8004097
:10159000DAF80040D446D1F8048094435FEA882802
:1015A00000D51443CCF80040DBF80040DC46D1F80D
:1015B000048094435FEA883800D51443CCF8004097
:1015C000DEF80040F446D1F8048094435FEAC8385E
:1015D00000D51443CCF800405B1C0A6832FA03F4CF
:1015E0007FF410AF05B0BDE8F08F000008040140A3
:1015F00000100240000001400004004800080048BC
:10160000000C00480AB18161704781627047000098
:1016100001488068704700000C0000200248816883
:1016200002781144816070470C000020074810B513
:10163000016841F010010160032000F06DF8002006
:1016400000F006F800F024F8002010BD0020024051
:1016500070B50D4D04464FF47A712878B1FBF0F067
:101660000A490968B1FBF0F000F010FD48B9102CF0
:1016700007D200222146501E00F02EF800206C6098
:1016800070BD012070BD00000C000020180000207B
:10169000094808B5816941F001018161816901F062
:1016A00001010091C16941F08051C161C06900F040
:1016B0008050009008BD000000100240002809DBA7
:1016C00000F01F02012191404009800000F1E0205C
:1016D000C0F8001170470000F0B40E4B1B680C46B8
:1016E000C3F30223C3F10705042D00D90425191DF6
:1016F000072901D2002300E0DB1E012606FA05F1CE
:10170000491E214099409E40761E16403143F0BC50
:1017100001F067BE0CED00E0064900F00702086822
:101720004FF6FF03184040EA0220034A10430860C6
:10173000704700000CED00E00000FA052DE9F84FBD
:10174000044600680026574DC0036ED5E869C00006
:1017500008D4E86940F08050E861E869012600F0AB
:101760008050009050480168C90512D40168804635
:1017700041F480710160FFF74BFF074605E000BFB1
:10178000FFF746FFC01B642835D8D8F80000C00515
:10179000F6D5286A10F4407053D0A18801F4407146
:1017A00081424ED0286A4FF4803191FAA1F2B2FA08
:1017B00082F297003D4A4FF00108174420F4407030
:1017C000C7F8008491FAA1F1B1FA81F102EB81012D
:1017D0000023C1F800342862C00732D0FFF718FF99
:1017E000074641F2883A4FF0020907E0FFF710FF81
:1017F000C11B514502D90320BDE8F88F99FAA9F120
:10180000B1FA81F141F040014846B8EB511F01D1D6
:1018100029680CE090FAA0F1B1FA81F141F04001A1
:10182000B0EB511F02D1296A01E015E0696A99FA0B
:10183000A9F0B0FA80F000F01F0008FA00F211429F
:10184000D4D0286A616820F44070084328621EB131
:10185000E86920F08050E8612078C00705D0286B47
:10186000A16820F00300084328632078800605D58E
:10187000286BE16820F010000843286320780006F8
:1018800005D5E86A216920F4F8700843E8622088E9
:10189000C00405D5286B616920F480700843286373
:1018A0000020A9E700100240007000400000424202
:1018B0002DE9F0470F46050069D04A4E306800F028
:1018C0000700B84209D2306820F007003843306082
:1018D000306800F00700B84259D12878424C8007A0
:1018E00005D56068A96820F0F0000843606028789A
:1018F000C0073DD06968012001290DD0022923D0FD
:101900005FF0020393FAA3F2B2FA82F242F02002ED
:10191000520904D0226803E04FF40033F2E7626A10
:1019200093FAA3F3B3FA83F303F01F039840024240
:101930002DD0606820F0030008436060FFF768FE68
:10194000804641F288390CE04FF00073DAE700BFBF
:10195000FFF75EFEA0EB0801494502D90320BDE870
:10196000F0876068696800F00C00B0EB810FEFD180
:10197000306800F00700B8420BD9306820F007004B
:1019800038433060306800F00700B84201D00120D1
:10199000E5E72878400705D56068E96820F4E0604D
:1019A000084360602878000706D56068296920F43C
:1019B000605040EAC100606000F04EF86168F022BB
:1019C00092FAA2F201F0F001B2FA82F2D140074A93
:1019D000515CC8400649086006480068FFF738FEB9
:1019E0000020BCE700200240001002404A380008F6
:1019F00018000020100000200848094900684968C4
:101A00004FF4E06292FAA2F201F4E061B2FA82F2DB
:101A1000D140044A515CC8407047000018000020C3
:101A2000001002405A38000808480949006849680F
:101A30004FF4605292FAA2F201F46051B2FA82F2CB
:101A4000D140044A515CC840704700001800002093
:101A5000001002405A380008164A10B5516816485E
:101A600001F00C03042B20D0082B1ED14FF470146E
:101A700094FAA4F401F47013B4FA84F4E3400F4C24
:101A8000D26AE45C0F2393FAA3F302F00F02B3FAD5
:101A900083F3DA40094B1033C9039A5C06D500235F
:101AA0001946FEF7EDFBA0FB040110BD0448A4FBA2
:101AB000000110BD0010024000127A002A38000810
:101AC00000093D002DE9F84F050071D02878FC4E43
:101AD000C0074FF0010425D070686704C0F381008F
:101AE000012807D07068C0F3810002281BD17068FC
:101AF000C00318D597FAA7F0B0FA80F040F02000A4
:101B0000400901D0306800E0706A97FAA7F1B1FA95
:101B100081F101F01F0104FA01F1084265D0686803
:101B20000028D2D061E06868B0F5803F0BD010B1DA
:101B3000B0F5A02F17D0306820F4803030603068C6
:101B400020F4802002E0306840F480303060F06A99
:101B5000A96820F00F000843F062686820B3FFF71F
:101B600057FD80460AE0306840F480203060EAE7A4
:101B7000FFF74EFDA0EB0800642871D897FAA7F094
:101B8000B0FA80F040F02000400901D0306800E059
:101B9000706A97FAA7F1B1FA81F101F01F0104FA16
:101BA00001F10842E4D020E0FFF732FD804607E073
:101BB000C2E000BFFFF72CFDA0EB08006428DCD8D2
:101BC00097FAA7F0B0FA80F040F02000400901D069
:101BD000306800E0706A97FAA7F1B1FA81F101F07C
:101BE0001F0104FA01F10842E4D12878DFF8D48219
:101BF00080074FF0000A4FF0020730D570684FF0B1
:101C0000F80B10F00C0F07D07068C0F381000228A9
:101C100027D17068C00324D497FAA7F0B0FA80F0F7
:101C200040F02000400901D0306800E0706A97FA67
:101C3000A7F1B1FA81F101F01F0104FA01F10842A4
:101C400002D02869012877D130689BFAABF220F0E6
:101C5000F8016869B2FA82F29040014331605AE0BB
:101C600064E1286988B394FAA4F0B0FA80F048F8E7
:101C70002040FFF7CDFC814606E000BFFFF7C8FC1F
:101C8000A0EB090002289AD897FAA7F0B0FA80F0E2
:101C900040F02000400901D0306800E0706A97FAF7
:101CA000A7F1B1FA81F101F01F0104FA01F1084234
:101CB000E4D030689BFAABF26969B2FA82F220F0A4
:101CC000F80091400843306025E0FFE794FAA4F063
:101CD000B0FA80F048F820A0FFF79AFC814605E0B2
:101CE000FFF796FCA0EB09000228CCD897FAA7F0E2
:101CF000B0FA80F040F02000400901D0306800E0E8
:101D0000706A97FAA7F1B1FA81F101F01F0104FAA4
:101D100001F10842E4D1287800076CD5A869A8B37E
:101D200094FAA4F0B0FA80F008EB8000C0F8804488
:101D3000FFF76EFC814607E0A4E100BFFFF768FCF7
:101D4000A0EB090002289ED897FAA7F0B0FA80F01D
:101D500040F06000B4EB501F01D130680BE097FAFF
:101D6000A7F0B0FA80F040F06000B7EB501F01D14F
:101D7000306A00E0706A97FAA7F1B1FA81F101F0D8
:101D80001F0104FA01F21042D8D034E0FFE794FAC0
:101D9000A4F1B1FA81F108EB8101C1F880A4FFF749
:101DA00037FC814606E000BFFFF732FCA0EB0900DC
:101DB00002289AD897FAA7F0B0FA80F040F06000B5
:101DC000B4EB501F01D130680BE097FAA7F0B0FADE
:101DD00080F040F06000B7EB501F01D1306A00E0A6
:101DE000706A97FAA7F1B1FA81F101F01F0104FAC4
:101DF00001F21042D8D12878400768D5F0694FF039
:101E00000009C00009D4F06940F08050F061F06929
:101E10004FF0010900F0805000902B480168C9057F
:101E200012D4016841F480710160FFF7F1FB834631
:101E300006E000BFFFF7ECFBA0EB0B00642875D8B1
:101E400021480068C005F5D5E86801280AD008B126
:101E5000052811D0306A20F001003062306A20F08D
:101E6000040002E0306A40F001003062E86868B3C4
:101E7000FFF7CEFB83460DE0306A40F0040030628D
:101E8000F0E700BFFFF7C4FBA0EB0B0141F2883085
:101E900081424BD897FAA7F0B0FA80F040F04000AA
:101EA000B4EB501F01D1306813E097FAA7F0B0FAF5
:101EB00080F040F04000B7EB501F09D1306A08E0D5
:101EC0000010024000004242007000400CE040E080
:101ED000706A97FAA7F1B1FA81F101F01F0104FAD3
:101EE00001F21042CED02DE0FFF792FB834607E0CF
:101EF000FFF78EFBA0EB0B0141F28830814215D831
:101F000097FAA7F0B0FA80F040F04000B4EB501F11
:101F100001D130680CE097FAA7F0B0FA80F040F0F9
:101F20004000B7EB501F02D1306A01E083E0706AD5
:101F300097FAA7F1B1FA81F101F01F0104FA01F259
:101F40001042D5D1B9F1000F03D0F06920F08050D4
:101F5000F061E86980B37168C1F38101022977D02B
:101F60004FF080714F000228504609D091FAA1F13C
:101F7000B1FA81F148F82100FFF74AFB05465DE020
:101F8000894691FAA1F1B1FA81F1C24648F82100DF
:101F9000FFF73EFB804605E0FFF73AFBA0EB0800A9
:101FA000022848D897FAA7F0B0FA80F040F0200055
:101FB000400902D0306801E066E0706A97FAA7F144
:101FC000B1FA81F101F01F0104FA01F10842E3D1F5
:101FD000D5E908100843716821F474110843706052
:101FE00099FAA9F0B0FA80F04AF82040FFF710FB08
:101FF000054604E0FFF70CFB401B02281BD897FAAC
:10200000A7F0B0FA80F040F02000400901D030681D
:1020100000E0706A97FAA7F1B1FA81F101F01F01AF
:1020200004FA01F10842E5D02EE000BFFFF7F0FA14
:10203000401B022802D90320BDE8F88F97FAA7F0C9
:10204000B0FA80F040F02000400902D0306801E092
:102050000BE0706A97FAA7F1B1FA81F101F01F0164
:1020600004FA01F10842E1D10EE00128E4D07068E1
:102070002A6A00F48031914204D1696A00F4701038
:10208000884201D00120D7E70020D5E710B5401ED7
:10209000B0F1807F01D3012010BD4FF0E0246061DA
:1020A0000F21601701F09DF90020A0610720206139
:1020B000002010BD7047704770470000F0B590F8E1
:1020C0003C20012A2CD0012480F83C40022280F8D8
:1020D0003D2003685A689D68124EB34203D122F432
:1020E00070074A683A4322F070070A683A435A6018
:1020F0000268B24208D0B2F1804F05D00A4B9A4232
:1021000002D00A4B9A4204D1896825F08003194312
:10211000916080F83D40002180F83C100846F0BDF9
:102120000220F0BD002C01400004004000400140AE
:1021300010B5040003D094F83D0010B107E0012071
:1021400010BD002084F83C00204600F023F8022057
:1021500084F83D00211D206800F088FE012084F8ED
:10216000480084F83E0084F83F0084F8400084F87A
:10217000410084F8420084F8430084F8440084F865
:10218000450084F8460084F8470084F83D000020AC
:1021900010BD000010B586B0044614216846FEF755
:1021A0002FF917492068884227D11648816941F4E0
:1021B00000618161816901F400610591416941F427
:1021C000003141614069694600F4003005904FF4E8
:1021D0008070009002200190002002900390062061
:1021E00004904FF09040FFF7FDF8002211461B20AD
:1021F000FFF772FA1B20FFF761FA06B010BD00006E
:10220000002C01400010024090F83D10012901D03F
:1022100001207047022180F83D1000680C49884277
:1022200008D0B0F1804F05D00A49884202D00A494F
:10223000884207D18168094A1140062906D0B1F5C4
:10224000803F03D0016841F0010101600020704728
:10225000002C014000040040004001400700010044
:1022600070B5044690F83C000025012817D00126DF
:1022700084F83C60022084F83D00226890682F4B6F
:10228000184020F47F4090600868502838D00DDC5A
:1022900020284FD005DC90B3102811D14AE002204D
:1022A00070BD302846D040280AD13BE060282FD0AE
:1022B00070280DD0B0F5805F03D0B0F5005F12D06C
:1022C000012584F83D60002084F83C00284670BD5C
:1022D000CB68D1E90121206800F019FE20688168EF
:1022E00041F0770109E0CB68D1E90121206800F0D5
:1022F0000EFE2068816841F480418160E1E719E0C9
:10230000CA684968206800F014FE5021206806E081
:10231000CA684968206800F049FE6021206800F022
:1023200000FECEE7CA684968206800F002FE40213E
:102330002068F4E7226801461046F0E788FFFEFFB8
:1023400070472DE9F041054690F83C0000260C4608
:10235000012810D0012085F83C0072B1042A1CD05D
:10236000082A2CD00C2A50D00126002085F83C00E9
:102370003046BDE8F0810220FBE7D4E90012E368B3
:10238000286800F0E7FD2868816921F00C0181616F
:1023900028688169A26811430FE0D4E90012E3685C
:1023A000286800F015FE2868816921F44061816188
:1023B00028688169A26841EA02218161D5E728681D
:1023C000D4E9002C277B016A21F480710162C16984
:1023D000036A21F0030141EA0C0121F0F00C3907F6
:1023E0004FF420674CEA116123F4206307EA0222CC
:1023F0001A43C16102622868C16921F00C01C16100
:102400002868C169A268114328E02868D4E9002738
:10241000E168036A23F480530362D0F81CC0036AA6
:102420002CF4407C4CEA07274FF6FF7C27F47047DA
:102430000CEA013139434FF4204723F4204307EAE3
:1024400002321A43C16102622868C16921F4406105
:10245000C1612868C169A26841EA0221C16184E7BB
:1024600010B5040003D094F83D0010B107E001203E
:1024700010BD002084F83C00204600F022F8022025
:1024800084F83D00211D206800F0F0FC012084F854
:10249000480084F83E0084F83F0084F8400084F847
:1024A000410084F8420084F8430084F8440084F832
:1024B000450084F8460084F8470084F83D00002079
:1024C00010BD704730B50446002571B1042911D004
:1024D000082914D00C2917D0102918D094F84300DB
:1024E00094F84720012817D114E094F83E0094F89E
:1024F0004420F7E794F83F0094F84520F2E794F879
:10250000400094F84620EDE794F84100E8E794F89D
:102510004200E5E7012A01D0012030BD022079B157
:10252000042916D008291DD00C2943D0102944D0E5
:1025300084F8430084F847000C2941D0012537E096
:1025400084F83E0084F844002068C26842F0020229
:1025500010E084F83F0084F845002068C26842F02B
:10256000040207E084F8400084F846002068C2684E
:1025700042F00802C2600122206800F0BBFC13494F
:102580002068884208D0B0F1804F05D010498842B9
:1025900002D01049884207D181680F4A11400629AC
:1025A00006D0B1F5803F03D0016841F00101016020
:1025B000284630BD84F84100BCE784F84200B9E702
:1025C0002068C26842F01002D4E70000002C0140ED
:1025D00000040040004001400700010070B50446BF
:1025E000006801694FF00005C943890715D4C16827
:1025F000C943890711D4E91E0161012020772068B1
:1026000080698007204602D0FFF79AFE04E000F0C0
:10261000A7F8204600F0A5F8257720680169C9438E
:10262000490717D4C168C943490713D46FF004019F
:102630000161022020772068806910F4407F2046E5
:1026400002D0FFF77DFE04E000F08AF8204600F09B
:1026500088F8257720680169C943090716D4C1683D
:10266000C943090712D46FF00801016104202077E3
:102670002068C0698007204602D0FFF761FE04E0B1
:1026800000F06EF8204600F06CF8257720680169AC
:10269000C943C90617D4C168C943C90613D46FF02A
:1026A00010010161082020772068C06910F4407F84
:1026B000204602D0FFF744FE04E000F051F8204627
:1026C00000F04FF8257720680169C943C90708D190
:1026D000C168C943C90704D1891E0161204600F0C1
:1026E00041F820680169C943090609D4C168C94392
:1026F000090605D46FF0800101612046FFF7DBFC7D
:1027000020680169C943C90509D4C168C9430906DC
:1027100005D46FF4807101612046FFF7CBFC20687F
:102720000169C943490609D4C168C943490605D4AA
:102730006FF040010161204600F02AF8206801692D
:10274000C94389060BD4C168C943890607D46FF011
:10275000200101612046BDE87040FFF7ADBC70BDAF
:102760007047704770470246002041B1042909D0E4
:1027700008290AD00C2901D11068006C7047106834
:10278000406B70471068806B70471068C06B704773
:1027900070477047704770472DE9F0410268044662
:1027A000D0691168936840F60F0528424FF0000584
:1027B0004FF0020605D187067ED58F067CD5A16E27
:1027C0002AE1DFF884C203F0010701EA0C0C57EAA2
:1027D0000C0C71D05FEAC07C0CD05FEAC15C09D5FB
:1027E0004FF0010CC2F820C0D4F8842042F001025E
:1027F000C4F88420820709D5DA0707D02268166258
:10280000D4F8842042F00402C4F8842042070AD598
:10281000DA0708D0236804221A62D4F8842042F030
:102820000202C4F8842002070CD501F020023A43CA
:1028300008D0236808221A62D4F8842042F00802E3
:10284000C4F8842002050BD54A0109D523684FF44A
:1028500000621A62D4F8842042F02002C4F8842076
:10286000D4F88420002A36D0800605D5880603D502
:10287000A16E09B120468847D4F884002168896890
:10288000490602D410F0280F27D0204600F07DFC26
:102890002068806840061BD52068083050E8001F7B
:1028A00021F0400140E80012002AF5D1606F78B1B4
:1028B00066494163606F00E015E0FEF75BFD0028AC
:1028C00009D0606F416B00E02046BDE8F041084749
:1028D0002046FFF760FFBDE8F0812046FFF75BFF71
:1028E000C4F88450F7E7D4F860C02027BCF1010F8A
:1028F0007DD15FEAC06C7ED55FEAC16C7BD51020CC
:10290000106220688068400642D5616F08684068A0
:102910000004000CDFD0B4F858208242DBD9A4F8C0
:102920005A00886920282BD0216851E8000F20F434
:10293000807041E80002002AF6D12068083050E893
:10294000001F21F0010140E80012002AF5D12068A3
:10295000083050E8001F21F0400140E80012002A32
:10296000F5D1C4F880702566206850E8001F21F07A
:10297000100140E80012002AF6D1606FFEF7D7FC84
:102980006666B4F85800B4F85A10401A81B22CE0C8
:10299000B4F85800B4F85A10401A81B2B4F85A008A
:1029A000002898D0002996D0226852E8000F20F421
:1029B000907042E80003002BF6D12068083050E800
:1029C000002F22F0010240E80023002BF5D1C4F8CB
:1029D00080702566A566206850E8002F22F010025E
:1029E00040E80023002BF6D16666204600E002E0B6
:1029F000FFF7CFFE6FE7C60209D55B0207D54FF49C
:102A0000801010622046BDE8F041FFF7C3BE020609
:102A100006D50A0604D5E16E00297FF455AF5AE7C2
:102A20004006E7D54806E5D52046026852E8001F73
:102A300021F0400142E80013002BF6D1C767C566BC
:102A400000F0C6F847E700002001000477310008D5
:102A500010B5040002D0E06F10B107E0012010BDF6
:102A6000002084F87800204600F026F82420E06753
:102A70002068016821F001010160204600F0ACFBF4
:102A80000128ECD0606A10B1204600F0BCFA206842
:102A9000416821F4904141602068816821F02A0159
:102AA00081602068016841F0010101602046BDE8B5
:102AB000104000F00CBB000010B586B00446142195
:102AC0006846FDF79DFC17492068884228D11648C2
:102AD000C16941F40031C161C16901F4003105915E
:102AE000416941F4003141614069694600F40030B8
:102AF000059048F20400009002200190002002900E
:102B000003200390072004904FF09040FEF76AFCEA
:102B1000002211462620FEF7DFFD2620FEF7CEFD1F
:102B200006B010BD00440040001002402DE9F843FB
:102B30000446C06F984616460D46202802D0022053
:102B4000BDE8F88395B18EB10020C4F8840021203F
:102B5000E067FEF75DFDA4F850608146A4F852607E
:102B6000A0682027B0F5805F02D003E00120E7E7EE
:102B7000206910B12E46002510E000260EE08021CD
:102B8000204600F0C9FBC0B9D6B116F8010B216888
:102B90000885B4F85200401EA4F85200B4F8520060
:102BA0004B464FF00002CDF800800028E7D14FF0EF
:102BB0004001204600F0B0FB38B1E7670320BFE7D3
:102BC00035F8020BC0F30800E1E7E7670020B7E73C
:102BD0007047FEE710B586B014216846FDF710FC7B
:102BE0001548416941F480014161416901F4800166
:102BF0000591416941F400314161416901F40031BD
:102C00000591416941F48021416140690B4C00F418
:102C100080200590002240212046FEF7F3FC402052
:102C2000009001200021CDE9010103916946204671
:102C3000FEF7D8FB06B010BD0010024000040048AB
:102C400010B58CB000240A94234807940894099482
:102C50000594069404940094019402941D490394ED
:102C600001600721C0E901144FF6FF71C0E90314A8
:102C700044618461FFF75CFA08B172B6FEE74FF475
:102C80008050079007A91448FFF7EAFA08B172B616
:102C9000FEE71148FFF7E4FB08B172B6FEE70494C3
:102CA000059404A90C480694FFF708FA08B172B617
:102CB000FEE70120CDE90040029400226946064863
:102CC0000394FFF73EFB002801D072B6FEE70CB07C
:102CD00010BD0000002C01401C0000200C4810B565
:102CE0000A4901604FF416514160002181600C22B5
:102CF000C160C0E904128161C16101624162FFF7F4
:102D0000A7FE002801D072B6FEE710BD00440040C7
:102D100068000020FEE7FEE770477047FEF77EBCC4
:102D200010B596B028216846FDF76AFB14210AA861
:102D3000FDF766FB18210FA8FDF762FB022000904B
:102D40000120049010200024059007946846FEF7A7
:102D5000B9FE08B172B6FEE70F20CDE90A040C9463
:102D60000D9400210AA80E94FEF7A2FD08B172B6D8
:102D7000FEE74FF4805014940F900FA8FEF7DEFC8E
:102D8000002801D072B6FEE716B010BD02480168F7
:102D900041F470010160704788ED00E030B58FB0FC
:102DA00034216846FDF72CFB274D284C4FF00001DD
:102DB00028680028204636D0FFF7D5FCA860216897
:102DC0000A6A22F00A020A6221680A6A0A626968CB
:102DD000401A00F09CFB9FED1E1B53EC112B00F0E2
:102DE000A9FB9FED1D1B53EC112B00F0A3FB00F082
:102DF0005DFB0D90002028600D9800F099FC41ECDF
:102E0000100B17A153EC102B6846FDF7B1FA4FF4E5
:102E10007A73322269461448FFF788FE0B48FFF7A1
:102E2000DDFB0FB030BDFFF79EFC68602068016AD3
:102E300021F00A0101622068016A41F00201016289
:102E400001202860EAE70000000000201C000020AC
:102E5000006F8104C58FA13F000000000000E03F2B
:102E6000256620636D0A0D0068000020F0B5026839
:102E70001B4B1C4F4FF0804C984203D0604501D053
:102E8000B84203D122F070044A682243164C174D11
:102E9000174E984209D0604507D0B84205D0A042ED
:102EA00003D0A84201D0B04203D122F44077CA68CF
:102EB0003A434F6922F080023A4302608A68C26254
:102EC0000A688262984205D0A04203D0A84201D08D
:102ED000B04201D10969016301214161F0BD0000E7
:102EE000002C01400004004000400140004401402B
:102EF0000048014010B501F01F030121046A994008
:102F00008C430462016A9A401143016210BD10B5FE
:102F1000846842EA032224F47F440A432243826005
:102F200010BD826822F070020A4342F007018160FE
:102F3000704710B5036A046A24F0010404628469CE
:102F400024F0F00444EA021423F00A020A438461E4
:102F5000026210BD70B5046A24F001040462846941
:102F6000056A0F4EB04208D0B0F1804F05D00D4E2B
:102F7000B04202D00C4EB04203D124F003041443FB
:102F800001E044F001041A0724F0F00444EA12625C
:102F900025F00A0301F00A0119438261016270BD44
:102FA000002C0140000400400040014010B5036ABD
:102FB00023F0100303628369046A23F4704343EA35
:102FC000023224F0A00343EA01118261016210BDC4
:102FD00030B5046A24F0100404628469056A24F49C
:102FE000407444EA022222F470444FF6FF7202EA6F
:102FF00003322243A02425F0A00304EA011119435F
:103000008261016230BD90F82410C90706D00168C2
:103010004A68836A22F400321A434A6090F8241006
:10302000890706D501684A68C36A22F480321A43C8
:103030004A6090F82410490706D501684A68036B76
:1030400022F480221A434A6090F82410090706D51A
:1030500001684A68436B22F400421A434A6090F8C0
:103060002410C90606D501688A68836B22F4805251
:103070001A438A6090F82410890606D501688A6888
:10308000C36B22F400521A438A6090F82410490658
:1030900011D501684A68036C22F480121A434A6011
:1030A000016CB1F5801F06D101684A68436C22F4B7
:1030B000C0021A434A6090F82410090606D5016838
:1030C0004A68806C22F4002202434A6070472DE96E
:1030D000F84300260446C0F88460FEF799FA80465B
:1030E000206800684FF0200500076FF07E4712D57A
:1030F0004346002229042046009700F00DF950B104
:10310000216851E8000F20F0800041E80002002A09
:10311000F6D1E56721E020680068400722D54346E4
:1031200000224FF480012046009700F0F5F8C8B166
:10313000216851E8000F20F4907041E80002002A55
:10314000F6D12068083050E8001F21F0010140E866
:103150000012002AF5D1C4F8805084F8786003206A
:10316000BDE8F883E567C4F8805044F8606F666096
:1031700026760020F4E710B5406A0021A0F85A1026
:10318000A0F85210FFF707FB10BD016851E8002FAF
:1031900022F4907241E80023002BF6D10168083137
:1031A00051E8002F22F0010241E80023002BF5D165
:1031B000016E012908D1026852E8001F21F01001B8
:1031C00042E80013002BF6D12021C0F88010002126
:1031D000016681667047000070B504468068216909
:1031E000E2690843616900251143226808431168B8
:1031F000434B19400143116020684168E26821F4A3
:10320000405111434160A169206A084321688A68DE
:1032100022F4306202438A603A492068884210D121
:103220003948006B10F0030011D0012805D00228A6
:1032300005D003280DD102210CE004210AE0082169
:1032400008E03249884202D03149884201D1002148
:1032500000E01021E3694FF400402E4A4FF6EF766C
:10326000834226D1092941D2DFE801F005080B404D
:103270000D4040401000FEF7BFFB06E0FEF7D4FB18
:1032800003E0104602E0FEF7E7FB80B34100606810
:1032900001EB5001B1FBF0F0A0F11001B14225D8D3
:1032A0004FF6F0710140C0F3420001432068C16055
:1032B00021E009291AD2DFE801F005080B190D19E0
:1032C00019191000FEF798FB06E0FEF7ADFB03E0CE
:1032D000104602E0FEF7C0FB48B1616800EB510008
:1032E000B0FBF1F0A0F11001B14201D9012502E0DB
:1032F000216880B2C8600020A066E066284670BDE4
:10330000F369FFEF00380140001002400044004024
:103310000048004000127A002DE9F0479946174610
:103320000E4604464FF00008089D2FE0681C2DD083
:10333000FEF76EF9A0EB0900A84214D89DB12068F1
:103340000168490722D5C169C94309070DD4082579
:1033500005622046FFF719FFC4F8845084F878808E
:103360000120BDE8F0870320FBE7C069C0430005EA
:103370000CD421684FF4006008622046FFF705FF77
:103380002020C4F8840084F87880ECE72068C069C5
:1033900036EA000004D00020B842C7D00020E0E7A1
:1033A0000120F9E70148FFF7F7B9000068000020A5
:1033B000FEE703B401984100009850EAC12018BF0D
:1033C00004204A0D18BF40F0010040F2FF72B2EB3A
:1033D000515F08BF40F00200012808BF052002B07D
:1033E00070470907090E002804DB00F1E02080F88F
:1033F0000014704700F00F0000F1E02080F8141D69
:1034000070470000FEF712F9FFF78AFCFFF7E2FBB6
:10341000FFF764FCFFF714FC1748FEF7F5FE164CA7
:103420002068016A21F00A0101622068016A0162D4
:10343000124D002240212846FEF7E4F84FF4FA76B8
:103440003046FDF7BDFF0027012240212846FEF748
:10345000D9F8206847622068416A0A29FCD3002213
:1034600040212846FEF7CEF800210348FFF72AF84E
:103470003046FDF7A5FFE7E71C00002000040048E8
:1034800010B500290AD00878002807D005487844EC
:10349000FDF73CFB002801D0002010BD0248784415
:1034A00010BD00008A0400008204000021F00042E8
:1034B000A2F16052B2F5801F01F0004328BFD2F1A3
:1034C0007F6C0BD95FEA001C43EAC20242EB5070EA
:1034D00018BF704728BF20F001007047B2F5801F69
:1034E000BCBF184670474FEA410C1CF5001F02D2C2
:1034F000084600F093B970B500F0C6F800000089E6
:10350000FFF7F6BF4FF00040A0F580007047B0FA1B
:1035100080F310FA03F10AD0C3F11D0303F58063B1
:103520004FEA41504FEA035202EBD12170474FF06E
:1035300000007047DFF848C170B51CEA111E1EBFBD
:103540001CEA13159EEA0C0F95EA0C0F00F06F8031
:1035500081EA030423EA4C134EEAD47E21EA4C119B
:1035600041F4801143F48013AE44A1FB024CA0FB54
:103570000365AEF17F7E361955EB0C05A1FB034CBC
:103580004CF10003A0FB021C16EB0C06654153F145
:103590000003094218BF46F0010613F4007F0BD167
:1035A0004FEA03314FEA0530340341EA155140EA4E
:1035B00016506FF003020AE04FEAC3214FEAC5201C
:1035C000F40241EA555140EA56506FF0020202EB14
:1035D0002E4201EB025585EACE710AD05FEA440C17
:1035E00018BF24F0004450F1000041F1000120EA2E
:1035F000D47040F2FE7C624500D270BDA84214BF78
:103600004FF080444FF04044002E08BF0024BEF12C
:10361000806FA8BFA1F1C041BDE8704080F28280F8
:103620004FF0000001F1C04101F0004170479EEAF7
:103630000C0F0CEA131518BF95EA0C0F06D04FF0CB
:10364000000081EA030E0EF0004170BD00F01CF88E
:103650008900013E00F007B800F009B84FEA430CBA
:103660005FEA5C5C08D081EA030100F05BB84FEAD6
:10367000410C5FEA5C5CF6D14FF0000001497047F5
:103680000000FF070000F87F0EF1020E2EF0030E7F
:103690005EF8046B364205D4012A43EB030515F5A9
:1036A000001F12D8012841EB010C1CF5001F0CD89B
:1036B0000ED14FEAD17C15F5001F0CEB4C0C0CF130
:1036C000020C08BF4CEBD37C04E04FF0080C01E087
:1036D0004FEAD37C0CEB4C0526FA05F606F00706FC
:1036E000B6F1040C06D20EEB860CBDE870404CF02F
:1036F000010C6047DFE80CF0090B02024FF00041BB
:103700004FF00000A1F5002170BD194610460128B8
:1037100051EB010418BFD4F5001484BF002001F060
:10372000004170BD0808A0F500114FEA3101704753
:1037300043004FEAD30C4FEA3C0C43401FBF400705
:103740000CF1605113F0FE4F70471CF0006F03D175
:1037500000200CF0004170470CF0004343EA507029
:1037600010B540EACC0000F00EF800BF0000009257
:103770004FEA0001FFF7D6BF4FF000414FF00000C5
:10378000A1F5002170470EF1020E2EF0030E5EF837
:10379000044B244204D44FEA4102B2F17F4F11D8C6
:1037A0004FEA4003B3F17F4F0CD80ED14FEAD07CE3
:1037B000B2F17F4F0CEB4C0C0CF1020C08BF4CEB40
:1037C000D17C04E04FF0080C01E04FEAD17C0CEB17
:1037D0004C0324FA03F404F00704B4F1040C06D2F9
:1037E0000EEB840CBDE810404CF0010C6047DFE8A4
:1037F0000CF0070802024FF00040A0F5800010BD59
:103800000846420018BFD2F1807288BF00F0004025
:1038100010BD4FF04070E1EE100A7047FF2141EA01
:10382000D050C0057047FCF7EEBE02030405060742
:1038300008090A0B0C0D0E0F1010010203040506F7
:103840000708090A0B0C0D0E0F1000000000000005
:10385000000001020304060708090000000001023D
:103860000304000002400000000000A0000000006F
:1038700005400000000000C8000000000C400000EF
:103880000000409C00000000194000000020BCBE69
:103890000000000034400000BFC91B8E000000047F
:1038A000B5400000504BCFD06607E2CF01000000CA
:1038B0006C4100003E8251AADFEEA73401000000F7
:1038C000D9420000DCB5A0E23A301F97FFFFFFFFAE
:1038D000B4450000FD25A0C8E9A3C14FFFFFFFFFCD
:1038E000FF3F00000000008000000000FF3F0000DC
:1038F00000000080000000003439000800000020B3
:103900001C000000C4010008503900081C00002001
:1039100034070000E00100081C0000004300000024
:10392000F8FFFFFF0C0000000E0000000F00000079
:103930002E00000000000000000000000000000059
:1039400001000000100000000000000000127A00DA
:040000050800018965
:00000001FF
