:020000040800F2
:1000000060220020150300087B2600087D220008DE
:100010007926000843080008B92F000800000000F6
:100020000000000000000000000000003502000891
:10003000450800080000000091020008412A00085D
:100040002F0300082F0300082F0300082F030008C8
:100050002F0300082F0300082F0300082F030008B8
:100060002F0300082F0300082F0300082F030008A8
:100070002F0300082F0300082F0300082F03000898
:100080002F0300082F0300082F0300082F03000888
:100090002F0300082F0300082F0300082F03000878
:1000A0002F030008F92A00082F0300082F03000877
:1000B0002F03000800000000000000002F030008CC
:1000C0002F03000800000000000000002F030008BC
:1000D000000000002F030008992F00080000000016
:1000E0002F0300082F03000800000000000000009C
:1000F0000000000000000000000000000000000000
:100100000000000000000000000000002F030008B5
:1001100000000000000000002F0300082F0300086B
:100120002F0300082F0300082F0300082F030008E7
:100130002F03000800000000000000000000000085
:100140002F0300082F0300082F0300082F030008C7
:100150002F0300082F0300082F0300082F030008B7
:100160002F0300082F0300082F03000800000000E1
:100170002F0300082F03000800000000000000000B
:100180002F0300082F0300082F03000800F002F8D7
:1001900000F041F80AA090E8000C82448344AAF1E0
:1001A0000107DA4501D100F036F8AFF2090EBAE8DE
:1001B0000F0013F0010F18BFFB1A43F0010318479B
:1001C000D44F0000F44F0000103A24BF78C878C123
:1001D000FAD8520724BF30C830C144BF04680C604D
:1001E000704700000023002400250026103A28BF95
:1001F00078C1FBD8520728BF30C148BF0B60704799
:10020000642900F06781002070471FB504F02CFFBF
:100210001FBD10B510BD00F0DAFA1146FFF7F5FF6B
:1002200002F0DCFE00F0F8FA03B4FFF7F2FF03BCC3
:1002300000F000FB2C4B1968086800F05AB880F3F6
:100240000988BFF36F8F4FF0000080F3118870476B
:100250000000000008480068006880F308884FF03C
:10026000000080F3148862B661B6BFF34F8FBFF30E
:100270006F8F00DF00BF00BF08ED00E0DFF80C006B
:10028000016841F470010160704700BF88ED00E033
:10029000EFF30980BFF36F8F134B1A681EF0100F36
:1002A00008BF20ED108A20E9F04F106009B44FF02C
:1002B000500080F31188BFF34F8FBFF36F8F03F0AF
:1002C000BDFE4FF0000080F3118809BC1968086872
:1002D00000F014B81EF0100F08BF00F014B880F33F
:1002E0000988BFF36F8F70473C000020EFF3058053
:1002F000704730C8B0E8C04FFFF7A1BF30C8B0E8C2
:10030000C04FFFF7E7BFB0EC088AB0EC08CAFFF7B0
:10031000E6BF00000948804709480047FEE7FEE7BE
:10032000FEE7FEE7FEE7FEE7FEE7FEE7FEE7FEE7A5
:1003300004480549054A064B70470000E92A0008B1
:100340008D010008601C002060220020601E00203B
:10035000601E002053EA020C00F069802DE9F04B8A
:100360004FF00006002B1FBFB3FA83F503FA05F424
:1003700024FA05F65E4012BF1643B2FA82F502FA7D
:1003800005F4C5F120051EBF22FA05FC44EA0C0461
:10039000203556EA044C4FEA144418BF641C4FF051
:1003A00000084FF00009904271EB030C39D300298B
:1003B00019BFB1FA81F701FA07F6B0FA80F700FA2F
:1003C00007F6C7F120071EBF20FA07FC46EA0C0615
:1003D0002037B6FBF4FCA7EB0507103F07F01F0B17
:1003E000CBF120060CFA0BFB2CFA06F644BFB34601
:1003F0000026202FA4BF5E464FF0000B5BEA060CE0
:1004000008BF4FF0010B19EB0B09ABFB027C48EB6B
:100410000608C01B06FB02CC0BFB03CC71EB0C01E6
:10042000C1E70B46024641464846BDE8F08B13B58E
:100430004FF000004FF00001AFF30080BDE81C401A
:10044000704700000FB41CB5074B06AA7B446946F1
:100450000090059800F04FF90020694600F05EF921
:100460001CBC5DF814FB0000CD0200002DE9F0413A
:100470000E460446002020622046E168884730B3DB
:10048000252805D0D4E901219047206A401CF2E7D5
:10049000E168204600278847050018D0A5F14100F3
:1004A000192802D820354FF40067324629462046E5
:1004B0002760FFF7A5FE40B1012804D0F61D26F005
:1004C00007060836D8E7361DD6E72846DAE7206A59
:1004D000BDE8F0812DE9F041064600241068752939
:1004E000314616A510D0AFF30080002802DA404252
:1004F00013A507E031688A0701D512A502E0490774
:1005000004D511A5012401E0AFF3008000210A22E7
:1005100006F1240709E0B0FBF2FCB0FBF2F302FBAA
:100520001C00303078541846491C0028F3D123466B
:100530002A463046BDE8F04100F07FB800000000D8
:100540002D0000002B00000020000000032A40F2D4
:10055000308010F0030C00F0158011F8013BBCF165
:10056000020F624498BF11F801CB00F8013B38BF7D
:1005700011F8013BA2F1040298BF00F801CB38BF8B
:1005800000F8013B11F0030300F0CD80083AC0F001
:10059000088051F8043B083A51F804CBA0E8081051
:1005A000F5E7121D5CBF51F8043B40F8043BAFF384
:1005B0000080D20724BF11F8013B11F801CB48BFDE
:1005C00011F8012B24BF00F8013B00F801CB48BF14
:1005D00000F8012B704702F0FF0343EA032242EACE
:1005E000024200F0D4B84FF0000200B51346944622
:1005F0009646203922BFA0E80C50A0E80C50B1F17B
:100600002001BFF4F7AF090728BFA0E80C5048BF8E
:100610000CC05DF804EB890028BF40F8042B08BF2C
:10062000704748BF20F8022B11F0804F18BF00F828
:10063000012B70477047704770472DE9F0470D4612
:1006400099469246044600F124080168880604D5BC
:10065000E06921F01001216000E00120A84201DDE5
:10066000471B00E00027A1697A1902EB0900081A6C
:10067000A0612078C00602D42046AFF30080002697
:1006800008E0D4E901211AF806009047206A401CCE
:10069000761C20624E45F4DB2078C0060AD5204641
:1006A000AFF3008006E0D4E9012130209047206AB2
:1006B000401C2062381EA7F10107F4DC07E0D4E9F2
:1006C000012118F805009047206A401C2062281E6E
:1006D000A5F10105F3DC2046AFF300802078000689
:1006E00002D50220BDE8F0870120FBE701694A1C22
:1006F00002610878704700B58FB0CDE90131002163
:10070000059105497944CDE9031011466846FFF784
:10071000ADFE0FB000BD0000E5FFFFFF0A6802F864
:10072000010B0A60704710B5203AC0F00B80B1E8A9
:100730001850203AA0E81850B1E81850A0E8185016
:10074000BFF4F5AF5FEA027C24BFB1E81850A0E81F
:10075000185044BF18C918C0BDE810405FEA827C39
:1007600024BF51F8043B40F8043B08BF7047D20750
:1007700028BF31F8023B48BF11F8012B28BF20F8F1
:10078000023B48BF00F8012B70474FF000020429DC
:10079000C0F0128010F0030C3FF427AFCCF1040C32
:1007A000BCF1020F18BF00F8012BA8BF20F8022BE4
:1007B000A1EB0C01FFF719BF5FEAC17C24BF00F871
:1007C000012B00F8012B48BF00F8012B704775463C
:1007D00000F02CF8AE4605006946534620F00700AD
:1007E000854618B020B5FFF7A3FDBDE820404FF0C7
:1007F00000064FF000074FF000084FF0000B21F00B
:100800000701AC46ACE8C009ACE8C009ACE8C009D7
:10081000ACE8C0098D46704710B50446AFF30080C0
:100820002046BDE81040FFF7FFBC000000487047BD
:10083000FC1B002001491820ABBEFEE72600020089
:100840007047FEE7704772B6FEE710B590F82510C6
:100850000022022905D00421C16380F82420012050
:1008600010BD01680B6823F00E030B6001680B6874
:1008700023F001030B6090F84410046C01F01C039A
:10088000012101FA03F3636080F8251080F8242029
:10089000104610BD10B590F825100024022903D091
:1008A0000421C16301241AE001680A6822F00E02E3
:1008B0000A6001680A6822F001020A6090F8441098
:1008C000036C01F01C02012101FA02F25A6080F867
:1008D0002510002180F82410816B01B18847204643
:1008E00010BD000070B5044600F014F90546601C08
:1008F00002D004480078044400F00CF9401BA042E8
:10090000FAD370BD2C0000202DE9F04FDFF8E09104
:10091000002301270326A9F1040B85B00F2509F157
:10092000040AABF1040EDBE007FA03FC12EA0C0246
:100930007ED00C7904F00304012C01D0022C20D1CC
:10094000846800945C0006FA04F80494009C24EA8D
:1009500008040094D1F80C80049C08FA04F8009C68
:1009600048EA0408C0F80880446824EA0C0491F8B6
:1009700004C0CCF3001C0CFA03FC4CEA040CC0F8D5
:1009800004C00C79E443A4070DD0D0F80CC04FEAA2
:10099000430806FA08F42CEA040C8C6804FA08F4FC
:1009A00044EA0C04C4600C7904F00304022C19D14D
:1009B000DC0800EB84040294246A4FEA437C4FEA8B
:1009C000DC6CCDF810C005FA0CFC24EA0C04D1F85C
:1009D0001080DDF810C008FA0CF848EA0408029C00
:1009E000C4F8208004684FEA430806FA08FC24EAA9
:1009F0000C0491F804C00CF0030C0CFA08FC4CEA4F
:100A0000040CC0F800C04C6814F4403F67D0394C67
:100A1000D4F860C04CF0010CC4F860C0246E23F020
:100A2000030C04F001040094334C6444029400E08D
:100A300055E0A4684FEA837C4FEA1C7805FA08FC6D
:100A400024EA0C04B0F1904F06D0DFF8B0C0604546
:100A500005D14FF0010C0BE04FF0000C08E0DFF87F
:100A6000A0C0604502D14FF0020C01E04FF0070C2E
:100A70000CFA08FC4CEA040C029CC4F808C0D9F833
:100A80000040CC46D1F8048094435FEAC82800D5E2
:100A90001443CCF80040DAF80040D446D1F8048082
:100AA00094435FEA882800D51443CCF80040DBF873
:100AB0000040DC46D1F8048094435FEA883800D5D2
:100AC0001443CCF80040DEF80040F446D1F804802E
:100AD00094435FEAC83800D51443CCF800405B1C4F
:100AE0000C682246DC407FF41FAF05B000F00AB866
:100AF00008040140001002400000014000040048CA
:100B00000008004830BCBDE8C08F0AB18161704761
:100B10008162704701488068704700002C00002007
:100B200090F84120202A24D190F84020012A20D09A
:100B3000012280F84020242280F8412002681368B6
:100B400023F0010313600268136823F480531360D9
:100B5000026813680B43136001680A6842F00102DF
:100B60000A60202180F84110002180F840100846DA
:100B700070470220704790F84120202A22D190F837
:100B80004020012A1ED0012280F84020242280F833
:100B900041200268136823F00103136002681368A0
:100BA00023F4706343EA0121116001680A6842F08E
:100BB00001020A60202180F84110002180F84010D5
:100BC000084670470220704770B5040004D094F8BE
:100BD0004100002510B106E0012070BD84F84050AE
:100BE000204600F079F9242084F84100206801684B
:100BF00021F0010101606068216820F070600861E7
:100C00002068816821F400418160E0680128A068C3
:100C100007D040F4044021688860E068022803D0CF
:100C200006E040F40040F6E721684FF400604860B9
:100C300020684168114A114341602068C16821F46D
:100C40000041C160D4E904010843A16940EA0120E0
:100C50002168C860D4E9070108432168086020685A
:100C6000016841F0010101606564202084F84100C1
:100C7000256384F84250002070BD0000008000020F
:100C80002DE9F84F044690F84100DDF828A01F46F2
:100C900090468B4620287ED194F8400001287AD0D7
:100CA000012084F84000FFF735FF0646012200903E
:100CB0001923D103204601F09BFBE0BB222084F8DE
:100CC0004100102084F8420000256564C4F82480A7
:100CD00067856563618D3148FF274FF080784FF05D
:100CE0000079FF2903D927853A46009039E0618DC4
:100CF000218500903AE05946204601F061FB13E05F
:100D000001F0A2FBB8B92068406A616A0870606AA5
:100D1000401C6062208D401E80B22085618D491E7E
:100D20006185618D01B168B1608D32460028514600
:100D30002046E5D100E002E001F0D4FBD0B1012073
:100D400000F030B85346002280212046009601F082
:100D50004FFB0028F3D1608DFF2804D927853A4640
:100D600000954346C7E7608D2085009594F82820BC
:100D70004B46C0E721682020C86121684A68084BBB
:100D80001A404A6084F8410084F8425084F8405088
:100D90000020D5E7FFE70220D2E700000024008012
:100DA00000E800FE18BCBDE8E08F00002DE9F84F18
:100DB000044690F84100DDF828A01F4690468B4677
:100DC00020287ED194F8400001287AD0012084F8B0
:100DD0004000FFF79FFE0646012200901923D10331
:100DE000204601F005FBE0BB212084F841001020E3
:100DF00084F8420000256564C4F824806785656333
:100E0000618D3148FF274FF080784FF00079FF293E
:100E100003D927853A46009039E0618D21850090FD
:100E20003AE05946204601F0CBFA13E001F080FB8E
:100E3000B8B9606A216800788862606A401C6062A4
:100E4000608D401E6085208D401E80B22085618DA2
:100E500001B168B1608D3246002851462046E5D187
:100E600000E002E001F03EFBD0B1012000F030B81C
:100E70005346002280212046009601F0B9FA00284E
:100E8000F3D1608DFF2804D927853A460095434663
:100E9000C7E7608D2085009594F828204B46C0E771
:100EA00021682020C86121684A68084B1A404A60BE
:100EB00084F8410084F8425084F840500020D5E77F
:100EC000FFE70220D2E700000020008000E800FEDB
:100ED00018BCBDE8E08F000030B59BB0044614217B
:100EE00015A8FFF780FB54216846FFF77CFB1849E3
:100EF0002068884229D14020002500900B95684643
:100F000000F02EF908B1FFF79EFC124CE06C40F0A7
:100F10000100E064E06C15A900F001001A904FF4A4
:100F2000C06015901220CDE916050320189004200A
:100F300019904FF09040FFF7E7FCA06D40F40010CF
:100F4000A065A06D00F400101A901BB030BD000029
:100F500000540040001002400248816802781144A9
:100F6000816070472C00002010B50024032000F0A1
:100F700099F80F2000F008F808B1012401E000F012
:100F800049F8204610BD000030B505461C4887B022
:100F9000016E41F400610166006E06A900F4006074
:100FA000009001A800F0C4FA00F0F4FA1549164ABE
:100FB000B0FBF1F11548491E0260416040F2E73292
:100FC0000021C0E903218160816100F0FAFD040085
:100FD00012D10E4800F028FE04000DD1192000F0B7
:100FE00033F8102D07D200222946192000F03AF8D4
:100FF0000748056000E0012407B0204630BD00002E
:101000000010024040420F00002C01402403002049
:10101000300000200B4882B0016E41F001010166F2
:10102000016E01F001010091816D41F080518165F7
:10103000806D002200F0805000900F21901E02B0C1
:1010400000F010B800100240002809DB00F01F0279
:10105000012191404009800000F1E020C0F800111A
:1010600070470000F0B40E4B1B680C46C3F302231C
:10107000C3F10705042D00D90425191D072901D244
:10108000002300E0DB1E012606FA05F1491E21407F
:1010900099409E40761E16403143F0BC01F08DBF52
:1010A0000CED00E0064900F0070208684FF6FF0368
:1010B000184040EA0220034A1043086070470000CD
:1010C0000CED00E00000FA051649B0F5007F086855
:1010D000C0F3412009D0022805D0086820F4C06080
:1010E00040F480600860002070470128FBD0086849
:1010F00020F4C06040F4007008600B4832220068A1
:1011000050430A4AB0FBF2F0401C00E0401E4A691E
:10111000520501D50028F9D148694005E3D50320DF
:1011200070470000007000403800002040420F006F
:101130000248006800F4C060704700000070004082
:101140000248016841F480710160704700700040FE
:101150000248016841F0040101607047001002403C
:101160002DE9F84F0446002700889C4D3E460005B7
:1011700015D5E06B60B1B0F5000F04D0B0F5400FAD
:101180002BD001270AE0E86840F48030E86024E0D2
:101190000021201D01F072FA07001ED03E46206893
:1011A000800338D5A86D4FF00008C00009D4A86DA1
:1011B00040F08050A865A86D4FF0010800F0805005
:1011C0000090DFF81CA2DAF8001041F48071CAF830
:1011D0000010FFF79FFC814610E0D5F88800E16B16
:1011E00020F440000843C5F88800D8E7FFF792FCD8
:1011F000A0EB0900022801D9032704E0DAF8000077
:10120000C005F3D5EFB33E46B8F1000F03D0A86D8B
:1012100020F08050A8652078C00707D0D5F8880056
:10122000216A20F003000843C5F888002078800771
:1012300007D5D5F88800616A20F00C000843C5F88E
:1012400088002078800607D5D5F88800A16A20F4A8
:1012500040600843C5F888002088800507D5D5F888
:101260008800616B20F440200843C5F8880020887E
:10127000400509D5D5F88800A16B20F4401008433B
:1012800000E02EE0C5F888002078400607D5D5F8A4
:101290008800E16A20F440500843C5F8880020889F
:1012A000C00507D5D5F88800216B20F440300843ED
:1012B000C5F8880020884FF0006780044FF08068F0
:1012C0004ED5D5F88800216C20F040600843C5F861
:1012D0008800206CB8423BD1E86840F48010E86098
:1012E0003EE0D5F8900010F4407014D0216D81429A
:1012F00011D0D5F89000D5F8901020F4407041F44A
:101300008031C5F89010D5F8901021F48031C5F8DF
:101310009010C5F89000C00711D0FFF7FBFB0746FF
:1013200041F2883907E000BFFFF7F4FBC11B4945D4
:1013300001D9032668E7D5F890008007F4D5D5F8E1
:101340009000216D20F440700843C5F890005BE7E1
:10135000404505D10121201D01F090F900B106465C
:101360002068400317D5D5F88800616C20F04060F4
:101370000843C5F88800606CB84204D1E86840F4BE
:101380008010E86007E0404505D10121201D01F0F3
:1013900075F900B106462088400411D5D5F88800BB
:1013A000A16C20F040500843C5F88800A06CB0F153
:1013B000805F05D10221201D01F060F900B10646D1
:1013C0002088000406D555F8880FE16C20F0804095
:1013D00008432860304600F005B8000000100240C5
:1013E0000070004018BCBDE8E08F00002DE9F04718
:1013F0000F4605006BD0494E306800F00700B84238
:1014000009D2306820F0070038433060306800F0BF
:101410000700B8425BD12878414C80070AD5A868FC
:10142000A16801F0F001884204D9A16821F0F0011F
:101430000143A1602878C0072CD06868032811D028
:10144000022812D0216898B1490500293FDAA16825
:1014500021F003010143A160FFF75CFB804641F2EC
:10146000883910E021688901EFE721688903ECE7FA
:101470008907EAE7FFF74EFBA0EB0801494502D9CF
:101480000320BDE8F087A068696800F00C00B0EBAD
:10149000810FEFD1287880070AD5A868A16801F0EC
:1014A000F001884204D2A16821F0F0010143A1605B
:1014B000306800F00700B8420BD9306820F0070010
:1014C00038433060306800F00700B84201D0012096
:1014D000D7E72878400705D5A068E96820F4E060E0
:1014E0000843A0602878000706D5A068296920F481
:1014F000605040EAC100A06000F05EF8A168094AAF
:10150000C1F30311515C01F01F01C8400649086096
:1015100006480068BDE8F047FFF736BD00200240EE
:10152000001002400C51000838000020300000205C
:101530000F2202600C4A936803F003034360936830
:1015400003F0F0038360936803F4E063C360926880
:101550004FF4E06303EAD20202610448006800F03D
:1015600007000860704700000010024000200240A1
:101570000548064900688968054AC1F30221515CA3
:1015800001F01F01C84070473800002000100240E1
:101590004C5100080548064900688968054AC1F3AE
:1015A000C221515C01F01F01C84070473800002083
:1015B000001002404C51000870B525490023184620
:1015C0008A68CC6812F00C0204F00306214C4FEA42
:1015D000640509D00C2A05D0042A32D0082A00D18B
:1015E000284670BD012E10D10B681B0704D4D1F81A
:1015F0009430C3F3032302E00B68C3F30313164EC6
:1016000056F82330DAB10C2AEBD1C86800F0030099
:10161000022818D0032818D01846CA68CB68C2F32D
:101620000212C3F306234343521CB3FBF2F2C86811
:10163000C0F34160401C4000B2FBF0F070BD1846A2
:1016400070BD204670BD2046E7E72846E5E700006C
:10165000001002400024F4001C5100082DE9F8435A
:1016600004006FD0FA4DA86800F00C06E86800F09E
:1016700003072078C00664D576B10C2E01D1012F66
:101680000AD0A069002828687AD040F001002860BC
:10169000FFF740FA80465DE02868800702D5A06920
:1016A0000028DED0216A2868000703D5286800F0EA
:1016B000F00004E0D5F89400F02202EA1010814214
:1016C00016D9084601F070F800283BD1286840F090
:1016D000080028602868216A20F0F000084328608C
:1016E0006868E16920F47F4040EA0120686016E004
:1016F000286840F0080028602868216A20F0F0007F
:10170000084328606868E16920F47F4040EA0120CE
:10171000686026B9206A01F047F80028D5D1FFF7A4
:101720004BFFA968CB4AC1F30311515C01F01F01C3
:10173000C840C9490860C9480068FFF725FC00286F
:101740007ED12EE0CAE000BFFFF7E4F9A0EB08006D
:10175000022876D828688007F6D5286840F0080067
:1017600028602868216A20F0F00008432860686833
:10177000E16920F47F4040EA0120686011E0FFE762
:1017800020F001002860FFF7C5F9804606E000BFA1
:10179000FFF7C0F9A0EB08000228DAD82868800714
:1017A000F6D42078C00740D0082E18D00C2E01D1D6
:1017B000032F14D06068B0F5803F17D0B0F5A02F8C
:1017C000286817D020F480302860286820F4802012
:1017D00028606068E0B1FFF79DF9804614E0286852
:1017E000800322D56068002878D01EE0286840F485
:1017F0008030EDE740F480202860F7E7FFF78AF9B2
:10180000A0EB08006428A4D828688003F6D50CE073
:10181000FFF780F9804605E0FFF77CF9A0EB0800B0
:10182000642896D828688003F6D4207880073BD5B2
:10183000042E11D00C2E01D1022F0DD0E06801E052
:10184000AAE1FFE0002828681ED040F480702860DC
:10185000FFF760F907460CE0286840050CD5E06802
:101860000028C1D008E000BFFFF754F9C01B0228D0
:1018700093D828684005F7D56868217C20F0F85097
:1018800040EA016068600FE020F480702860FFF794
:1018900041F9074605E000BFFFF73CF9C01B0228ED
:1018A000B1D828684005F7D42078000729D56069A9
:1018B0000028D5F8940012D040F00100C5F894003B
:1018C000FFF728F9074604E0FFF724F9C01B0228B8
:1018D00099D8D5F894008007F6D512E02BE120F0D6
:1018E0000100C5F89400FFF715F9074605E000BFB1
:1018F000FFF710F9C01B022885D8D5F8940080079F
:10190000F6D42078400766D5A86D0027C00008D41B
:10191000A86D40F08050A865A86D012700F08050A8
:1019200000904F480168C90512D40168814641F40E
:1019300080710160FFF7EEF8804605E0FFF7EAF8F6
:10194000A0EB080002287DD8D9F80000C005F5D525
:10195000A068012816D00528D5F8900017D020F0EF
:101960000100C5F89000D5F8900020F0040000BFF9
:10197000C5F89000A06841F28839C0B1FFF7CAF8F5
:1019800080460FE0D5F8900040F00100F0E740F00D
:101990000400C5F89000F5E7FFF7BCF8A0EB0801DC
:1019A00049454FD8D5F890008007F5D50EE0FFF7F0
:1019B000B1F8804606E000BFFFF7ACF8A0EB0801E5
:1019C00049453FD8D5F890008007F5D41FB1A86DE0
:1019D00020F08050A8652078800628D5606A00280D
:1019E000D5F8980012D040F00100C5F89800FFF734
:1019F00091F8074605E000BFFFF78CF8C01B0228EE
:101A000020D8D5F898008007F6D510E020F0010026
:101A1000C5F89800FFF77EF8074604E0FFF77AF86C
:101A2000C01B02280ED8D5F898008007F6D4A06A0B
:101A3000F0B3022816D00C2E7DD0286820F08070DC
:101A4000286000E0A7E0FFF765F80446A6E0000084
:101A5000001002400C510008380000203000002027
:101A600000700040E868E26A00F00301914228D16A
:101A7000216B00F0700209011039914221D1626B93
:101A800000F4FE41B1EB022F1BD194F8382000F096
:101A90007841B1EBC26F14D1A18F00F4C0024908A4
:101AA0004905A1F5001191420BD194F8401000E0D6
:101AB0006AE04908490600F0C060A1F10071814266
:101AC0004BD00C2E73D02868400170D4286820F0C9
:101AD00080702860FFF71EF8064604E0FFF71AF84A
:101AE000801B022857D828688001F7D4F4E90B013D
:101AF0006FF00F0202EB01110843218A52044908DA
:101B000002EB4151A26841EA02210843217D4FF0D6
:101B10007E42490802EB41610843217B40EAC160F3
:101B2000E968244A11400843E860286840F0807062
:101B30002860E86800E03AE040F08070E860FEF776
:101B4000E9FF044605E000BFFEF7E4FF001B0228A2
:101B500021D828688001F7D527E02868800124D49F
:101B6000286840F080702860E86840F08070E86085
:101B7000FEF7D0FF044604E0FEF7CCFF001B02286E
:101B800009D828688001F7D50FE000BFFEF7C2FF33
:101B9000001B022802D90320BDE8F88328688001D1
:101BA000F4D4E86804490840E8600020F4E7012024
:101BB000F2E700008C809D01FCFFEEFE704770474D
:101BC000704710B5040003D094F83D0010B107E051
:101BD000012010BD002084F83C00204600F022F8CF
:101BE000022084F83D00211D206800F08BFF0120B9
:101BF00084F8480084F83E0084F83F0084F84000F0
:101C000084F8410084F8420084F8430084F84400DA
:101C100084F8450084F8460084F8470084F83D00C5
:101C2000002010BD7047000090F83D10012901D040
:101C300001207047022180F83D100168CA6842F017
:101C40000102CA6000680B49884205D0B0F1804F9C
:101C500002D00949884207D18168084A1140062903
:101C600006D0B1F5803F03D0016841F00101016069
:101C700000207047002C0140004001400700010097
:101C8000704770B50446006801694FF00005C9430C
:101C9000890715D4C168C943890711D4E91E0161B8
:101CA00001202077206880698007204602D0FFF756
:101CB000E7FF04E000F0A7F8204600F0A5F825773C
:101CC00020680169C943490717D4C168C943490756
:101CD00013D46FF00401016102202077206880692D
:101CE00010F4407F204602D0FFF7CAFF04E000F066
:101CF0008AF8204600F088F8257720680169C943F2
:101D0000090716D4C168C943090712D46FF0080146
:101D10000161042020772068C0698007204602D036
:101D2000FFF7AEFF04E000F06EF8204600F06CF81C
:101D3000257720680169C943C90617D4C168C9431A
:101D4000C90613D46FF010010161082020772068C4
:101D5000C06910F4407F204602D0FFF791FF04E0F5
:101D600000F051F8204600F04FF82577206801690F
:101D7000C943C90708D1C168C943C90704D1891E2D
:101D80000161204600F042F820680169C943090654
:101D900009D4C168C943090605D46FF08001016107
:101DA0002046FFF70CFF20680169C943C90509D423
:101DB000C168C943090605D46FF4807101612046EA
:101DC000FFF7FCFE20680169C943490609D4C168D0
:101DD000C943490605D46FF040010161204600F077
:101DE0001FF820680169C94389060BD4C168C9433B
:101DF000890607D46FF0200101612046BDE87040DC
:101E0000FFF7DEBE70BD70477047000000680349F1
:101E1000884201D1FFF7A0B870470000002C0140B4
:101E200070477047704770472DE9F04102680446DB
:101E3000D0691168936840F60F0528424FF00005FD
:101E400005D186067ED58E067CD5616E1BE1994F45
:101E500003F001060F40374374D0C70709D0CF0500
:101E600007D501271762D4F8802042F00102C4F898
:101E7000802082070AD5DA0708D0276802223A6252
:101E8000D4F8802042F00402C4F8802042070AD52A
:101E9000DA0708D0236804221A62D4F8802042F0BE
:101EA0000202C4F8802002070CD501F02002324360
:101EB00008D0236808221A62D4F8802042F0080271
:101EC000C4F8802002050BD54A0109D523684FF4D8
:101ED00000621A62D4F8802042F02002C4F8802008
:101EE000D4F88020002A35D0800605D5880603D591
:101EF000616E09B120468847D4F88000216889685E
:101F0000490602D410F0280F26D0204600F0CCFE5F
:101F10002068806840061AD52068083050E8001F05
:101F200021F0400140E80012002AF5D1206F70B185
:101F300061498163206FFEF7ADFC00280AD0206F55
:101F4000816B01E00EE02046BDE8F04108472046E5
:101F5000FFF769FFBDE8F0812046FFF764FFC4F892
:101F60008050F7E7276E2026012F7BD1C70679D551
:101F7000CF0677D51020106220688068400641D5D2
:101F8000216F086840680004000CE3D0B4F85820C2
:101F90008242DFD9A4F85A000868006880062AD473
:101FA000206850E8001F21F4807140E80012002AE8
:101FB000F6D12068083050E8001F21F0010140E808
:101FC0000012002AF5D12068083050E8001F21F0E7
:101FD000400140E80012002AF5D1E6672566216835
:101FE00051E8000F20F0100041E80002002AF6D16D
:101FF000206FFEF72AFCB4F85800B4F85A10401AC3
:1020000081B22AE0B4F85800B4F85A10401A81B2EC
:10201000B4F85A0000289DD000299BD0226852E8CD
:10202000000F20F4907042E80003002BF6D12068E6
:10203000083050E8002F22F0010240E80023002B76
:10204000F5D1E66725666566226852E8000F20F044
:10205000100042E80003002BF6D12046FFF7E1FE16
:1020600078E7FFE7C70209D55B0207D54FF4801078
:1020700010622046BDE8F041FFF7D4BE020606D547
:102080000A0604D5A16E00297FF45DAF62E7400621
:10209000E6D54806E4D52046026852E8001F21F044
:1020A000400142E80013002BF6D18667856600F0F8
:1020B000E4F84FE720010004952C000810B5040057
:1020C00002D0A06F10B107E0012010BD002084F8FD
:1020D0007400204600F026F82420A06720680168DC
:1020E00021F001010160204600F004FE0128ECD03F
:1020F000606A10B1204600F03BFD2068416821F481
:10210000904141602068816821F02A018160206847
:10211000016841F0010101602046BDE8104000F077
:102120008BBD0000F0B59BB00446142115A8FEF746
:102130005AFA54216846FEF756FA20492068884228
:102140003AD102240026684609960094FFF708F861
:1021500008B1FEF778FB1A48816D41F400318165C2
:10216000816D01F400311A91C16C41F00101C1642B
:10217000C06C15A900F001001A90042081E85100FC
:1021800003250720CDE918504FF090473846FEF759
:10219000BBFBCDE917654FF400401995CDE9150457
:1021A00015A93846FEF7B0FB002205212620FEF7D0
:1021B00059FF2620FEF748FF1BB0F0BD0044004049
:1021C000001002402DE9F8430446806F1F46164672
:1021D0000D4620284FD1CDB1C6B194F87400012826
:1021E00049D0012084F874004FF00008C4F88080C2
:1021F0002120A067FEF78EFCA4F850608146A4F869
:102200005260A068B0F5805F03D004E00120BDE813
:10221000F883206928B12E465FF0000584F87480A9
:1022200010E00026FAE78021204600F051FEB8B900
:10223000C6B116F8010B21680885B4F85200401E9B
:10224000A4F85200B4F852004B464FF00002009739
:102250000028E8D14FF04001204600F039FE30B1AF
:102260000320D4E735F8020BC0F30800E3E7202091
:10227000A0670020CBE70220C9E77047FEE70168AE
:102280008A69D243920701D400228A620068816978
:10229000C943C90703D0816941F0010181617047D9
:1022A0002DE9F047044600688A46174681690025F3
:1022B0002E46C906A9464FF0200849D51021C16114
:1022C00037E000BFBAF1FF3F33D0FEF723FCC11B5C
:1022D000514502D8BAF1000F2BD12068416894F81B
:1022E000422001F480418369DB431B041CD4B1F517
:1022F000804F19D0202A17D0416841F480414160B5
:10230000FEF708FC07460FE0FEF704FCC01B192887
:102310000AD9606C40F02000606484F8418084F841
:10232000429084F84090012520688069C04380066F
:10233000EAD420688069C043800602D5002DC1D050
:1023400003E015B92168C1F81C8046F00406012598
:1023500021688869C20505D54FF4807246F00106F0
:10236000CA610125410509D522684FF4806146F014
:102370000806D1610125800502D40AE0800507D551
:1023800021684FF4007046F00206C861012500E0A4
:102390008DB12046FFF773FF54F8240B4168074ABC
:1023A00011404160206A3043206284F81D8084F827
:1023B0001E9084F81C902846BDE8F08700E800FED7
:1023C00010B5C1F3090141EA02410268029C1943B8
:1023D0002143506821F000414FF4806303EA5453D5
:1023E000024C234398430843506010BDFF63FF0332
:1023F0002DE9F0411D4617460E460446DDF81880CB
:1024000008E0681C06D0FEF785FBA0EB0800A84298
:102410000BD855B12068806936EA000012D0002040
:10242000B842EED00020BDE8F08154F8440F40F0EF
:10243000200044F80409202060700020A070207063
:102440000120F0E70120EBE72DE9F041202690463E
:102450000F460446002530E0424639462046FFF745
:102460001FFF10BB20688069C04380061ED420680F
:102470008169C943490701D4218D19BB8169C943C9
:10248000C90604D41021C1610420606400E06564C1
:102490002068C66120684168114A1140416084F893
:1024A000416084F8425084F8405016E0FEF732FB59
:1024B000A0EB0800B84208D83FB120688069C0434B
:1024C0004007C9D40020BDE8F08154F8440F40F023
:1024D000200044F80409667025700120F3E700002D
:1024E00000E800FE70B516460D4604460DE0324683
:1024F00029462046FFF7D4FE08B1012070BDFEF743
:1025000009FB801BA84207D835B120688069C04309
:102510008006ECD4002070BD54F8440F40F0200039
:1025200044F80409202060700020A0702070E4E7C7
:1025300070B516460D4604460FE032462946204641
:10254000FFF7AEFE08B1012070BD681C05D0FEF794
:10255000E1FA801BA84207D835B120688069C043E2
:102560008007EAD4002070BD54F8440F40F02000EA
:1025700044F80409202060700020A0702070E2E779
:1025800010B586B014216846FEF72DF81548C16CC9
:1025900041F00401C164C16C01F004010591C16CFA
:1025A00041F00101C164C16C01F001010591C16CF0
:1025B00041F00201C164C06C0B4C00F002000590B8
:1025C000002208212046FEF7A0FA082000900120F2
:1025D0000021CDE90101039169462046FEF794F9F7
:1025E00006B010BD0010024000040048124810B5AB
:1025F000104901601149416000210122C0E9021225
:10260000016141618161C1610162FEF7DDFA08B1DA
:1026100072B6FEE700210848FEF782FA08B172B6EA
:10262000FEE700210448FEF7A6FA002801D072B6A2
:10263000FEE710BD005400404C020020BB7C70003F
:102640000C4810B50A4901604FF416514160002151
:1026500081600C22C160C0E904128161C161016224
:102660004162FFF72BFD002801D072B6FEE710BDD6
:1026700000440040A0020020FEE7FEE72DE9F04103
:10268000444C05468846E0680026810728680DD03E
:10269000E16801F00301814216D1A8B1E0686968E0
:1026A000C0F30210401C88420ED120E0012804D063
:1026B000022805D0032807D108E02168890701E036
:1026C00021684905002907DB01265FE021688903AD
:1026D00002D421684903F5E7E1686A686FF00F03E7
:1026E00021F0730103EB021211430143E160206802
:1026F00020F080602060FEF70DFA074605E000BF7D
:10270000FEF708FAC01B022837D820680001F7D46A
:10271000B8F1000F18D0B8F1010F1DD0287D4FF08F
:102720007E41400801EB4060A96840EA0120216930
:10273000194A114008432061206840F08060206001
:10274000FEF7E8F907461AE0A868297B000240EA8C
:10275000C1602169114AECE7288A1149400801EB60
:102760004050A96840EA012021690E4AE1E700BF14
:10277000FEF7D0F9C01B022801D9032606E0206825
:102780000001F5D52069A969084320613046BDE8FC
:10279000F081000000100240FF80FFF9FF80FF077A
:1027A0000000E0FFFF809FFFF8B51C4D06460024A7
:1027B000A86DC00002D5FEF7BBFC0DE0A86D40F08F
:1027C0008050A865A86D00F080500090FEF7B0FC26
:1027D000A96D21F08051A965B0F5007F04D0802E4D
:1027E00007D94FF003040AE0802E08D9A02E01D8A3
:1027F00004E001D1022402E0702E00D10124084837
:10280000016821F0070121430160006800F0070022
:10281000A04201D00120F8BD0020F8BD0010024008
:10282000002002401FB5414C3F4F04F10A063946D3
:10283000606A01F095FFE8B33C4A0A250123921D26
:10284000D0213B480095FEF7B1FADFF8E080012384
:1028500008F1060808F10102D12135480095FEF77C
:102860000FFA98F8010001230109217100F00F000F
:10287000607108F10202D0212D480095FEF796FA0A
:1028800008F10208012308F10102D121284800952E
:10289000FEF7F6F998F8010001230109A17000F094
:1028A0000F00E07008F10202D02121480095FEF7E8
:1028B0007DFA00E00CE00123721CD1211C48009538
:1028C000FEF7DEF900231A461946606A01F04EFD54
:1028D0003946A06A01F044FF10B37078C0F30012CB
:1028E000227000F00F036370A07894F805C025797A
:1028F000E1788DE823100FA11248FDF7A3FD1149DF
:102900000A23C82201F5F270FFF75CFC00231A4687
:102910001946A06A01F02AFD4FF47A70FDF7E2FF34
:10292000012000F0D9FB82E77F969800000000208C
:102930004C020020256425643A256425643A256408
:1029400025642000BC00002008B5344C324F04F14F
:102950000E0604F110083946606A01F001FF28B341
:102960002E4A0A2501230E32D0212D480095FEF76C
:102970001DFA0123721CD12129480095FEF780F928
:10298000264A01231032D02125480095FEF70EFA81
:10299000012308F10102D12121480095FEF770F9C9
:1029A00000231A461946606A01F0E0FC3946A06A25
:1029B00001F0D6FE58B398F80100800902F043FAFE
:1029C0009FED181B53EC112B02F050FA9FED171BD3
:1029D00053EC112B02F04AFA02F006FA03461048B3
:1029E000727814A1C838FDF72DFD0D490A23C839A6
:1029F000C82201F58E70FFF7E5FB00231A46194641
:102A0000A06A01F0B3FC4FF47A70FDF76BFF012070
:102A100000F062FB9FE700007F9698000000002016
:102A20004C020020000000000000D03F0000000029
:102A30000000594025642E256443200D0A00000043
:102A400010B54FF0E020006901F0DCFF012803D051
:102A5000BDE8104001F09EBB10BD000010B596B05F
:102A600044216846FDF7BFFD142111A8FDF7BBFD09
:102A70004FF40070FEF728FB08B172B6FEE7FEF7D0
:102A80005FFB184850F8901F21F0180101601420D6
:102A9000009001200290002460210690CDE90741BA
:102AA0000221CDE90A100C9010200D900720CDE9ED
:102AB0000E0168461091FEF7D1FD08B172B6FEE72F
:102AC0000F2011900320CDE912041494012111A8C4
:102AD0001594FEF78BFC08B172B6FEE7FEF738FBE3
:102AE00016B010BD001002400248016841F47001A8
:102AF0000160704788ED00E00148FFF7C2B80000B0
:102B00002403002070B50268164B4FF080469842AF
:102B100001D0B04203D122F070044A682243124C23
:102B2000124D984205D0B04203D0A04201D0A84235
:102B300003D122F44076CA6832434E6922F0800203
:102B4000324302608A68C2620A688262984203D095
:102B5000A04201D0A84201D109690163012141616C
:102B600070BD0000002C01400040014000440140C5
:102B700090F82410C90706D001684A68836A22F4D5
:102B800000321A434A6090F82410890706D501687C
:102B90004A68C36A22F480321A434A6090F82410CB
:102BA000490706D501684A68036B22F480221A435C
:102BB0004A6090F82410090706D501684A68436BFB
:102BC00022F400421A434A6090F82410C90606D540
:102BD00001688A68836B22F480521A438A6090F8F5
:102BE0002410890606D501688A68C36B22F4005256
:102BF0001A438A6090F82410490611D501684A6882
:102C0000036C22F480121A434A60016CB1F5801FF4
:102C100006D101684A68436C22F4C0021A434A6034
:102C200090F82410090606D501684A68806C22F4E1
:102C3000002202434A607047F8B500260446C0F8F7
:102C40008060FDF767FF0546206800686FF07E47EB
:102C5000000708D52B4600224FF4001120460097AC
:102C600000F036F960B92068006840070AD52B46A5
:102C700000224FF480012046009700F029F908B1A6
:102C80000320F8BD2020A067E067266684F8746002
:102C90000020F8BD10B5806A0021A0F85A10A0F8F5
:102CA0005210FFF7C0F810BD016851E8002F22F460
:102CB000907241E80023002BF6D10168083151E8F9
:102CC000002F22F0010241E80023002BF5D1016E14
:102CD000012908D1026852E8001F21F0100142E8E2
:102CE0000013002BF6D12021C16700210166416647
:102CF000704700002DE9F0410446016880682269B0
:102D0000E66910436269002532431043694B0A6843
:102D1000694E324002430A6020684168E26821F44B
:102D20004051114341602168A069994201D0226A53
:102D300010438A6822F4306202438A605F49276840
:102D40005F488F420DD1D0F8880010F0030006D004
:102D5000012838D0022834D0032821D135E00121C0
:102D60001FE058498F420BD1D0F8880010F00C00BA
:102D700025D0042827D0082823D00C2810D124E0FF
:102D80009F420DD1D0F8880010F4406017D0B0F504
:102D9000806F18D0B0F5006F13D0B0F5406F14D02D
:102DA0001021494A00264FF400409F422FD171B1B3
:102DB00002290FD004290FD0082973D10FE0002178
:102DC000EFE70221EDE70421EBE70821E9E7FEF751
:102DD000CFFB03E0104602E0FEF7EEFBF0B36268C3
:102DE00002EB420181425DD8B0EB023F5AD8010E9E
:102DF00003025008181871410023FDF7ABFA334A5B
:102E0000A0F5407191424DD82168C8604BE0E3695C
:102E10004FF6EF77834228D1092943D2DFE801F04A
:102E200005080B420D4242421000FEF7A1FB06E0EE
:102E3000FEF7B0FB03E0104602E0FEF7BDFB68B111
:102E40004100606801EB5001B1FBF0F0A0F110010E
:102E5000B94227D84FF6F071014000E023E0C0F3FB
:102E6000420001432068C1601DE009291AD2DFE851
:102E700001F005080B190D1919191000FEF778FB60
:102E800006E0FEF787FB03E0104602E0FEF794FB46
:102E900048B1616800EB5100B0FBF1F0A0F1100106
:102EA000B94205D9012566662846A666BDE8F081C7
:102EB00080B2A9E700800040F369FFEF00380140CD
:102EC00000100240004400400024F400FFFC0F000A
:102ED0002DE9F0479A4617460E4604464FF0000982
:102EE0004FF02008089D4AE0681C48D0FDF712FE0C
:102EF000A0EB0A00A8422AD84DB320680168490710
:102F00003DD5C069C043000539D421684FF4006045
:102F10000862206850E8001F21F4D07140E80012D8
:102F2000002AF6D12068083050E8001F21F0010186
:102F300040E80012002AF5D1C4F87880C4F87C80FB
:102F4000C4F8808084F874900320BDE8F08721687D
:102F500051E8000F20F4D07041E80002002AF6D1B9
:102F60002068083050E8001F21F0010140E80012FD
:102F7000002AF5D1C4F87880C4F87C80E2E72068A4
:102F8000C06936EA000004D00020B842ACD000206E
:102F9000DBE70120F9E70000054810B500210068D3
:102FA00001F0F3FABDE810400248FEF73DBF000013
:102FB00024000020A0020020FEE70907090E0028D7
:102FC00004DB00F1E02080F80014704700F00F00EF
:102FD00000F1E02080F8141D7047000008B5FDF7EF
:102FE000C3FFFFF73BFDFFF7CBFAFFF729FBFFF726
:102FF000FDFA3449112012250870881C0E21057035
:10300000001F0A2401703C21417002460223D02196
:103010002D480094FDF7CAFE2A49002008390A46C7
:10302000087048700223D02127480094FDF7BEFEA7
:1030300024480121801F024601704621417002236D
:10304000D02121480094FDF7B1FE1E480221001F47
:103050000B46017045700246D0211B480094FDF7D5
:10306000A5FE00F047F80121184A084600F09CF838
:10307000144C164A0E3C012160621032084600F0E2
:1030800093F8124AA062303A0121042000F060F85F
:103090000E4AE061183A0121042000F059F80B4A69
:1030A0002062783A00210A4800F0CAF8074A6061B5
:1030B000543A0021074800F0C3F8A06100F02CF852
:1030C000FEE700000E0000204C020020EC5000083B
:1030D000252800084929000810B5EFF3058111B132
:1030E0006FF0050403E0002408B100F0ABFE2046B9
:1030F00010BD0000EFF3058010B16FF005007047C0
:103100000448016811B14FF0FF30704701210160A0
:10311000002070478C00002010B5EFF3058010B13F
:103120006FF0050010BD08480168012902D04FF07A
:10313000FF3010BD054A002182F8141D02210160F4
:1031400000F030FF002010BD8C0000200BE000E0FC
:10315000F8B514464FF00005EFF3058212BB08B333
:1031600001B3A4B1D4E9023263B1502A1AD322695F
:10317000C2B1676900FB01F6B74213D3009501F0B5
:103180007DF807E072B9226962B9626952B900221A
:1031900001F053F8050005D00CB1216800E00021D2
:1031A00000F0EEFD2846F8BDF8B5144603460E467D
:1031B0004FF00005EFF3058098BB93B39E423DD8D6
:1031C0004CB1A0680028E06803D0502836D3012015
:1031D00002E008B132E00020012B05D010B3184600
:1031E000A26801F00AF820E040B10320009000221C
:1031F00011460120A36801F041F804E003220021F8
:10320000012001F01AF8050018D086B100231A46F3
:10321000194601F0ABF8012809D0284600F0C4FD9A
:1032200000250BE0184600F0CBFF050006D00CB1DE
:10323000216800E00021284600F0A2FD2846F8BDE4
:103240002DE9FF414FEA01034FF00005EFF305813F
:10325000039549BB40B38027182100244AB3166860
:1032600006B1344696691EB13146761E382E02D21A
:103270001679F60703D0002004B0BDE8F081566946
:1032800006B1B708D2F808C0BCF1000F0DD0D56860
:103290005C2D18D312693AB136B18DE806103A4662
:1032A000214601F083FB03900DE0D6685EB91269F8
:1032B0004AB903AACDE90012BAB2214601F046FB91
:1032C000012800D003950398D6E700002DE9F041CE
:1032D000134C0F460546E6682068001D00F052FCBE
:1032E000681C07D137B12168BDE8F0410D48091DC0
:1032F00000F098BC20683544B5424560216805D28D
:10330000A06BBDE8F041091D00F074BC606B091DA5
:1033100000F070FCA06A854200D2A562BDE8F08191
:103320003C000020600800202DE9F041054600F037
:1033300085FC2D4CA068401CA06020682B4F10B16C
:10334000606930B32BE02560A068012827D10026F2
:1033500006EB860007EB800000F03EFC761C382E62
:10336000F6D3234800F038FC2148143000F034FC38
:103370001F48283000F030FC1D483C3000F02CFC89
:103380001B48503000F028FC194860631430A063DB
:1033900005E02068E96AC06A884200D82560606A52
:1033A000401C60626864E86A2169884200D9206133
:1033B00000EB800007EB8000291D00F033FC00F0DB
:1033C0005DFC606900280CD02068E96AC06A884208
:1033D00007D208494FF080500860BFF34F8FBFF30A
:1033E0006F8FBDE8F08100003C000020B00300209A
:1033F0001008002004ED00E038B500F01FFC104C70
:103400002068C8B90F4800F0E7FB0E48143000F000
:10341000E3FB0C48E060143020610A4B0020F03BD5
:10342000009003F1500210210A2000F027FF2060D5
:1034300010B105A100F0A4FCBDE8384000F01EBCAE
:103440007800002064090020546D725100000000D3
:1034500030B4026C0B46002A0BD0C1681144C16025
:103460008468A14201D30168C16030BC1846FDF7F1
:103470006DB830BC70472DE9F041856B17460446A6
:103480000026026C82B1C7B1E068FDF75FF8E16821
:10349000206C091AE1602268914202D2A168081AE0
:1034A000E060022F16D017E02068A8B9A06801F0EC
:1034B00021FB06460020A0600EE06068FDF746F89C
:1034C000216C606808446060A168884204D3206869
:1034D000606001E005B16D1E6D1CA5633046BDE85E
:1034E000F08110B5044690F8590058B101280CD06D
:1034F00002280FD0502080F31188BFF34F8FBFF305
:103500006F8FFEE7206B00F0CDFB2046BDE810403A
:1035100000F0C8BB10BD00000F4840F6B8314207AC
:1035200005D0C01D0C4A20F00700821A891A0B4AE8
:1035300000230144C2E900030839183A21F00701C9
:1035400011604B600B600B1AC0E9001393604FF0E1
:10355000004053605061704744100020A8000020D4
:10356000144E154CA6F29C474FF08058DFF84C9053
:1035700012E000BF00F062FBF068C568281D00F093
:1035800001FBA068401EA0606068401E606000F003
:1035900075FB2846FFF7A5FF60680028EAD1386868
:1035A0000128F9D9C9F80080BFF34F8FBFF36F8F9F
:1035B000F2E700004C0800203C00002004ED00E091
:1035C00070B51D46049C51B1C4F80020C4E90F0138
:1035D0000121204600F086FE84F84C5070BD246026
:1035E000F4E700002DE9F05F8846DDE90B9415460D
:1035F000834691009A460A9EA522206BFCF7EBFFBA
:103600006FF00301206B01EB8501084420F00707F0
:10361000780707D0502080F31188BFF34F8FBFF396
:103620006F8FFEE70025B8F1000F0FD05FF00000AC
:10363000221818F8001082F8341018F8001011B190
:10364000401C1028F4D384F8435001E084F834502F
:10365000382E00D33726E662C4E91365201D00F03A
:10366000C6FA04F1180000F0C2FA2461C6F138006D
:103670006462A061656584F85850524659463846E0
:1036800000F06AFA2060B9F1000F01D0C9F80040DB
:1036900000F000B830BCBDE8C09F000030B5114953
:1036A00000E011460A688242FBD34B685C188442F2
:1036B00003D1406818444860084643681C18944287
:1036C00009D1084C183C2468A24209D052681A4417
:1036D00042600A6812680260814200D0086030BD12
:1036E0000460F9E7A800002070B5002441600B4D8C
:1036F0000061914206D8D11A8269914206D2011D19
:10370000286907E09A4203D2994201D3012403E0D9
:10371000011DE86800F06EFA204670BD78000020B8
:1037200010B5044600F08AFAA06B28B15FF00004DF
:1037300000F0A4FA204610BD0124F9E730B589B0A5
:103740003C4D6EE00498002806DADDE90601059A92
:1037500090470498002864DB069C606910B1201D26
:1037600000F010FA03A800F0D7F8024604980A28DF
:1037700057D2DFE800F00505052D334A05052D3346
:1037800094F8280040F0010084F828000599A06909
:10379000059B01442046FFF7A7FF68B3216A204636
:1037A000884794F8280040073BD5002000900598F2
:1037B000A169002342181946204601F0E1FAD8B960
:1037C000502080F31188BFF34F8FBFF36F8FFEE758
:1037D00014F8280F20F00100207022E094F828004F
:1037E00040F0010084F828000598A06128B18118F4
:1037F00013462046FFF778FF13E0502080F311882E
:10380000BFF34F8FBFF36F8FFEE794F82800810757
:1038100003D4204600F046FA03E020F0010084F8CB
:103820002800002204A9286800F0FEFE002889D1A3
:1038300009B030BD780000202DE9FC410F46054657
:1038400000F0F4FB01A800F067F80446019818B1F5
:1038500001F004FABDE8FC81254EAFB13069006883
:10386000D0B30027291B3A46306800F0C9FA01F0AE
:10387000F5F90028EED11F494FF080500860BFF3E2
:103880004F8FBFF36F8FE5E7A542EBD801F0E6F964
:10389000F0682746C068C468201D00F073F994F8EA
:1038A0002800410719D5A0692B4641193A46204600
:1038B000FFF71AFFA8B100200346014600902A46F0
:1038C000204601F05DFA60B9502080F31188BFF303
:1038D0004F8FBFF36F8FFEE707E020F0010084F801
:1038E0002800216A20468847B4E70127BAE700008C
:1038F0007800002004ED00E00648416B096829B11A
:10390000416BC968C9684968816270474FF0FF31EF
:10391000FAE700003C00002070B5054601F080F891
:10392000064E0446B068844203D200F009F8012034
:1039300000E0002028602046B46070BD78000020C0
:10394000F8B5194D20E0C068C4680668201D00F075
:1039500019F9216A2046884794F82800400713D5B2
:10396000A0693044B04206D924616060211DE86836
:1039700000F040F908E0002003460146009032467E
:10398000204601F0FDF938B1E86801680029DAD174
:103990002969C5E90310F8BD502080F31188BFF3F1
:1039A0004F8FBFF36F8FFEE7780000200848406814
:1039B000401C4FF0500080F3118804D0BFF34F8FAC
:1039C000BFF36F8FFEE7BFF34F8FBFF36F8FFEE73D
:1039D000B0000020074CE068016841B1C0680021D8
:1039E000D0F80000FFF728FFFFF7A8FEF3E701215A
:1039F0000020F7E7780000202DE9F041044600F0B0
:103A00001DF994F9455004F1240609E0606A48B1B3
:103A1000304601F0EBF808B100F042FA6D1E6DB2CD
:103A2000002DF3DC4FF0FF3684F8456000F026F9F6
:103A300000F004F994F9445004F1100709E02069FA
:103A400048B1384601F0D2F808B100F029FA6D1EED
:103A50006DB2002DF3DC84F84460BDE8F04100F065
:103A60000DB900002DE9F0410546002700F0DEFA0F
:103A7000324E306808B9FFF74FFD706905424ED1EC
:103A8000C5B3083568070ED005F00700C0F108007F
:103A90000544680707D0502080F31188BFF34F8F8B
:103AA000BFF36F8FFEE72DB37068854237D8234888
:103AB000183001460C6801E020460C466168A942B6
:103AC00002D221680029F7D131688C4227D00768DB
:103AD0002168016060680837411B10290FD96019FF
:103AE000420708D0502080F31188BFF34F8FBFF3F7
:103AF0006F8FFEE713E041606560FFF7CFFD6168FF
:103B00007068401A7060B268904200D2B06070690C
:103B100001430020C4E90001F068401CF06001F09E
:103B20009DF8780707D0502080F31188BFF34F8F9E
:103B3000BFF36F8FFEE73846BDE8F08190000020AC
:103B40000449086818B10868026D521C02650868CB
:103B5000704700003C00002010B5031F4FF0807438
:103B60001C601B1F21F001011960191F044B0B6021
:103B700014390A60091F6FF0020244380A6010BD50
:103B8000AD390008D0E9013201699A60D0E901231A
:103B90005A604A68824201D182684A60002202610A
:103BA0000868401E0860086870470000034B036007
:103BB00003F15C0008608020106070478C090020D1
:103BC000044B036003F15C0008604FF480701060E8
:103BD00070470000E80B002000F108014FF0FF32B1
:103BE000C0E90112C160016100210160704700213C
:103BF0000161704730B50B685A1C02D000F1080211
:103C000002E0026904E02246546825689D42FAD920
:103C100053684B6099608A60516008610168491C73
:103C2000016030BD42684A6093688B609368596058
:103C3000916008610168491C01607047502080F361
:103C40001188BFF34F8FBFF36F8F0A494868401C3C
:103C5000486001280CD10848006810F0FF0F07D019
:103C6000502080F31188BFF34F8FBFF36F8FFEE7B3
:103C700070470000B000002004ED00E008494868EB
:103C800028B1401E486001D180F311887047502050
:103C900080F31188BFF34F8FBFF36F8FFEE70000F3
:103CA000B000002070B500282AD0164DA0F10804FD
:103CB00060686969084207D1502080F31188BFF31A
:103CC0004F8FBFF36F8FFEE722683AB1502080F329
:103CD0001188BFF34F8FBFF36F8FFEE7884360609B
:103CE00000F0A4F960686968084468602046FFF73E
:103CF000D5FC2869401C2861BDE8704000F0AEBFCB
:103D000070BD0000900000204FF0E0200021016114
:103D1000816105494FF47A720968B1FBF2F1491EDD
:103D200041610721016170473800002010B5FCF7A0
:103D3000DDFA114910280ED300F1E02090F8F003CD
:103D40000A78904207D2502080F31188BFF34F8F3A
:103D5000BFF36F8FFEE709480068896800F4E060F0
:103D6000884207D9502080F31188BFF34F8FBFF3EB
:103D70006F8FFEE710BD0000B00000200CED00E0EA
:103D800010B5084B002200BF53F832401CB1521C42
:103D9000082AF9D310BD43F8321003EBC201486082
:103DA00010BD00007003002010B504000AD000F020
:103DB00013F894F8460000280CD12046BDE81040C6
:103DC000FFF770BF502080F31188BFF34F8FBFF310
:103DD0006F8FFEE710BD0000084A002102EBC1030F
:103DE0005B68834206D1002042F8310002EBC1013A
:103DF00048607047491C0829F0D3704770030020C1
:103E000070B515460E460446FFF718FF94F94410A6
:103E10000020491C01D184F8440094F94510491C44
:103E200001D184F84500FFF729FFA06B28B92A4685
:103E3000314604F1240000F051F82046BDE87040FE
:103E4000FFF7DABD10B5020014D00F48006B38B18F
:103E5000502080F31188BFF34F8FBFF36F8FFEE7C1
:103E600000F0E4F800211046FFF730FA00F0F6FE0B
:103E7000002807D105494FF080500860BFF34F8FED
:103E8000BFF36F8F10BD00003C00002004ED00E088
:103E900002490A6A0260C968416070473C0000201C
:103EA00001490120C86170473C00002010B50C4654
:103EB00050B1094909681831FFF79CFE2046BDE85A
:103EC00010400121FFF702BA502080F31188BFF3A0
:103ED0004F8FBFF36F8FFEE73C00002070B5144694
:103EE0000D4668B10A4909681831FFF79BFE0CB10D
:103EF0004FF0FF3521462846BDE87040FFF7E6B990
:103F0000502080F31188BFF34F8FBFF36F8FFEE710
:103F10003C00002070B504003ED0226DA2B1E06CE0
:103F2000884200D30146E06A884235D0012A33D165
:103F30001A4D2A6894420FD1502080F31188BFF3A4
:103F40004F8FBFF36F8FFEE7502080F31188BFF3D0
:103F50004F8FBFF36F8FFEE7E162A269002A02DB99
:103F6000C1F13801A1610E4E00EB8000616906EBE2
:103F70008000814210D1201DFFF704FEE06A29690C
:103F8000884200D9286100EB800006EB8000211DEB
:103F9000BDE87040FFF746BE70BD00003C00002049
:103FA000B003002030B587B00024039405AA04A90B
:103FB00003A80494FFF7FAFDDDE903010094CDE9BD
:103FC0000110002315A11748059A00F0EFFC164DCB
:103FD0000028E8621FD000F0A3FE012809D0401C91
:103FE00019D1502080F31188BFF34F8FBFF36F8F2B
:103FF000FEE7502080F31188BFF34F8FBFF36F8F20
:104000004FF0FF30A86201206861EC6007B0BDE8A6
:10401000304000F045B807B030BD000049444C4581
:1040200000000000613500083C0000200248016BE0
:10403000491C0163704700003C000020164810B581
:10404000016B11B10121C16110BD0021C161016984
:10405000124A01E0B9B1491E01EB810352F8233045
:10406000002BF7D001EB810302EB830202F108047D
:1040700053685B685360A34201D15B685360DA68A0
:104080000260016110BD502080F31188BFF34F8F93
:10409000BFF36F8FFEE700003C000020B00300205C
:1040A0001CB537480168374A914207D1502080F348
:1040B0001188BFF34F8FBFF36F8FFEE70068314960
:1040C000491E884207D1502080F31188BFF34F8FDB
:1040D000BFF36F8FFEE72C4908780190FF2008702E
:1040E00008788DF800009DF800009DF8002000F091
:1040F000F000904207D0502080F31188BFF34F8F1B
:10410000BFF36F8FFEE79DF80000204C00F05000D9
:1041100020700720A06005E09DF8002052008DF877
:104120000020401E9DF800201206F5D4A060032850
:1041300007D0502080F31188BFF34F8FBFF36F8FEC
:10414000FEE74FF44070A060019808700C482030E2
:10415000016841F470010160016841F07041016043
:10416000FFF7D2FD00206060FCF788F8084801687E
:1041700041F040410160FCF76DF800201CBD0000DB
:1041800000ED00E071C20F4100E400E0B00000204B
:1041900034EF00E010B5502080F31188BFF34F8F4B
:1041A000BFF36F8F00F042FC18B104494FF080500C
:1041B0000860002080F3118810BD000004ED00E0CD
:1041C00010B50C4648B184420FD9502080F31188B5
:1041D000BFF34F8FBFF36F8FFEE7502080F311883E
:1041E000BFF34F8FBFF36F8FFEE70222002100F075
:1041F00024F8002800D0846310BD38B50C4648B1BF
:1042000084420FD9502080F31188BFF34F8FBFF342
:104210006F8FFEE7502080F31188BFF34F8FBFF3FD
:104220006F8FFEE70221134600220091114600F035
:1042300025F8002800D0846338BDF8B517460E462F
:10424000050013D005FB06F05030FFF70BFC04000F
:104250000AD0002084F8460004F150023B46314663
:1042600028460094FFF7ACF92046F8BD502080F3B3
:104270001188BFF34F8FBFF36F8FFEE738B5049DF2
:1042800018B153B1CAB181B120E0502080F3118838
:10429000BFF34F8FBFF36F8FFEE7502080F311887D
:1042A000BFF34F8FBFF36F8FFEE7502080F311886D
:1042B000BFF34F8FBFF36F8FFEE739B1502080F30C
:1042C0001188BFF34F8FBFF36F8FFEE750241C465A
:1042D000012384F846302B460094FFF771F92046FD
:1042E00038BD000070B50D46040025D0FFF7A6FCD0
:1042F000D4E90F20216802FB0011A1600021A16315
:10430000216861600A46D4E90F01401E00FB0121CB
:10431000E16021464FF0FF3001F8440F487004F18E
:1043200010008DB1FFF758FC04F12400FFF754FC96
:10433000FFF7A4FC012070BD502080F31188BFF36B
:104340004F8FBFF36F8FFEE721690029F0D000F097
:104350004DFC0028ECD004494FF080500860BFF3BA
:104360004F8FBFF36F8FE3E704ED00E02DE9FF47C8
:1043700082B01D468A464FF00008040003D0BAF10F
:10438000000F08D011E0502080F31188BFF34F8F49
:10439000BFF36F8FFEE7206C38B1502080F3118897
:1043A000BFF34F8FBFF36F8FFEE7022D0AD1E06B93
:1043B000012807D0502080F31188BFF34F8FBFF33F
:1043C0006F8FFEE700F01EFB3F4F4FF000094FF0EC
:1043D000805648B9049838B1502080F31188BFF353
:1043E0004F8FBFF36F8FFEE7FFF728FCA06BE16BE9
:1043F000884207D3022D05D00498D0B1B8F1000F40
:104400001AD01EE02A4651462046FFF734F8616A6A
:1044100019B104F1240000F0E9FB20B13E60BFF3C4
:104420004F8FBFF36F8FFFF729FC012006B0BDE867
:10443000F087FFF723FC22E06846FFF729FD4FF0E5
:104440000108FFF71BFCFFF7F1FDFFF7F7FB94F9FD
:104450004400401C01D184F8449094F94500401C6C
:1044600001D184F84590FFF709FC04A9684600F0E3
:1044700033FA30B12046FFF7BFFA00F0EFFB00201F
:10448000D4E7FFF7DBFBA06BE16B884213D1FFF7AA
:10449000F5FB04F110000499FFF708FD2046FFF733
:1044A000ABFA00F0DBFB00289ED13E60BFF34F8FDC
:1044B000BFF36F8F98E7FFF7E1FB2046FFF79CFA09
:1044C00000F0CCFB90E7000004ED00E02DE9F047A0
:1044D0001F4690468946040003D0B9F1000F08D06A
:1044E00011E0502080F31188BFF34F8FBFF36F8F1F
:1044F000FEE7206C38B1502080F31188BFF34F8F56
:10450000BFF36F8FFEE7022F0AD1E06B012807D0BF
:10451000502080F31188BFF34F8FBFF36F8FFEE7FA
:10452000FFF704FC5020EFF3118680F31188BFF3EE
:104530004F8FBFF36F8FA06BE16B884206D3022FC2
:1045400004D0002086F31188BDE8F08794F9455027
:10455000A06B3A4649462046FEF78DFF681C04D002
:104560006D1C84F845500120ECE7606A0028FAD001
:1045700004F1240000F03AFB0028F4D0B8F1000F59
:10458000F1D00121C8F80010EDE770B50E46040027
:1045900009D0206C78B1502080F31188BFF34F8F81
:1045A000BFF36F8FFEE7502080F31188BFF34F8F6A
:1045B000BFF36F8FFEE7206848B9A06838B150207C
:1045C00080F31188BFF34F8FBFF36F8FFEE7FFF7C4
:1045D000ADFB5020EFF3118580F31188BFF34F8FAF
:1045E000BFF36F8FA16BE06B884218D994F9450037
:1045F000491CA163411C04D0401C84F845000120E3
:104600000EE0606A0028FAD004F1240000F0EEFA0F
:104610000028F4D0002EF2D001203060EFE7002017
:1046200085F3118870BD00002DE9F747002683B09F
:104630008A46040003D0BAF1000F08D011E05020E0
:1046400080F31188BFF34F8FBFF36F8FFEE7206CAD
:1046500038B1502080F31188BFF34F8FBFF36F8FB5
:10466000FEE700F0CFF9DFF8F4804FF000094FF0DB
:10467000805748B9059838B1502080F31188BFF3AE
:104680004F8FBFF36F8FFEE7FFF7D8FAA56BC5B169
:1046900051462046FEF7DCFE6D1EA563206950B131
:1046A00004F1100000F0A2FA28B1C8F80070BFF3BE
:1046B0004F8FBFF36F8FFFF7E1FA012006B0BDE81F
:1046C000F087059808B11EB106E0FFF7D7FA27E09A
:1046D0006846FFF7DDFB0126FFF7D0FAFFF7A6FCDF
:1046E000FFF7ACFA94F94400401C01D184F84490DF
:1046F00094F94500401C01D184F84590FFF7BEFABB
:1047000005A9684600F0E8F8002820460AD0FFF71F
:1047100073F900F0A3FA2046FFF702F80028B3D09F
:104720000020CBE7FEF7FCFF90B104F124000599CF
:10473000FFF7BCFB2046FFF75FF900F08FFA002877
:10474000A2D1C8F80070BFF34F8FBFF36F8F9BE704
:104750002046FFF751F900F081FA95E704ED00E0FB
:104760002DE9F343002683B00400354609D0206CC0
:1047700078B1502080F31188BFF34F8FBFF36F8F54
:10478000FEE7502080F31188BFF34F8FBFF36F8F88
:10479000FEE700F037F9DFF83C814FF000094FF0F9
:1047A000805748B9049838B1502080F31188BFF37E
:1047B0004F8FBFF36F8FFEE7FFF740FAA06BC8B1D2
:1047C000401EA063206810B9FFF7BAF9A060206905
:1047D00050B104F1100000F009FA28B1C8F80070D7
:1047E000BFF34F8FBFF36F8FFFF748FA012005B07B
:1047F000BDE8F083049808B166B10FE03DB15020E8
:1048000080F31188BFF34F8FBFF36F8FFEE7FFF781
:1048100035FA5DE06846FFF73BFB0126FFF72EFA0D
:10482000FFF704FCFFF70AFA94F94400401C01D199
:1048300084F8449094F94500401C01D184F84590D7
:10484000FFF71CFA04A9684600F046F80028204645
:1048500012D0FFF7D1F800F001FA2046FEF760FF12
:104860000028A9D09DB3FFF7E9F9606A50B3206B27
:104870000068C0F1380126E0FEF752FFE0B1206881
:1048800038B9FFF7DBF9A06800F074F90546FFF7C7
:10489000F5F904F124000499FFF708FB2046FFF71F
:1048A000ABF800F0DBF9002886D1C8F80070BFF340
:1048B0004F8FBFF36F8F7FE72046FFF79DF800F023
:1048C000CDF979E70021A068FFF724FB9FE7FFE718
:1048D00000208CE704ED00E02DE9F0410C460500D6
:1048E00011D0C4B1FFF7AAF9174BDA686E682068D7
:1048F000911B471C17D02F681B6A9F4219D0964204
:1049000017D8012410E0502080F31188BFF34F8F97
:10491000BFF36F8FFEE7502080F31188BFF34F8FF6
:10492000BFF36F8FFEE70024FFF7A8F92046BDE82C
:10493000F081884205D9401A20602846FFF7A8FA7E
:10494000F1E700202060DCE73C0000202DE9FF5F5C
:104950008346DDE90E87994616468A469000FFF7A2
:1049600081F805001CD05C20FFF77CF8040014D00F
:104970000020256384F85900CDE90240CDE9008785
:104980004B46324651465846FEF72CFE2046FEF76F
:10499000CBFC012004B000F006B82846FFF782F9EE
:1049A0004FF0FF30F6E730BCBDE8C09FF0B585B0F2
:1049B000DDE90B640A9DA6B1DCB15C270097266394
:1049C000022684F85960002604AFCDE90246CDE9FD
:1049D0000057FEF707FE2046FEF7A6FC049805B038
:1049E000F0BD502080F31188BFF34F8FBFF36F8F5E
:1049F000FEE7502080F31188BFF34F8FBFF36F8F16
:104A0000FEE700000548416919B1006B18B10020AC
:104A10007047012070470220704700003C000020D2
:104A20000148C068704700003C0000202DE9F041BB
:104A30002E4C0027206B28B1A069401CA06138468D
:104A4000BDE8F081E668761CE66013D1606B006813
:104A500038B1502080F31188BFF34F8FBFF36F8FB1
:104A6000FEE7606BA16B6163A063206A401C20625B
:104A7000FEF742FFA06ADFF87880864209D3606BB8
:104A80000068A0B1606BC068C5686868864211D2D2
:104A9000A0622068C06A00EB800158F8210001285C
:104AA00000D90127E0690028C9D00127C7E74FF0E6
:104AB000FF30EDE7281DFFF765F8A86A18B105F18A
:104AC0001800FFF75FF8E86A2169884200D9206181
:104AD00000EB800108EB8100291DFFF7A3F8E86ACD
:104AE0002168C96A8842CAD30127C8E73C00002070
:104AF000B003002070B504004FF0000133D01B4D0F
:104B00002868844207D0502080F31188BFF34F8F6C
:104B1000BFF36F8FFEE7206D38B1401E2065E36C58
:104B2000E26A9A421FD040B11DE0502080F3118804
:104B3000BFF34F8FBFF36F8FFEE7201DFFF722F803
:104B4000E06CE062C0F13800A061E06A2969884247
:104B500000D92861064900EB800001EB8000211D8F
:104B6000FFF760F80121084670BD00003C000020FE
:104B7000B003002070B504004FF000002BD0194D99
:104B8000E16A2A68D26A914226D2A069002804DB31
:104B90002868C06AC0F13800A061134E01EB8101A2
:104BA000606906EB8101884211D1201DFEF7EAFF02
:104BB0002868C06AE0622969884200D9286100EB50
:104BC000800006EB8000211DFFF72CF802E028682A
:104BD000C06AE062012070BDE16C2A68D26A91422D
:104BE000F8D370BD3C000020B003002070B5C06851
:104BF000C46854B104F118000646FEF7C3FF144D13
:104C0000286B50B13146134815E0502080F31188CD
:104C1000BFF34F8FBFF36F8FFEE7201DFEF7B2FF8C
:104C2000E06A2969884200D928610B4900EB8000BD
:104C300001EB8000211DFEF7F5FFE06A2968C96AD3
:104C4000884202D90120E86170BD002070BD0000DB
:104C50003C00002038080020B00300202DE9F04778
:104C60002C4D00242746286B38B1FEF7E7FF286B50
:104C7000401E2863286B40B146E0502080F3118825
:104C8000BFF34F8FBFF36F8FFEE7A968224E01205D
:104C9000D1B3A6F5916980463068E0B1F068C46888
:104CA00004F11800FEF76EFF201DFEF76BFFE06AAF
:104CB0002969884200D9286100EB800109EB810055
:104CC000211DFEF7AFFFE06A2968C96A8842E3D375
:104CD000C5F81C80E0E70CB1FEF70EFEAC694CB1E4
:104CE0004FEA0806FFF7A2FE00B1EE61641EF9D19B
:104CF0000020A861E86938B1084901273807086031
:104D0000BFF34F8FBFF36F8FFEF7B8FF3846BDE894
:104D1000F08700003C0000203808002004ED00E08F
:104D200010B586B0FEF768FB114C2068B8B10020C2
:104D30000390049005AA04A903A8FEF741FFDDE94A
:104D4000032102208DE8070000230AA10B48059AE1
:104D5000FFF72CFE606010B106B0012010BD50209E
:104D600080F31188BFF34F8FBFF36F8FFEE7000012
:104D700078000020546D722053766300D539000806
:104D80002DE9FF411E46134602000A9D4FF0000028
:104D900016D0144C2768002F0FD0CDE900130292D3
:104DA000062917DAFFF72EFE02284FF000030FD076
:104DB000002269462068FFF7D9FA04B0BDE8F08107
:104DC000502080F31188BFF34F8FBFF36F8FFEE742
:104DD0002A46EEE70023324669463846FFF776FB5F
:104DE000EBE70000780000204FEA41034FEA5353FD
:104DF000A3F58063D3F11E03C8BFD3F1210C0CDDF2
:104E00004FF0004242EAC12242EA505232FA03FC19
:104E10008CEAE17CACEBE1707047102BC4BF002042
:104E2000704703F5787CBCF1FF3F04D06FF000427F
:104E300082EA2100704770B500F0C2F849922480E0
:104E400000207047F2E7B0FA80F310FA03F10AD0BD
:104E5000C3F11D0303F580634FEA41504FEA03524B
:104E600002EBD12170474FF000007047DFF848C1D6
:104E700070B51CEA111E1EBF1CEA13159EEA0C0F2A
:104E800095EA0C0F00F06F8081EA030423EA4C13CB
:104E90004EEAD47E21EA4C1141F4801143F4801390
:104EA000AE44A1FB024CA0FB0365AEF17F7E361938
:104EB00055EB0C05A1FB034C4CF10003A0FB021CBD
:104EC00016EB0C06654153F10003094218BF46F08A
:104ED000010613F4007F0BD14FEA03314FEA05308E
:104EE000340341EA155140EA16506FF003020AE01C
:104EF0004FEAC3214FEAC520F40241EA555140EA86
:104F000056506FF0020202EB2E4201EB025585EA89
:104F1000CE710AD05FEA440C18BF24F0004450F16F
:104F2000000041F1000120EAD47040F2FE7C6245AD
:104F300000D270BDA84214BF4FF080444FF04044EF
:104F4000002E08BF0024BEF1806FA8BFA1F1C041B0
:104F5000BDE8704080F282804FF0000001F1C04156
:104F600001F0004170479EEA0C0F0CEA131518BFC0
:104F700095EA0C0F06D04FF0000081EA030E0EF008
:104F8000004170BD00F01CF88900013E00F007B838
:104F900000F009B84FEA430C5FEA5C5C08D081EA94
:104FA000030100F05BB84FEA410C5FEA5C5CF6D1AC
:104FB0004FF00000014970470000FF070000F87F34
:104FC0000EF1020E2EF0030E5EF8046B364205D48D
:104FD000012A43EB030515F5001F12D8012841EB08
:104FE000010C1CF5001F0CD80ED14FEAD17C15F531
:104FF000001F0CEB4C0C0CF1020C08BF4CEBD37CEB
:1050000004E04FF0080C01E04FEAD37C0CEB4C05B8
:1050100026FA05F606F00706B6F1040C06D20EEBEA
:10502000860CBDE870404CF0010C6047DFE80CF0E6
:10503000090B02024FF000414FF00000A1F50021E2
:1050400070BD19461046012851EB010418BFD4F574
:10505000001484BF002001F0004170BD0808A0F5D5
:1050600000114FEA310170474FF04070E1EE100A35
:105070007047000088510008000000000000000098
:105080000000000000000000000200000800000016
:105090000000000000000000745100080000000043
:1050A00000000000000000000000000000020000FE
:1050B000080000000000000000000000805100080F
:1050C00000000000000000000000000000000000E0
:1050D00000000000845100080000000000000000F3
:1050E0000000000000000000000000005451000813
:1050F00000000000000000000000000064510008F3
:10510000000000000000000000000000000000009F
:10511000000000000102030406070809A086010040
:10512000400D0300801A060000350C0040420F00BD
:1051300080841E0000093D0000127A000024F40063
:1051400000366E010048E801006CDC02000000003F
:10515000010203046D7942696E61727953656D30A5
:10516000310000006D7942696E61727953656D306E
:10517000320000006D795461736B30340000000020
:10518000525100005351000064656661756C74549F
:1051900061736B00B451000800000020BC000000E7
:1051A000C801000870520008BC000020A4210000C3
:1051B000E401000800000000000000000000000002
:1051C00000000000000000000000000000000000DF
:1051D00000000000000000000000000000000000CF
:1051E00001000000100000000000000000093D0068
:1051F00000000000000000000000000000000000AF
:10520000000000000000000000000000000000009E
:10521000000000000000000000000000000000008E
:10522000000000000000000000000000000000007E
:10523000000000000000000000000000000000006E
:10524000000000000000000000000000000000005E
:10525000000000000000000000000000000000004E
:105260000000000000000000AAAAAAAA0000000096
:040000050800018D61
:00000001FF
