:020000040800F2
:10000000702000200D030008CB1D0008211D0008F2
:10001000C91D000843060008212600080000000052
:100020000000000000000000000000002D02000899
:10003000450600080000000089020008A920000809
:1000400027030008270300082703000827030008E8
:1000500027030008270300082703000827030008D8
:1000600027030008270300082703000827030008C8
:1000700027030008270300082703000827030008B8
:1000800027030008270300082703000827030008A8
:100090002703000827030008270300082703000898
:1000A0002703000861210008270300082703000830
:1000B00027030008000000000000000027030008DC
:1000C00027030008000000000000000027030008CC
:1000D00000000000270300080126000800000000BF
:1000E00027030008270300080000000000000000AC
:1000F0000000000000000000000000000000000000
:1001000000000000000000000000000027030008BD
:10011000000000000000000027030008270300087B
:100120002703000827030008270300082703000807
:10013000270300080000000000000000000000008D
:1001400027030008270300082703000827030008E7
:1001500027030008270300082703000827030008D7
:1001600027030008270300082703000800000000F9
:10017000270300082703000800000000000000001B
:1001800027030008270300082703000800F002F8EF
:1001900000F03CF80AA090E8000C82448344AAF1E5
:1001A0000107DA4501D100F031F8AFF2090EBAE8E3
:1001B0000F0013F0010F18BFFB1A43F0010318479B
:1001C000A4430000C4430000103A24BF78C878C19B
:1001D000FAD8520724BF30C830C144BF04680C604D
:1001E000704700000023002400250026103A28BF95
:1001F00078C1FBD8520728BF30C148BF0B60704799
:100200001FB504F0F9F81FBD10B510BD00F0E0F9FE
:100210001146FFF7F5FF02F015FA00F0FEF903B4FE
:10022000FFF7F2FF03BC00F005FA00002C4B196841
:10023000086800F05AB880F30988BFF36F8F4FF059
:10024000000080F311887047000000000848006833
:10025000006880F308884FF0000080F3148862B6CD
:1002600061B6BFF34F8FBFF36F8F00DF00BF00BFDA
:1002700008ED00E0DFF80C00016841F47001016056
:10028000704700BF88ED00E0EFF30980BFF36F8F88
:10029000134B1A681EF0100F08BF20ED108A20E9DA
:1002A000F04F106009B44FF0500080F31188BFF395
:1002B0004F8FBFF36F8F03F0C9F94FF0000080F349
:1002C000118809BC1968086800F014B81EF0100FF6
:1002D00008BF00F014B880F30988BFF36F8F704730
:1002E00034000020EFF30580704730C8B0E8C04FFD
:1002F000FFF7A1BF30C8B0E8C04FFFF7E7BFB0ECD1
:10030000088AB0EC08CAFFF7E6BF0000094880473A
:1003100009480047FEE7FEE7FEE7FEE7FEE7FEE7E7
:10032000FEE7FEE7FEE7FEE704480549054A064BFF
:1003300070470000512100088D010008701A00204C
:1003400070200020701C0020701C002053EA020C5A
:1003500000F069802DE9F04B4FF00006002B1FBF25
:10036000B3FA83F503FA05F424FA05F65E4012BFEA
:100370001643B2FA82F502FA05F4C5F120051EBF54
:1003800022FA05FC44EA0C04203556EA044C4FEAF4
:10039000144418BF641C4FF000084FF0000990424D
:1003A00071EB030C39D3002919BFB1FA81F701FAB7
:1003B00007F6B0FA80F700FA07F6C7F120071EBF6C
:1003C00020FA07FC46EA0C062037B6FBF4FCA7EB44
:1003D0000507103F07F01F0BCBF120060CFA0BFBB3
:1003E0002CFA06F644BFB3460026202FA4BF5E4673
:1003F0004FF0000B5BEA060C08BF4FF0010B19EB46
:100400000B09ABFB027C48EB0608C01B06FB02CCC9
:100410000BFB03CC71EB0C01C1E70B4602464146D6
:100420004846BDE8F08B13B54FF000004FF00001D7
:10043000AFF30080BDE81C407047032A40F23080D3
:1004400010F0030C00F0158011F8013BBCF1020F15
:10045000624498BF11F801CB00F8013B38BF11F896
:10046000013BA2F1040298BF00F801CB38BF00F8AD
:10047000013B11F0030300F05780083AC0F00880F8
:1004800051F8043B083A51F804CBA0E80810F5E70E
:10049000121D5CBF51F8043B40F8043BAFF30080F1
:1004A000D20724BF11F8013B11F801CB48BF11F866
:1004B000012B24BF00F8013B00F801CB48BF00F836
:1004C000012B704702F0FF0343EA032242EA024293
:1004D00000F05EB84FF0000200B513469446964611
:1004E000203922BFA0E80C50A0E80C50B1F1200147
:1004F000BFF4F7AF090728BFA0E80C5048BF0CC0F5
:100500005DF804EB890028BF40F8042B08BF704752
:1005100048BF20F8022B11F0804F18BF00F8012BC4
:10052000704770477047704710B5203AC0F00B8095
:10053000B1E81850203AA0E81850B1E81850A0E8E7
:100540001850BFF4F5AF5FEA027C24BFB1E8185041
:10055000A0E8185044BF18C918C0BDE810405FEAB1
:10056000827C24BF51F8043B40F8043B08BF70472D
:10057000D20728BF31F8023B48BF11F8012B28BF32
:1005800020F8023B48BF00F8012B70474FF00002F3
:100590000429C0F0128010F0030C3FF49DAFCCF1A1
:1005A000040CBCF1020F18BF00F8012BA8BF20F803
:1005B000022BA1EB0C01FFF78FBF5FEAC17C24BFC8
:1005C00000F8012B00F8012B48BF00F8012B704701
:1005D000754600F02BF8AE4605006946534620F0FC
:1005E0000700854618B020B5FFF79EFEBDE8204005
:1005F0004FF000064FF000074FF000084FF0000BDF
:1006000021F00701AC46ACE8C009ACE8C009ACE891
:10061000C009ACE8C0098D46704710B50446AFF379
:1006200000802046BDE81040FFF7F9BD0048704744
:10063000101A002001491820ABBEFEE72600020078
:100640007047FEE7704772B6FEE710B590F82510C8
:100650000022022905D00421C16380F82420012052
:1006600010BD01680B6823F00E030B6001680B6876
:1006700023F001030B6090F84410046C01F01C039C
:10068000012101FA03F3636080F8251080F824202B
:10069000104610BD10B590F825100024022903D093
:1006A0000421C16301241AE001680A6822F00E02E5
:1006B0000A6001680A6822F001020A6090F844109A
:1006C000036C01F01C02012101FA02F25A6080F869
:1006D0002510002180F82410816B01B18847204645
:1006E00010BD00002DE9F04FDFF8E0910023012755
:1006F0000326A9F1040B85B00F2509F1040AABF11B
:10070000040EDBE007FA03FC12EA0C027ED00C793F
:1007100004F00304012C01D0022C20D18468009441
:100720005C0006FA04F80494009C24EA080400948F
:10073000D1F80C80049C08FA04F8009C48EA0408EC
:10074000C0F80880446824EA0C0491F804C0CCF393
:10075000001C0CFA03FC4CEA040CC0F804C00C7931
:10076000E443A4070DD0D0F80CC04FEA430806FAC2
:1007700008F42CEA040C8C6804FA08F444EA0C042B
:10078000C4600C7904F00304022C19D1DC0800EBDE
:1007900084040294246A4FEA437C4FEADC6CCDF86F
:1007A00010C005FA0CFC24EA0C04D1F81080DDF826
:1007B00010C008FA0CF848EA0408029CC4F820802B
:1007C00004684FEA430806FA08FC24EA0C0491F88E
:1007D00004C00CF0030C0CFA08FC4CEA040CC0F842
:1007E00000C04C6814F4403F67D0394CD4F860C066
:1007F0004CF0010CC4F860C0246E23F0030C04F02C
:1008000001040094334C6444029400E055E0A46871
:100810004FEA837C4FEA1C7805FA08FC24EA0C04B2
:10082000B0F1904F06D0DFF8B0C0604505D14FF071
:10083000010C0BE04FF0000C08E0DFF8A0C06045B1
:1008400002D14FF0020C01E04FF0070C0CFA08FC4B
:100850004CEA040C029CC4F808C0D9F80040CC460D
:10086000D1F8048094435FEAC82800D51443CCF83B
:100870000040DAF80040D446D1F8048094435FEA9F
:10088000882800D51443CCF80040DBF80040DC4653
:10089000D1F8048094435FEA883800D51443CCF83B
:1008A0000040DEF80040F446D1F8048094435FEA4B
:1008B000C83800D51443CCF800405B1C0C682246B5
:1008C000DC407FF41FAF05B000F00AB80804014017
:1008D00000100240000001400004004800080048E9
:1008E00030BCBDE8C08F0AB181617047816270473A
:1008F0000148806870470000240000200248816899
:1009000002781144816070472400002010B5002453
:10091000032000F099F80F2000F008F808B1012436
:1009200001E000F049F8204610BD000030B5054652
:100930001C4887B0016E41F400610166006E06A993
:1009400000F40060009001A800F0C4FA00F0F4FA8E
:100950001549164AB0FBF1F11548491E0260416085
:1009600040F2E7320021C0E903218160816100F09B
:10097000FAFD040012D10E4800F028FE04000DD14B
:10098000192000F033F8102D07D200222946192033
:1009900000F03AF80748056000E0012407B020465F
:1009A00030BD00000010024040420F00002C01400A
:1009B00038010020280000200B4882B0016E41F071
:1009C00001010166016E01F001010091816D41F0AC
:1009D00080518165806D002200F0805000900F21D1
:1009E000901E02B000F010B800100240002809DB91
:1009F00000F01F02012191404009800000F1E02039
:100A0000C0F8001170470000F0B40E4B1B680C4694
:100A1000C3F30223C3F10705042D00D90425191DD2
:100A2000072901D2002300E0DB1E012606FA05F1AA
:100A3000491E214099409E40761E16403143F0BC2D
:100A400001F0EFBD0CED00E0064900F00702086878
:100A50004FF6FF03184040EA0220034A10430860A3
:100A6000704700000CED00E00000FA051649B0F5F3
:100A7000007F0868C0F3412009D0022805D008682B
:100A800020F4C06040F480600860002070470128B6
:100A9000FBD0086820F4C06040F4007008600B4888
:100AA0003222006850430A4AB0FBF2F0401C00E0DA
:100AB000401E4A69520501D50028F9D14869400510
:100AC000E3D5032070470000007000403000002094
:100AD00040420F000248006800F4C0607047000008
:100AE000007000400248016841F480710160704765
:100AF000007000400248016841F004010160704745
:100B0000001002402DE9F84F0446002700889C4D54
:100B10003E46000515D5E06B60B1B0F5000F04D07E
:100B2000B0F5400F2BD001270AE0E86840F4803090
:100B3000E86024E00021201D01F048F907001ED0E4
:100B40003E462068800338D5A86D4FF00008C000ED
:100B500009D4A86D40F08050A865A86D4FF0010839
:100B600000F080500090DFF81CA2DAF8001041F489
:100B70008071CAF80010FFF7BBFE814610E0D5F87F
:100B80008800E16B20F440000843C5F88800D8E7EE
:100B9000FFF7AEFEA0EB0900022801D9032704E00D
:100BA000DAF80000C005F3D5EFB33E46B8F1000F08
:100BB00003D0A86D20F08050A8652078C00707D02A
:100BC000D5F88800216A20F003000843C5F88800A2
:100BD0002078800707D5D5F88800616A20F00C00DE
:100BE0000843C5F888002078800607D5D5F8880026
:100BF000A16A20F440600843C5F888002088800579
:100C000007D5D5F88800616B20F440200843C5F86B
:100C100088002088400509D5D5F88800A16B20F40C
:100C20004010084300E02EE0C5F888002078400618
:100C300007D5D5F88800E16A20F440500843C5F88C
:100C400088002088C00507D5D5F88800216B20F4DE
:100C500040300843C5F8880020884FF000678004C2
:100C60004FF080684ED5D5F88800216C20F04060A8
:100C70000843C5F88800206CB8423BD1E86840F4CE
:100C80008010E8603EE0D5F8900010F4407014D079
:100C9000216D814211D0D5F89000D5F8901020F444
:100CA000407041F48031C5F89010D5F8901021F4CF
:100CB0008031C5F89010C5F89000C00711D0FFF73B
:100CC00017FE074641F2883907E000BFFFF710FE24
:100CD000C11B494501D9032668E7D5F89000800774
:100CE000F4D5D5F89000216D20F440700843C5F884
:100CF00090005BE7404505D10121201D01F066F819
:100D000000B106462068400317D5D5F88800616C0D
:100D100020F040600843C5F88800606CB84204D1F8
:100D2000E86840F48010E86007E0404505D1012103
:100D3000201D01F04BF800B106462088400411D573
:100D4000D5F88800A16C20F040500843C5F8880011
:100D5000A06CB0F1805F05D10221201D01F036F8B2
:100D600000B106462088000406D555F8880FE16CCE
:100D700020F0804008432860304600F005B80000AD
:100D8000001002400070004018BCBDE8E08F000079
:100D90002DE9F0470F4605006BD0494E306800F052
:100DA0000700B84209D2306820F0070038433060AD
:100DB000306800F00700B8425BD12878414C8007CA
:100DC0000AD5A868A16801F0F001884204D9A16899
:100DD00021F0F0010143A1602878C0072CD0686899
:100DE000032811D0022812D0216898B149050029A2
:100DF0003FDAA16821F003010143A160FFF778FD0C
:100E0000804641F2883910E021688901EFE72168C6
:100E10008903ECE78907EAE7FFF76AFDA0EB080121
:100E2000494502D90320BDE8F087A068696800F051
:100E30000C00B0EB810FEFD1287880070AD5A868A5
:100E4000A16801F0F001884204D2A16821F0F0010C
:100E50000143A160306800F00700B8420BD9306848
:100E600020F0070038433060306800F00700B842D7
:100E700001D00120D7E72878400705D5A068E968A8
:100E800020F4E0600843A0602878000706D5A06839
:100E9000296920F4605040EAC100A06000F05EF8CB
:100EA000A168094AC1F30311515C01F01F01C84058
:100EB0000649086006480068BDE8F047FFF736BD00
:100EC0000020024000100240D444000830000020FE
:100ED000280000200F2202600C4A936803F00303ED
:100EE0004360936803F0F0038360936803F4E06366
:100EF000C36092684FF4E06303EAD20202610448DF
:100F0000006800F007000860704700000010024011
:100F1000002002400548064900688968054AC1F377
:100F20000221515C01F01F01C840704730000020D1
:100F30000010024014450008054806490068896809
:100F4000054AC1F3C221515C01F01F01C84070473E
:100F500030000020001002401445000870B52549FB
:100F6000002318468A68CC6812F00C0204F00306CD
:100F7000214C4FEA640509D00C2A05D0042A32D04E
:100F8000082A00D1284670BD012E10D10B681B071E
:100F900004D4D1F89430C3F3032302E00B68C3F305
:100FA0000313164E56F82330DAB10C2AEBD1C86879
:100FB00000F00300022818D0032818D01846CA6889
:100FC000CB68C2F30212C3F306234343521CB3FBA4
:100FD000F2F2C868C0F34160401C4000B2FBF0F080
:100FE00070BD184670BD204670BD2046E7E7284614
:100FF000E5E70000001002400024F400E44400088B
:101000002DE9F84304006FD0FA4DA86800F00C06F3
:10101000E86800F003072078C00664D576B10C2E8E
:1010200001D1012F0AD0A069002828687AD040F0A9
:1010300001002860FFF75CFC80465DE028688007BF
:1010400002D5A0690028DED0216A2868000703D5F0
:10105000286800F0F00004E0D5F89400F02202EADD
:101060001010814216D9084600F046FF00283BD1F7
:10107000286840F0080028602868216A20F0F00005
:10108000084328606868E16920F47F4040EA012055
:10109000686016E0286840F0080028602868216A27
:1010A00020F0F000084328606868E16920F47F4080
:1010B00040EA0120686026B9206A00F01DFF002880
:1010C000D5D1FFF74BFFA968CB4AC1F30311515C9F
:1010D00001F01F01C840C9490860C9480068FFF70E
:1010E00025FC00287ED12EE0CAE000BFFFF700FCFF
:1010F000A0EB0800022876D828688007F6D5286873
:1011000040F0080028602868216A20F0F0000843B9
:1011100028606868E16920F47F4040EA0120686047
:1011200011E0FFE720F001002860FFF7E1FB8046B7
:1011300006E000BFFFF7DCFBA0EB08000228DAD8CE
:1011400028688007F6D42078C00740D0082E18D031
:101150000C2E01D1032F14D06068B0F5803F17D05A
:10116000B0F5A02F286817D020F4803028602868B8
:1011700020F4802028606068E0B1FFF7B9FB80466A
:1011800014E02868800322D56068002878D01EE02B
:10119000286840F48030EDE740F480202860F7E7CD
:1011A000FFF7A6FBA0EB08006428A4D828688003FA
:1011B000F6D50CE0FFF79CFB804605E0FFF798FBB7
:1011C000A0EB0800642896D828688003F6D420781D
:1011D00080073BD5042E11D00C2E01D1022F0DD04B
:1011E000E06801E0AAE1FFE0002828681ED040F492
:1011F00080702860FFF77CFB07460CE028684005FC
:101200000CD5E0680028C1D008E000BFFFF770FBF4
:10121000C01B022893D828684005F7D56868217C50
:1012200020F0F85040EA016068600FE020F4807020
:101230002860FFF75DFB074605E000BFFFF758FB9E
:10124000C01B0228B1D828684005F7D420780007D1
:1012500029D560690028D5F8940012D040F001002B
:10126000C5F89400FFF744FB074604E0FFF740FB96
:10127000C01B022899D8D5F894008007F6D512E053
:101280002BE120F00100C5F89400FFF731FB074681
:1012900005E000BFFFF72CFBC01B022885D8D5F85E
:1012A00094008007F6D42078400766D5A86D002703
:1012B000C00008D4A86D40F08050A865A86D012733
:1012C00000F0805000904F480168C90512D40168B1
:1012D000814641F480710160FFF70AFB804605E01A
:1012E000FFF706FBA0EB080002287DD8D9F8000024
:1012F000C005F5D5A068012816D00528D5F89000BE
:1013000017D020F00100C5F89000D5F8900020F02B
:10131000040000BFC5F89000A06841F28839C0B150
:10132000FFF7E6FA80460FE0D5F8900040F00100A4
:10133000F0E740F00400C5F89000F5E7FFF7D8FAB1
:10134000A0EB080149454FD8D5F890008007F5D5A6
:101350000EE0FFF7CDFA804606E000BFFFF7C8FABF
:10136000A0EB080149453FD8D5F890008007F5D497
:101370001FB1A86D20F08050A8652078800628D580
:10138000606A0028D5F8980012D040F00100C5F836
:101390009800FFF7ADFA074605E000BFFFF7A8FA8F
:1013A000C01B022820D8D5F898008007F6D510E099
:1013B00020F00100C5F89800FFF79AFA074604E00C
:1013C000FFF796FAC01B02280ED8D5F898008007C0
:1013D000F6D4A06AF0B3022816D00C2E7DD028686F
:1013E00020F08070286000E0A7E0FFF781FA044653
:1013F000A6E0000000100240D444000830000020A5
:101400002800002000700040E868E26A00F0030154
:10141000914228D1216B00F07002090110399142EC
:1014200021D1626B00F4FE41B1EB022F1BD194F885
:10143000382000F07841B1EBC26F14D1A18F00F4D5
:10144000C00249084905A1F5001191420BD194F859
:10145000401000E06AE04908490600F0C060A1F1D0
:10146000007181424BD00C2E73D02868400170D49B
:10147000286820F080702860FFF73AFA064604E0FA
:10148000FFF736FA801B022857D828688001F7D466
:10149000F4E90B016FF00F0202EB01110843218AFE
:1014A0005204490802EB4151A26841EA0221084373
:1014B000217D4FF07E42490802EB41610843217BC8
:1014C00040EAC160E968244A11400843E86028689E
:1014D00040F080702860E86800E03AE040F08070FA
:1014E000E860FFF705FA044605E000BFFFF700FAE1
:1014F000001B022821D828688001F7D527E028683A
:10150000800124D4286840F080702860E86840F0AA
:101510008070E860FFF7ECF9044604E0FFF7E8F9B3
:10152000001B022809D828688001F7D50FE000BF0A
:10153000FFF7DEF9001B022802D90320BDE8F8837B
:1015400028688001F4D4E86804490840E860002075
:10155000F4E70120F2E700008C809D01FCFFEEFE25
:1015600070477047704710B5040003D094F83D00F1
:1015700010B107E0012010BD002084F83C00204697
:1015800000F022F8022084F83D00211D206800F0C0
:10159000EDFD012084F8480084F83E0084F83F0007
:1015A00084F8400084F8410084F8420084F8430045
:1015B00084F8440084F8450084F8460084F8470025
:1015C00084F83D00002010BD7047000090F83D10E9
:1015D000012901D001207047022180F83D100168E7
:1015E000CA6842F00102CA6000680B49884205D00F
:1015F000B0F1804F02D00949884207D18168084A7A
:101600001140062906D0B1F5803F03D0016841F0B2
:101610000101016000207047002C014000400140A2
:1016200007000100704770B50446006801694FF07B
:101630000005C943890715D4C168C943890711D476
:10164000E91E01610120207720688069800720461B
:1016500002D0FFF7E7FF04E000F0A7F8204600F013
:10166000A5F8257720680169C943490717D4C168DF
:10167000C943490713D46FF00401016102202077A8
:101680002068806910F4407F204602D0FFF7CAFF2F
:1016900004E000F08AF8204600F088F825772068FA
:1016A0000169C943090716D4C168C943090712D49F
:1016B0006FF008010161042020772068C06980076D
:1016C000204602D0FFF7AEFF04E000F06EF820469F
:1016D00000F06CF8257720680169C943C90617D462
:1016E000C168C943C90613D46FF010010161082015
:1016F00020772068C06910F4407F204602D0FFF7B1
:1017000091FF04E000F051F8204600F04FF82577F3
:1017100020680169C943C90708D1C168C943C9071D
:1017200004D1891E0161204600F042F82068016959
:10173000C943090609D4C168C943090605D46FF035
:10174000800101612046FFF70CFF20680169C94351
:10175000C90509D4C168C943090605D46FF480716D
:1017600001612046FFF7FCFE20680169C943490674
:1017700009D4C168C943490605D46FF0400101612D
:10178000204600F01FF820680169C94389060BD480
:10179000C168C943890607D46FF020010161204662
:1017A000BDE87040FFF7DEBE70BD704770470000B7
:1017B00000680349884201D1FFF7A0B870470000D4
:1017C000002C014070477047704770472DE9F04189
:1017D00002680446D0691168936840F60F052842F4
:1017E0004FF0000505D186067ED58E067CD5616E4C
:1017F0001BE1994F03F001060F40374374D0C70730
:1018000009D0CF0507D501271762D4F8802042F010
:101810000102C4F8802082070AD5DA0708D02768B9
:1018200002223A62D4F8802042F00402C4F88020F8
:1018300042070AD5DA0708D0236804221A62D4F8CE
:10184000802042F00202C4F8802002070CD501F08B
:101850002002324308D0236808221A62D4F880207C
:1018600042F00802C4F8802002050BD54A0109D5D0
:1018700023684FF400621A62D4F8802042F02002FC
:10188000C4F88020D4F88020002A35D0800605D501
:10189000880603D5616E09B120468847D4F88000D8
:1018A00021688968490602D410F0280F26D0204606
:1018B00000F02EFD2068806840061AD520680830A8
:1018C00050E8001F21F0400140E80012002AF5D145
:1018D000206F70B161498163206FFEF7DBFE002845
:1018E0000AD0206F816B01E00EE02046BDE8F04198
:1018F00008472046FFF769FFBDE8F0812046FFF763
:1019000064FFC4F88050F7E7276E2026012F7BD1B3
:10191000C70679D5CF0677D5102010622068806879
:10192000400641D5216F086840680004000CE3D0F0
:10193000B4F858208242DFD9A4F85A000868006839
:1019400080062AD4206850E8001F21F4807140E806
:101950000012002AF6D12068083050E8001F21F05C
:10196000010140E80012002AF5D12068083050E853
:10197000001F21F0400140E80012002AF5D1E6677F
:101980002566216851E8000F20F0100041E80002B0
:10199000002AF6D1206FFEF758FEB4F85800B4F8CC
:1019A0005A10401A81B22AE0B4F85800B4F85A101C
:1019B000401A81B2B4F85A0000289DD000299BD06B
:1019C000226852E8000F20F4907042E80003002BD8
:1019D000F6D12068083050E8002F22F0010240E8DC
:1019E0000023002BF5D1E66725666566226852E87C
:1019F000000F20F0100042E80003002BF6D1204633
:101A0000FFF7E1FE78E7FFE7C70209D55B0207D5DC
:101A10004FF4801010622046BDE8F041FFF7D4BEBD
:101A2000020606D50A0604D5A16E00297FF45DAF33
:101A300062E74006E6D54806E4D52046026852E84B
:101A4000001F21F0400142E80013002BF6D1866709
:101A5000856600F064F94FE720010004FD220008CC
:101A600010B5040002D0A06F10B107E0012010BD36
:101A7000002084F87400204600F026F82420A06797
:101A80002068016821F001010160204600F066FC39
:101A90000128ECD0606A10B1204600F09DFB206860
:101AA000416821F4904141602068816821F02A0159
:101AB00081602068016841F0010101602046BDE8B5
:101AC000104000F0EDBB0000F0B59BB004461421BF
:101AD00015A8FEF7FFFC54216846FEF7FBFC2049E1
:101AE000206888423AD1022400266846099600946C
:101AF000FFF708F808B1FEF7A6FD1A48816D41F41A
:101B000000318165816D01F400311A91C16C41F0A1
:101B10000101C164C06C15A900F001001A900420F5
:101B200081E8510003250720CDE918504FF0904778
:101B30003846FEF7D7FDCDE917654FF400401995FB
:101B4000CDE9150415A93846FEF7CCFD0022052184
:101B50002620FEF759FF2620FEF748FF1BB0F0BDF8
:101B600000440040001002402DE9F84F0446C06FC9
:101B70009A4616460D46202870D10DB306B394F848
:101B8000740001286AD0012084F874004FF0000826
:101B9000C4F880802221E167C4F860805834FEF7E1
:101BA000A7FE24F8026B814624F852694FF4805353
:101BB00054F80809FF21984208D122691AB11CE0A3
:101BC000012000F04DB840F2FF1116E07F2290B1E5
:101BD000B0F1805F14D0A4F85C8000BFB4F85C70F2
:101BE000984201D1206990B12E46002584F8748076
:101BF00007F0FF0825E0266936B9A4F85C10EDE788
:101C0000216909B13F21F8E7A4F85C20E6E7002646
:101C1000ECE74B46002220212046CDF800A000F042
:101C20008BFC08B10320CCE72068808C8EB100EAE1
:101C3000080006F8010B00BFB4F85A00401EA4F8D3
:101C40005A00B4F85A000028E3D12020E0670020B1
:101C5000B7E7384025F8020BEEE7FFE70220B0E7D0
:101C600018BCBDE8E08F00002DE9F8430446806F02
:101C70001F4616460D4620284FD1CDB1C6B194F867
:101C80007400012849D0012084F874004FF0000846
:101C9000C4F880802120A067FEF72AFEA4F85060D7
:101CA0008146A4F85260A068B0F5805F03D004E0DC
:101CB0000120BDE8F883206928B12E465FF00005B9
:101CC00084F8748010E00026FAE78021204600F0B6
:101CD00033FCB8B9C6B116F8010B21680885B4F811
:101CE0005200401EA4F85200B4F852004B464FF088
:101CF000000200970028E8D14FF04001204600F094
:101D00001BFC30B10320D4E735F8020BC0F3080008
:101D1000E3E72020A0670020CBE70220C9E7704757
:101D2000FEE7000010B586B014216846FEF7D2FB2E
:101D30001548C16C41F00401C164C16C01F004019B
:101D40000591C16C41F00101C164C16C01F0010158
:101D50000591C16C41F00201C164C06C0B4C00F0F4
:101D600002000590002208212046FEF7BCFD082055
:101D7000009001200021CDE9010103916946204630
:101D8000FEF7B0FC06B010BD001002400004004891
:101D90000C4810B50A4901604FF4E131416000215F
:101DA00081600C22C160C0E904128161C1610162DD
:101DB0004162FFF755FE002801D072B6FEE710BD64
:101DC00000440040B4000020FEE7FEE72DE9F041AA
:101DD000444C05468846E0680026810728680DD0F7
:101DE000E16801F00301814216D1A8B1E068696899
:101DF000C0F30210401C88420ED120E0012804D01C
:101E0000022805D0032807D108E02168890701E0EE
:101E100021684905002907DB01265FE02168890365
:101E200002D421684903F5E7E1686A686FF00F039F
:101E300021F0730103EB021211430143E1602068BA
:101E400020F080602060FEF753FD074605E000BFEC
:101E5000FEF74EFDC01B022837D820680001F7D4DA
:101E6000B8F1000F18D0B8F1010F1DD0287D4FF048
:101E70007E41400801EB4060A96840EA01202169E9
:101E8000194A114008432061206840F080602060BA
:101E9000FEF72EFD07461AE0A868297B000240EAFB
:101EA000C1602169114AECE7288A1149400801EB19
:101EB0004050A96840EA012021690E4AE1E700BFCD
:101EC000FEF716FDC01B022801D9032606E0206894
:101ED0000001F5D52069A969084320613046BDE8B5
:101EE000F081000000100240FF80FFF9FF80FF0733
:101EF0000000E0FFFF809FFFF8B51C4D0646002460
:101F0000A86DC00002D5FEF7E5FD0DE0A86D40F01C
:101F10008050A865A86D00F080500090FEF7DAFDB3
:101F2000A96D21F08051A965B0F5007F04D0802E05
:101F300007D94FF003040AE0802E08D9A02E01D85B
:101F400004E001D1022402E0702E00D101240848EF
:101F5000016821F0070121430160006800F00700DB
:101F6000A04201D00120F8BD0020F8BD00100240C1
:101F700000200240214C08B50025A5704FF4FA76E8
:101F800032466946A06901F057FE0128F8D1A078D1
:101F9000C8B101281CD00228F2D19DF800002071A0
:101FA000A570E178FA2920D0FB2917D0FD2918D097
:101FB000FF291ED06571114900233246491DE06991
:101FC00001F0DCFCDCE79DF800006070012003E01C
:101FD0009DF80000E0700220A070D1E7617808440D
:101FE00001E06178081A6071E5E7617811FB00F0A3
:101FF000F9E76178B1FBF0F0F5E7000000000020A0
:102000000E4C4FF47A750D492A46891DE06901F09E
:1020100013FE0128F7D1A0793030A07101F016F934
:10202000064964230122891D0548FFF71DFE01F0C2
:102030002DF9012000F058FBE5E70000000000202A
:10204000B4000020012000F04FFBFBE7134F144CBD
:102050004FF47A7578263946206A01F089FE002807
:10206000F9D001F0F3F82B4601220D490D48FFF796
:102070007BFD01F00BF920780023303820701A46E0
:102080000749A06901F07AFC0128E4D026702B46AC
:10209000012203490348FFF7E7FDDCE77F9698003C
:1020A00000000020B400002010B54FF0E0200069CF
:1020B00001F0B0FF012803D0BDE8104001F072BB71
:1020C00010BD000010B596B044216846FEF702FA34
:1020D000142111A8FEF7FEF94FF40070FEF7C6FCBC
:1020E00008B172B6FEE7FEF7FDFC184850F8901FE5
:1020F00021F01801016014200090012002900024BA
:1021000060210690CDE907410221CDE90A100C902B
:1021100010200D900720CDE90E0168461091FEF7C2
:102120006FFF08B172B6FEE70F2011900320CDE9D2
:1021300012041494012111A81594FEF729FE08B188
:1021400072B6FEE7FEF7D6FC16B010BD00100240D6
:102150000248016841F470010160704788ED00E0B9
:102160000148FFF760BA00003801002070B502682E
:10217000164B4FF08046984201D0B04203D122F076
:1021800070044A682243124C124D984205D0B04266
:1021900003D0A04201D0A84203D122F44076CA68FD
:1021A00032434E6922F08002324302608A68C26282
:1021B0000A688262984203D0A04201D0A84201D1AD
:1021C000096901630121416170BD0000002C0140DB
:1021D000004001400044014090F82410C90706D097
:1021E00001684A68836A22F400321A434A6090F810
:1021F0002410890706D501684A68C36A22F4803230
:102200001A434A6090F82410490706D501684A68C5
:10221000036B22F480221A434A6090F824100907C5
:1022200006D501684A68436B22F400421A434A60AB
:1022300090F82410C90606D501688A68836B22F4D9
:1022400080521A438A6090F82410890606D50168E6
:102250008A68C36B22F400521A438A6090F82410F3
:10226000490611D501684A68036C22F480121A43AA
:102270004A60016CB1F5801F06D101684A68436C61
:1022800022F4C0021A434A6090F82410090606D5C9
:1022900001684A68806C22F4002202434A60704759
:1022A000F8B500260446C0F88060FEF721FB05461D
:1022B000206800686FF07E47000708D52B46002293
:1022C0004FF400112046009700F036F960B92068FD
:1022D000006840070AD52B4600224FF480012046B3
:1022E000009700F029F908B10320F8BD2020A0676D
:1022F000E067266684F874600020F8BD10B5806A37
:102300000021A0F85A10A0F85210FFF75EFA10BD95
:10231000016851E8002F22F4907241E80023002B5D
:10232000F6D10168083151E8002F22F0010241E89E
:102330000023002BF5D1016E012908D1026852E873
:10234000001F21F0100142E80013002BF6D12021DC
:10235000C167002101664166704700002DE9F04128
:102360000446016880682269E669104362690025B5
:1023700032431043694B0A68694E324002430A6097
:1023800020684168E26821F44051114341602168AE
:10239000A069994201D0226A10438A6822F430620F
:1023A00002438A605F4927685F488F420DD1D0F8A9
:1023B000880010F0030006D0012838D0022834D05D
:1023C000032821D135E001211FE058498F420BD16C
:1023D000D0F8880010F00C0025D0042827D0082859
:1023E00023D00C2810D124E09F420DD1D0F88800D2
:1023F00010F4406017D0B0F5806F18D0B0F5006FC2
:1024000013D0B0F5406F14D01021494A00264FF484
:1024100000409F422FD171B102290FD004290FD063
:10242000082973D10FE00021EFE70221EDE7042135
:10243000EBE70821E9E7FEF76DFD03E0104602E057
:10244000FEF78CFDF0B3626802EB420181425DD879
:10245000B0EB023F5AD8010E030250081818714120
:102460000023FDF773FF334AA0F5407191424DD828
:102470002168C8604BE0E3694FF6EF77834228D1CB
:10248000092943D2DFE801F005080B420D42424220
:102490001000FEF73FFD06E0FEF74EFD03E010469C
:1024A00002E0FEF75BFD68B14100606801EB50019E
:1024B000B1FBF0F0A0F11001B94227D84FF6F0714E
:1024C000014000E023E0C0F3420001432068C16006
:1024D0001DE009291AD2DFE801F005080B190D19D2
:1024E00019191000FEF716FD06E0FEF725FD03E0C2
:1024F000104602E0FEF732FD48B1616800EB510082
:10250000B0FBF1F0A0F11001B94205D901256666D2
:102510002846A666BDE8F08180B2A9E700800040A9
:10252000F369FFEF00380140001002400044004012
:102530000024F400FFFC0F002DE9F0479A461746EF
:102540000E4604464FF000094FF02008089D4AE06F
:10255000681C48D0FEF7CCF9A0EB0A00A8422AD8A4
:102560004DB32068016849073DD5C069C0430005E7
:1025700039D421684FF400600862206850E8001FD9
:1025800021F4D07140E80012002AF6D1206808300A
:1025900050E8001F21F0010140E80012002AF5D1A7
:1025A000C4F87880C4F87C80C4F8808084F8749083
:1025B0000320BDE8F087216851E8000F20F4D070B7
:1025C00041E80002002AF6D12068083050E8001FD8
:1025D00021F0010140E80012002AF5D1C4F878800A
:1025E000C4F87C80E2E72068C06936EA000004D0C5
:1025F0000020B842ACD00020DBE70120F9E7000062
:10260000054810B50021006801F0C7FABDE8104088
:102610000248FFF7DBB8000020000020B4000020D3
:10262000FEE70907090E002804DB00F1E02080F82E
:102630000014704700F00F0000F1E02080F8141D36
:1026400070470000FEF762F9FFF73CFDFFF76AFBF9
:10265000FFF79EFB1D480068016841F02001016002
:1026600000F050F801211A4A084600F0A5F8194C6C
:10267000174A01212062303A042000F071F8144A10
:10268000A061183A0121042000F06AF8104AE061C4
:10269000C03A0021104800F0DBF80D4AA0609C3AD7
:1026A00000210E4800F0D4F8094AE060783A002191
:1026B0000B4800F0CDF8064A2061543A0021094841
:1026C00000F0C6F8606100F02FF8FEE7B4000020CB
:1026D000C444000800000020751F00080120000805
:1026E000452000084D20000810B5EFF3058111B119
:1026F0006FF0050403E0002408B100F0ABFE2046B3
:1027000010BD0000EFF3058010B16FF005007047B9
:102710000448016811B14FF0FF307047012101609A
:10272000002070478400002010B5EFF3058010B141
:102730006FF0050010BD08480168012902D04FF074
:10274000FF3010BD054A002182F8141D02210160EE
:1027500000F030FF002010BD840000200BE000E0FE
:10276000F8B514464FF00005EFF3058212BB08B32D
:1027700001B3A4B1D4E9023263B1502A1AD3226959
:10278000C2B1676900FB01F6B74213D3009501F0AF
:102790007DF807E072B9226962B9626952B9002214
:1027A00001F053F8050005D00CB1216800E00021CC
:1027B00000F0EEFD2846F8BDF8B5144603460E4677
:1027C0004FF00005EFF3058098BB93B39E423DD8D0
:1027D0004CB1A0680028E06803D0502836D301200F
:1027E00002E008B132E00020012B05D010B31846FA
:1027F000A26801F00AF820E040B103200090002216
:1028000011460120A36801F041F804E003220021F1
:10281000012001F01AF8050018D086B100231A46ED
:10282000194601F0ABF8012809D0284600F0C4FD94
:1028300000250BE0184600F0CBFF050006D00CB1D8
:10284000216800E00021284600F0A2FD2846F8BDDE
:102850002DE9FF414FEA01034FF00005EFF3058139
:10286000039549BB40B38027182100244AB316685A
:1028700006B1344696691EB13146761E382E02D214
:102880001679F60703D0002004B0BDE8F081566940
:1028900006B1B708D2F808C0BCF1000F0DD0D5685A
:1028A0005C2D18D312693AB136B18DE806103A465C
:1028B000214601F083FB03900DE0D6685EB91269F2
:1028C0004AB903AACDE90012BAB2214601F046FB8B
:1028D000012800D003950398D6E700002DE9F041C8
:1028E000134C0F460546E6682068001D00F052FCB8
:1028F000681C07D137B12168BDE8F0410D48091DBA
:1029000000F098BC20683544B5424560216805D286
:10291000A06BBDE8F041091D00F074BC606B091D9F
:1029200000F070FCA06A854200D2A562BDE8F0818B
:1029300034000020740600202DE9F041054600F027
:1029400085FC2D4CA068401CA06020682B4F10B166
:10295000606930B32BE02560A068012827D10026EC
:1029600006EB860007EB800000F03EFC761C382E5C
:10297000F6D3234800F038FC2148143000F034FC32
:102980001F48283000F030FC1D483C3000F02CFC83
:102990001B48503000F028FC194860631430A063D5
:1029A00005E02068E96AC06A884200D82560606A4C
:1029B000401C60626864E86A2169884200D920612D
:1029C00000EB800007EB8000291D00F033FC00F0D5
:1029D0005DFC606900280CD02068E96AC06A884202
:1029E00007D208494FF080500860BFF34F8FBFF304
:1029F0006F8FBDE8F081000034000020C40100208A
:102A00002406002004ED00E038B500F01FFC104C57
:102A10002068C8B90F4800F0E7FB0E48143000F0FA
:102A2000E3FB0C48E060143020610A4B0020F03BCF
:102A3000009003F1500210210A2000F027FF2060CF
:102A400010B105A100F0A4FCBDE8384000F01EBCA8
:102A50007000002078070020546D725100000000C3
:102A600030B4026C0B46002A0BD0C1681144C1601F
:102A70008468A14201D30168C16030BC1846FDF7EB
:102A8000DCBC30BC70472DE9F041856B174604462D
:102A90000026026C82B1C7B1E068FDF7CEFCE168A8
:102AA000206C091AE1602268914202D2A168081ADA
:102AB000E060022F16D017E02068A8B9A06801F0E6
:102AC00021FB06460020A0600EE06068FDF7B5FC23
:102AD000216C606808446060A168884204D3206863
:102AE000606001E005B16D1E6D1CA5633046BDE858
:102AF000F08110B5044690F8590058B101280CD067
:102B000002280FD0502080F31188BFF34F8FBFF3FE
:102B10006F8FFEE7206B00F0CDFB2046BDE8104034
:102B200000F0C8BB10BD00000F4840F6B8314207A6
:102B300005D0C01D0C4A20F00700821A891A0B4AE2
:102B400000230144C2E900030839183A21F00701C3
:102B500011604B600B600B1AC0E9001393604FF0DB
:102B60000040536050617047580E0020A0000020C4
:102B7000144E154CA6F29C474FF08058DFF84C904D
:102B800012E000BF00F062FBF068C568281D00F08D
:102B900001FBA068401EA0606068401E606000F0FD
:102BA00075FB2846FFF7A5FF60680028EAD1386862
:102BB0000128F9D9C9F80080BFF34F8FBFF36F8F99
:102BC000F2E70000600600203400002004ED00E081
:102BD00070B51D46049C51B1C4F80020C4E90F0132
:102BE0000121204600F086FE84F84C5070BD246020
:102BF000F4E700002DE9F05F8846DDE90B94154607
:102C0000834691009A460A9EA522206BFDF75AFC46
:102C10006FF00301206B01EB8501084420F00707EA
:102C2000780707D0502080F31188BFF34F8FBFF390
:102C30006F8FFEE70025B8F1000F0FD05FF00000A6
:102C4000221818F8001082F8341018F8001011B18A
:102C5000401C1028F4D384F8435001E084F8345029
:102C6000382E00D33726E662C4E91365201D00F034
:102C7000C6FA04F1180000F0C2FA2461C6F1380067
:102C80006462A061656584F85850524659463846DA
:102C900000F06AFA2060B9F1000F01D0C9F80040D5
:102CA00000F000B830BCBDE8C09F000030B511494D
:102CB00000E011460A688242FBD34B685C188442EC
:102CC00003D1406818444860084643681C18944281
:102CD00009D1084C183C2468A24209D052681A4411
:102CE00042600A6812680260814200D0086030BD0C
:102CF0000460F9E7A000002070B5002441600B4D8E
:102D00000061914206D8D11A8269914206D2011D12
:102D1000286907E09A4203D2994201D3012403E0D3
:102D2000011DE86800F06EFA204670BD70000020BA
:102D300010B5044600F08AFAA06B28B15FF00004D9
:102D400000F0A4FA204610BD0124F9E730B589B09F
:102D50003C4D6EE00498002806DADDE90601059A8C
:102D600090470498002864DB069C606910B1201D20
:102D700000F010FA03A800F0D7F8024604980A28D9
:102D800057D2DFE800F00505052D334A05052D3340
:102D900094F8280040F0010084F828000599A06903
:102DA000059B01442046FFF7A7FF68B3216A204630
:102DB000884794F8280040073BD5002000900598EC
:102DC000A169002342181946204601F0E1FAD8B95A
:102DD000502080F31188BFF34F8FBFF36F8FFEE752
:102DE00014F8280F20F00100207022E094F8280049
:102DF00040F0010084F828000598A06128B18118EE
:102E000013462046FFF778FF13E0502080F3118827
:102E1000BFF34F8FBFF36F8FFEE794F82800810751
:102E200003D4204600F046FA03E020F0010084F8C5
:102E30002800002204A9286800F0FEFE002889D19D
:102E400009B030BD700000202DE9FC410F46054659
:102E500000F0F4FB01A800F067F80446019818B1EF
:102E600001F004FABDE8FC81254EAFB1306900687D
:102E7000D0B30027291B3A46306800F0C9FA01F0A8
:102E8000F5F90028EED11F494FF080500860BFF3DC
:102E90004F8FBFF36F8FE5E7A542EBD801F0E6F95E
:102EA000F0682746C068C468201D00F073F994F8E4
:102EB0002800410719D5A0692B4641193A462046FA
:102EC000FFF71AFFA8B100200346014600902A46EA
:102ED000204601F05DFA60B9502080F31188BFF3FD
:102EE0004F8FBFF36F8FFEE707E020F0010084F8FB
:102EF0002800216A20468847B4E70127BAE7000086
:102F00007000002004ED00E00648416B096829B11B
:102F1000416BC968C9684968816270474FF0FF31E9
:102F2000FAE700003400002070B5054601F080F893
:102F3000064E0446B068844203D200F009F801202E
:102F400000E0002028602046B46070BD70000020C2
:102F5000F8B5194D20E0C068C4680668201D00F06F
:102F600019F9216A2046884794F82800400713D5AC
:102F7000A0693044B04206D924616060211DE86830
:102F800000F040F908E00020034601460090324678
:102F9000204601F0FDF938B1E86801680029DAD16E
:102FA0002969C5E90310F8BD502080F31188BFF3EB
:102FB0004F8FBFF36F8FFEE7700000200848406816
:102FC000401C4FF0500080F3118804D0BFF34F8FA6
:102FD000BFF36F8FFEE7BFF34F8FBFF36F8FFEE737
:102FE000A8000020074CE068016841B1C0680021DA
:102FF000D0F80000FFF728FFFFF7A8FEF3E7012154
:103000000020F7E7700000202DE9F041044600F0B1
:103010001DF994F9455004F1240609E0606A48B1AD
:10302000304601F0EBF808B100F042FA6D1E6DB2C7
:10303000002DF3DC4FF0FF3684F8456000F026F9F0
:1030400000F004F994F9445004F1100709E02069F4
:1030500048B1384601F0D2F808B100F029FA6D1EE7
:103060006DB2002DF3DC84F84460BDE8F04100F05F
:103070000DB900002DE9F0410546002700F0DEFA09
:10308000324E306808B9FFF74FFD706905424ED1E6
:10309000C5B3083568070ED005F00700C0F1080079
:1030A0000544680707D0502080F31188BFF34F8F85
:1030B000BFF36F8FFEE72DB37068854237D8234882
:1030C000183001460C6801E020460C466168A942B0
:1030D00002D221680029F7D131688C4227D00768D5
:1030E0002168016060680837411B10290FD96019F9
:1030F000420708D0502080F31188BFF34F8FBFF3F1
:103100006F8FFEE713E041606560FFF7CFFD6168F8
:103110007068401A7060B268904200D2B060706906
:1031200001430020C4E90001F068401CF06001F098
:103130009DF8780707D0502080F31188BFF34F8F98
:10314000BFF36F8FFEE73846BDE8F08188000020AE
:103150000449086818B10868026D521C02650868C5
:10316000704700003400002010B5031F4FF080743A
:103170001C601B1F21F001011960191F044B0B601B
:1031800014390A60091F6FF0020244380A6010BD4A
:10319000BD2F0008D0E9013201699A60D0E901230E
:1031A0005A604A68824201D182684A600022026104
:1031B0000868401E0860086870470000034B036001
:1031C00003F15C000860802010607047A0070020B9
:1031D000044B036003F15C0008604FF480701060E2
:1031E00070470000FC09002000F108014FF0FF3299
:1031F000C0E90112C1600161002101607047002136
:103200000161704730B50B685A1C02D000F108020A
:1032100002E0026904E02246546825689D42FAD91A
:1032200053684B6099608A60516008610168491C6D
:10323000016030BD42684A6093688B609368596052
:10324000916008610168491C01607047502080F35B
:103250001188BFF34F8FBFF36F8F0A494868401C36
:10326000486001280CD10848006810F0FF0F07D013
:10327000502080F31188BFF34F8FBFF36F8FFEE7AD
:1032800070470000A800002004ED00E008494868ED
:1032900028B1401E486001D180F31188704750204A
:1032A00080F31188BFF34F8FBFF36F8FFEE70000ED
:1032B000A800002070B500282AD0164DA0F10804FF
:1032C00060686969084207D1502080F31188BFF314
:1032D0004F8FBFF36F8FFEE722683AB1502080F323
:1032E0001188BFF34F8FBFF36F8FFEE78843606095
:1032F00000F0A4F960686968084468602046FFF738
:10330000D5FC2869401C2861BDE8704000F0AEBFC4
:1033100070BD0000880000204FF0E0200021016116
:10332000816105494FF47A720968B1FBF2F1491ED7
:1033300041610721016170473000002010B5FCF7A2
:10334000D1FF114910280ED300F1E02090F8F003CE
:103350000A78904207D2502080F31188BFF34F8F34
:10336000BFF36F8FFEE709480068896800F4E060EA
:10337000884207D9502080F31188BFF34F8FBFF3E5
:103380006F8FFEE710BD0000A80000200CED00E0EC
:1033900010B5084B002200BF53F832401CB1521C3C
:1033A000082AF9D310BD43F8321003EBC20148607C
:1033B00010BD00008401002010B504000AD000F008
:1033C00013F894F8460000280CD12046BDE81040C0
:1033D000FFF770BF502080F31188BFF34F8FBFF30A
:1033E0006F8FFEE710BD0000084A002102EBC10309
:1033F0005B68834206D1002042F8310002EBC10134
:1034000048607047491C0829F0D3704784010020A8
:1034100070B515460E460446FFF718FF94F94410A0
:103420000020491C01D184F8440094F94510491C3E
:1034300001D184F84500FFF729FFA06B28B92A467F
:10344000314604F1240000F051F82046BDE87040F8
:10345000FFF7DABD10B5020014D00F48006B38B189
:10346000502080F31188BFF34F8FBFF36F8FFEE7BB
:1034700000F0E4F800211046FFF730FA00F0F6FE05
:10348000002807D105494FF080500860BFF34F8FE7
:10349000BFF36F8F10BD00003400002004ED00E08A
:1034A00002490A6A0260C96841607047340000201E
:1034B00001490120C86170473400002010B50C4656
:1034C00050B1094909681831FFF79CFE2046BDE854
:1034D00010400121FFF702BA502080F31188BFF39A
:1034E0004F8FBFF36F8FFEE73400002070B5144696
:1034F0000D4668B10A4909681831FFF79BFE0CB107
:103500004FF0FF3521462846BDE87040FFF7E6B989
:10351000502080F31188BFF34F8FBFF36F8FFEE70A
:103520003400002070B504003ED0226DA2B1E06CE2
:10353000884200D30146E06A884235D0012A33D15F
:103540001A4D2A6894420FD1502080F31188BFF39E
:103550004F8FBFF36F8FFEE7502080F31188BFF3CA
:103560004F8FBFF36F8FFEE7E162A269002A02DB93
:10357000C1F13801A1610E4E00EB8000616906EBDC
:103580008000814210D1201DFFF704FEE06A296906
:10359000884200D9286100EB800006EB8000211DE5
:1035A000BDE87040FFF746BE70BD0000340000204B
:1035B000C401002030B587B00024039405AA04A9F3
:1035C00003A80494FFF7FAFDDDE903010094CDE9B7
:1035D0000110002315A11748059A00F0EFFC164DC5
:1035E0000028E8621FD000F0A3FE012809D0401C8B
:1035F00019D1502080F31188BFF34F8FBFF36F8F25
:10360000FEE7502080F31188BFF34F8FBFF36F8F19
:103610004FF0FF30A86201206861EC6007B0BDE8A0
:10362000304000F045B807B030BD000049444C457B
:1036300000000000712B0008340000200248016BDC
:10364000491C01637047000034000020164810B583
:10365000016B11B10121C16110BD0021C16101697E
:10366000124A01E0B9B1491E01EB810352F823303F
:10367000002BF7D001EB810302EB830202F1080477
:1036800053685B685360A34201D15B685360DA689A
:103690000260016110BD502080F31188BFF34F8F8D
:1036A000BFF36F8FFEE7000034000020C40100204C
:1036B0001CB537480168374A914207D1502080F342
:1036C0001188BFF34F8FBFF36F8FFEE7006831495A
:1036D000491E884207D1502080F31188BFF34F8FD5
:1036E000BFF36F8FFEE72C4908780190FF20087028
:1036F00008788DF800009DF800009DF8002000F08B
:10370000F000904207D0502080F31188BFF34F8F14
:10371000BFF36F8FFEE79DF80000204C00F05000D3
:1037200020700720A06005E09DF8002052008DF871
:103730000020401E9DF800201206F5D4A06003284A
:1037400007D0502080F31188BFF34F8FBFF36F8FE6
:10375000FEE74FF44070A060019808700C482030DC
:10376000016841F470010160016841F0704101603D
:10377000FFF7D2FD00206060FCF77CFD084801687F
:1037800041F040410160FCF761FD00201CBD0000DC
:1037900000ED00E071C20F4100E400E0A80000204D
:1037A00034EF00E010B5502080F31188BFF34F8F45
:1037B000BFF36F8F00F042FC18B104494FF0805006
:1037C0000860002080F3118810BD000004ED00E0C7
:1037D00010B50C4648B184420FD9502080F31188AF
:1037E000BFF34F8FBFF36F8FFEE7502080F3118838
:1037F000BFF34F8FBFF36F8FFEE70222002100F06F
:1038000024F8002800D0846310BD38B50C4648B1B8
:1038100084420FD9502080F31188BFF34F8FBFF33C
:103820006F8FFEE7502080F31188BFF34F8FBFF3F7
:103830006F8FFEE70221134600220091114600F02F
:1038400025F8002800D0846338BDF8B517460E4629
:10385000050013D005FB06F05030FFF70BFC040009
:103860000AD0002084F8460004F150023B4631465D
:1038700028460094FFF7ACF92046F8BD502080F3AD
:103880001188BFF34F8FBFF36F8FFEE738B5049DEC
:1038900018B153B1CAB181B120E0502080F3118832
:1038A000BFF34F8FBFF36F8FFEE7502080F3118877
:1038B000BFF34F8FBFF36F8FFEE7502080F3118867
:1038C000BFF34F8FBFF36F8FFEE739B1502080F306
:1038D0001188BFF34F8FBFF36F8FFEE750241C4654
:1038E000012384F846302B460094FFF771F92046F7
:1038F00038BD000070B50D46040025D0FFF7A6FCCA
:10390000D4E90F20216802FB0011A1600021A1630E
:10391000216861600A46D4E90F01401E00FB0121C5
:10392000E16021464FF0FF3001F8440F487004F188
:1039300010008DB1FFF758FC04F12400FFF754FC90
:10394000FFF7A4FC012070BD502080F31188BFF365
:103950004F8FBFF36F8FFEE721690029F0D000F091
:103960004DFC0028ECD004494FF080500860BFF3B4
:103970004F8FBFF36F8FE3E704ED00E02DE9FF47C2
:1039800082B01D468A464FF00008040003D0BAF109
:10399000000F08D011E0502080F31188BFF34F8F43
:1039A000BFF36F8FFEE7206C38B1502080F3118891
:1039B000BFF34F8FBFF36F8FFEE7022D0AD1E06B8D
:1039C000012807D0502080F31188BFF34F8FBFF339
:1039D0006F8FFEE700F01EFB3F4F4FF000094FF0E6
:1039E000805648B9049838B1502080F31188BFF34D
:1039F0004F8FBFF36F8FFEE7FFF728FCA06BE16BE3
:103A0000884207D3022D05D00498D0B1B8F1000F39
:103A10001AD01EE02A4651462046FFF734F8616A64
:103A200019B104F1240000F0E9FB20B13E60BFF3BE
:103A30004F8FBFF36F8FFFF729FC012006B0BDE861
:103A4000F087FFF723FC22E06846FFF729FD4FF0DF
:103A50000108FFF71BFCFFF7F1FDFFF7F7FB94F9F7
:103A60004400401C01D184F8449094F94500401C66
:103A700001D184F84590FFF709FC04A9684600F0DD
:103A800033FA30B12046FFF7BFFA00F0EFFB002019
:103A9000D4E7FFF7DBFBA06BE16B884213D1FFF7A4
:103AA000F5FB04F110000499FFF708FD2046FFF72D
:103AB000ABFA00F0DBFB00289ED13E60BFF34F8FD6
:103AC000BFF36F8F98E7FFF7E1FB2046FFF79CFA03
:103AD00000F0CCFB90E7000004ED00E02DE9F0479A
:103AE0001F4690468946040003D0B9F1000F08D064
:103AF00011E0502080F31188BFF34F8FBFF36F8F19
:103B0000FEE7206C38B1502080F31188BFF34F8F4F
:103B1000BFF36F8FFEE7022F0AD1E06B012807D0B9
:103B2000502080F31188BFF34F8FBFF36F8FFEE7F4
:103B3000FFF704FC5020EFF3118680F31188BFF3E8
:103B40004F8FBFF36F8FA06BE16B884206D3022FBC
:103B500004D0002086F31188BDE8F08794F9455021
:103B6000A06B3A4649462046FEF78DFF681C04D0FC
:103B70006D1C84F845500120ECE7606A0028FAD0FB
:103B800004F1240000F03AFB0028F4D0B8F1000F53
:103B9000F1D00121C8F80010EDE770B50E46040021
:103BA00009D0206C78B1502080F31188BFF34F8F7B
:103BB000BFF36F8FFEE7502080F31188BFF34F8F64
:103BC000BFF36F8FFEE7206848B9A06838B1502076
:103BD00080F31188BFF34F8FBFF36F8FFEE7FFF7BE
:103BE000ADFB5020EFF3118580F31188BFF34F8FA9
:103BF000BFF36F8FA16BE06B884218D994F9450031
:103C0000491CA163411C04D0401C84F845000120DC
:103C10000EE0606A0028FAD004F1240000F0EEFA09
:103C20000028F4D0002EF2D001203060EFE7002011
:103C300085F3118870BD00002DE9F747002683B099
:103C40008A46040003D0BAF1000F08D011E05020DA
:103C500080F31188BFF34F8FBFF36F8FFEE7206CA7
:103C600038B1502080F31188BFF34F8FBFF36F8FAF
:103C7000FEE700F0CFF9DFF8F4804FF000094FF0D5
:103C8000805748B9059838B1502080F31188BFF3A8
:103C90004F8FBFF36F8FFEE7FFF7D8FAA56BC5B163
:103CA00051462046FEF7DCFE6D1EA563206950B12B
:103CB00004F1100000F0A2FA28B1C8F80070BFF3B8
:103CC0004F8FBFF36F8FFFF7E1FA012006B0BDE819
:103CD000F087059808B11EB106E0FFF7D7FA27E094
:103CE0006846FFF7DDFB0126FFF7D0FAFFF7A6FCD9
:103CF000FFF7ACFA94F94400401C01D184F84490D9
:103D000094F94500401C01D184F84590FFF7BEFAB4
:103D100005A9684600F0E8F8002820460AD0FFF719
:103D200073F900F0A3FA2046FFF702F80028B3D099
:103D30000020CBE7FEF7FCFF90B104F124000599C9
:103D4000FFF7BCFB2046FFF75FF900F08FFA002871
:103D5000A2D1C8F80070BFF34F8FBFF36F8F9BE7FE
:103D60002046FFF751F900F081FA95E704ED00E0F5
:103D70002DE9F343002683B00400354609D0206CBA
:103D800078B1502080F31188BFF34F8FBFF36F8F4E
:103D9000FEE7502080F31188BFF34F8FBFF36F8F82
:103DA000FEE700F037F9DFF83C814FF000094FF0F3
:103DB000805748B9049838B1502080F31188BFF378
:103DC0004F8FBFF36F8FFEE7FFF740FAA06BC8B1CC
:103DD000401EA063206810B9FFF7BAF9A0602069FF
:103DE00050B104F1100000F009FA28B1C8F80070D1
:103DF000BFF34F8FBFF36F8FFFF748FA012005B075
:103E0000BDE8F083049808B166B10FE03DB15020E1
:103E100080F31188BFF34F8FBFF36F8FFEE7FFF77B
:103E200035FA5DE06846FFF73BFB0126FFF72EFA07
:103E3000FFF704FCFFF70AFA94F94400401C01D193
:103E400084F8449094F94500401C01D184F84590D1
:103E5000FFF71CFA04A9684600F046F8002820463F
:103E600012D0FFF7D1F800F001FA2046FEF760FF0C
:103E70000028A9D09DB3FFF7E9F9606A50B3206B21
:103E80000068C0F1380126E0FEF752FFE0B120687B
:103E900038B9FFF7DBF9A06800F074F90546FFF7C1
:103EA000F5F904F124000499FFF708FB2046FFF719
:103EB000ABF800F0DBF9002886D1C8F80070BFF33A
:103EC0004F8FBFF36F8F7FE72046FFF79DF800F01D
:103ED000CDF979E70021A068FFF724FB9FE7FFE712
:103EE00000208CE704ED00E02DE9F0410C460500D0
:103EF00011D0C4B1FFF7AAF9174BDA686E682068D1
:103F0000911B471C17D02F681B6A9F4219D09642FD
:103F100017D8012410E0502080F31188BFF34F8F91
:103F2000BFF36F8FFEE7502080F31188BFF34F8FF0
:103F3000BFF36F8FFEE70024FFF7A8F92046BDE826
:103F4000F081884205D9401A20602846FFF7A8FA78
:103F5000F1E700202060DCE7340000202DE9FF5F5E
:103F60008346DDE90E87994616468A469000FFF79C
:103F700081F805001CD05C20FFF77CF8040014D009
:103F80000020256384F85900CDE90240CDE900877F
:103F90004B46324651465846FEF72CFE2046FEF769
:103FA000CBFC012004B000F006B82846FFF782F9E8
:103FB0004FF0FF30F6E730BCBDE8C09FF0B585B0EC
:103FC000DDE90B640A9DA6B1DCB15C27009726638E
:103FD000022684F85960002604AFCDE90246CDE9F7
:103FE0000057FEF707FE2046FEF7A6FC049805B032
:103FF000F0BD502080F31188BFF34F8FBFF36F8F58
:10400000FEE7502080F31188BFF34F8FBFF36F8F0F
:10401000FEE700000548416919B1006B18B10020A6
:1040200070470120704702207047000034000020D4
:104030000148C06870470000340000202DE9F041BD
:104040002E4C0027206B28B1A069401CA061384687
:10405000BDE8F081E668761CE66013D1606B00680D
:1040600038B1502080F31188BFF34F8FBFF36F8FAB
:10407000FEE7606BA16B6163A063206A401C206255
:10408000FEF742FFA06ADFF87880864209D3606BB2
:104090000068A0B1606BC068C5686868864211D2CC
:1040A000A0622068C06A00EB800158F82100012856
:1040B00000D90127E0690028C9D00127C7E74FF0E0
:1040C000FF30EDE7281DFFF765F8A86A18B105F184
:1040D0001800FFF75FF8E86A2169884200D920617B
:1040E00000EB800108EB8100291DFFF7A3F8E86AC7
:1040F0002168C96A8842CAD30127C8E73400002072
:10410000C401002070B504004FF0000133D01B4DF6
:104110002868844207D0502080F31188BFF34F8F66
:10412000BFF36F8FFEE7206D38B1401E2065E36C52
:10413000E26A9A421FD040B11DE0502080F31188FE
:10414000BFF34F8FBFF36F8FFEE7201DFFF722F8FD
:10415000E06CE062C0F13800A061E06A2969884241
:1041600000D92861064900EB800001EB8000211D89
:10417000FFF760F80121084670BD00003400002000
:10418000C401002070B504004FF000002BD0194D81
:10419000E16A2A68D26A914226D2A069002804DB2B
:1041A0002868C06AC0F13800A061134E01EB81019C
:1041B000606906EB8101884211D1201DFEF7EAFFFC
:1041C0002868C06AE0622969884200D9286100EB4A
:1041D000800006EB8000211DFFF72CF802E0286824
:1041E000C06AE062012070BDE16C2A68D26A914227
:1041F000F8D370BD34000020C401002070B5C06841
:10420000C46854B104F118000646FEF7C3FF144D0C
:10421000286B50B13146134815E0502080F31188C7
:10422000BFF34F8FBFF36F8FFEE7201DFEF7B2FF86
:10423000E06A2969884200D928610B4900EB8000B7
:1042400001EB8000211DFEF7F5FFE06A2968C96ACD
:10425000884202D90120E86170BD002070BD0000D5
:10426000340000204C060020C40100202DE9F04756
:104270002C4D00242746286B38B1FEF7E7FF286B4A
:10428000401E2863286B40B146E0502080F311881F
:10429000BFF34F8FBFF36F8FFEE7A968224E012057
:1042A000D1B3A6F5916980463068E0B1F068C46882
:1042B00004F11800FEF76EFF201DFEF76BFFE06AA9
:1042C0002969884200D9286100EB800109EB81004F
:1042D000211DFEF7AFFFE06A2968C96A8842E3D36F
:1042E000C5F81C80E0E70CB1FEF70EFEAC694CB1DE
:1042F0004FEA0806FFF7A2FE00B1EE61641EF9D195
:104300000020A861E86938B108490127380708602A
:10431000BFF34F8FBFF36F8FFEF7B8FF3846BDE88E
:10432000F0870000340000204C06002004ED00E07F
:1043300010B586B0FEF768FB114C2068B8B10020BC
:104340000390049005AA04A903A8FEF741FFDDE944
:10435000032102208DE8070000230AA10B48059ADB
:10436000FFF72CFE606010B106B0012010BD502098
:1043700080F31188BFF34F8FBFF36F8FFEE700000C
:1043800070000020546D722053766300E52F000802
:104390002DE9FF411E46134602000A9D4FF0000022
:1043A00016D0144C2768002F0FD0CDE900130292CD
:1043B000062917DAFFF72EFE02284FF000030FD070
:1043C000002269462068FFF7D9FA04B0BDE8F08101
:1043D000502080F31188BFF34F8FBFF36F8FFEE73C
:1043E0002A46EEE70023324669463846FFF776FB59
:1043F000EBE70000700000204FF04070E1EE100A83
:104400007047000058450008000000000000000050
:104410000000000000000000000200001800000082
:1044200000000000000000002C4500080000000013
:10443000000000000000000000000000000200007A
:1044400008000000000000000000000038450008DF
:10445000000000000000000000000000000000005C
:104460000002000008000000000000000000000042
:1044700044450008000000000000000000000000AB
:104480000000000000020000080000000000000022
:10449000000000005045000800000000000000007F
:1044A000000000000000000000000000544500086B
:1044B00000000000000000000000000000000000FC
:1044C000000000001C450008000000000000000083
:1044D00000000000000000000000000001020304D2
:1044E00006070809A0860100400D0300801A060097
:1044F00000350C0040420F0080841E0000093D0082
:1045000000127A000024F40000366E010048E80131
:10451000006CDC0200000000010203046D794269B6
:104520006E61727953656D30310000006D795461B0
:10453000736B3032000000006D795461736B30335F
:10454000000000006D795461736B3034000000008E
:10455000525100005351000064656661756C7454DB
:1045600061736B008445000800000020B400000067
:10457000C801000838460008B4000020BC1F000035
:10458000E40100080000000000000000000000003E
:10459000000000000000000000000000000000001B
:1045A00000000000000000000100000010000000FA
:1045B0000000000000093D000000000000000000B5
:1045C00000000000000000000000000000000000EB
:1045D00000000000000000000000000000000000DB
:1045E00000000000000000000000000000000000CB
:1045F00000000000000000000000000000000000BB
:1046000000000000000000000000000000000000AA
:10461000000000000000000000000000000000009A
:10462000000000000000000000000000000000008A
:08463000AAAAAAAA00000000DA
:040000050800018D61
:00000001FF
