:020000040800F2
:1000000070070020290200089718000885170008CB
:10001000951800081F040008752000080000000063
:100020000000000000000000000000009B18000815
:100030002104000800000000991800089D1800081D
:10004000430200084302000843020008430200087C
:10005000430200084302000843020008430200086C
:10006000430200084302000843020008430200085C
:10007000430200084302000843020008430200084C
:10008000430200084302000843020008430200083C
:10009000430200084302000843020008430200082C
:1000A000430200084302000843020008430200081C
:1000B0004302000843020008000000004302000859
:1000C0004302000800000000000000004302000896
:1000D0000000000043020008430200084302000839
:1000E0004302000843020008000000000000000076
:1000F0000000000000000000000000000000000000
:1001000000000000000000000000000000000000EF
:100110000000000000000000430200084302000845
:1001200000000000000000000000000000000000CF
:1001300000000000000000000000000000000000BF
:100140004302000843020008000000000000000015
:10015000000000000000000000000000000000009F
:10016000000000000000000000000000000000008F
:10017000000000000000000000000000000000007F
:10018000000000004302000800F002F800F03CF814
:100190000AA090E8000C82448344AAF10107DA45E2
:1001A00001D100F031F8AFF2090EBAE80F0013F0F8
:1001B000010F18BFFB1A43F001031847C81F0000C6
:1001C000E81F0000103A24BF78C878C1FAD8520757
:1001D00024BF30C830C144BF04680C6070470000C1
:1001E0000023002400250026103A28BF78C1FBD840
:1001F000520728BF30C148BF0B6070471FB501F0E0
:100200009FFF1FBD10B510BD00F0CFF81146FFF7DE
:10021000F5FF01F041FF00F0EDF803B4FFF7F2FF46
:1002200003BC00F0F5F80000094880470948004782
:10023000FEE7FEE7FEE7FEE7FEE7FEE7FEE7FEE796
:10024000FEE7FEE704480549054A064B70470000F3
:100250000D190008890100087001002070070020B6
:10026000700300207003002053EA020C00F0698044
:100270002DE9F04B4FF00006002B1FBFB3FA83F5BA
:1002800003FA05F424FA05F65E4012BF1643B2FAEB
:1002900082F502FA05F4C5F120051EBF22FA05FC1D
:1002A00044EA0C04203556EA044C4FEA144418BFC3
:1002B000641C4FF000084FF00009904271EB030CF2
:1002C00039D3002919BFB1FA81F701FA07F6B0FA5C
:1002D00080F700FA07F6C7F120071EBF20FA07FCD7
:1002E00046EA0C062037B6FBF4FCA7EB0507103FE7
:1002F00007F01F0BCBF120060CFA0BFB2CFA06F6CD
:1003000044BFB3460026202FA4BF5E464FF0000B2B
:100310005BEA060C08BF4FF0010B19EB0B09ABFBB6
:10032000027C48EB0608C01B06FB02CC0BFB03CC8F
:1003300071EB0C01C1E70B46024641464846BDE859
:10034000F08B13B54FF000004FF00001AFF30080C9
:10035000BDE81C4070474FF0000200B513469446BC
:100360009646203922BFA0E80C50A0E80C50B1F10D
:100370002001BFF4F7AF090728BFA0E80C5048BF21
:100380000CC05DF804EB890028BF40F8042B08BFBF
:10039000704748BF20F8022B11F0804F18BF00F8BB
:1003A000012B7047704770477047754600F02CF876
:1003B000AE4605006946534620F00700854618B052
:1003C00020B5FFF73FFFBDE820404FF000064FF09B
:1003D00000074FF000084FF0000B21F00701AC467A
:1003E000ACE8C009ACE8C009ACE8C009ACE8C00999
:1003F0008D46704710B50446AFF300802046BDE837
:100400001040FFF70ABF0000004870470C010020B1
:1004100001491820ABBEFEE7260002007047FEE748
:100420007047000070B5044600F01EF90546601CD8
:1004300002D004480078044400F016F9401BA042A2
:10044000FAD370BD280000202DE9F04FDFF80092AC
:10045000002301260325A9F1040B85B00F2709F11C
:10046000040AABF1040EEAE006FA03F422407CD061
:1004700091F804C00CF0030CBCF1010F02D0BCF1E8
:10048000020F26D1D0F808C0CDF800C04FEA430CC7
:1004900005FA0CF8CDF810C0DDF800C02CEA080C05
:1004A000CDF800C0D1F80C80DDF810C008FA0CF8C7
:1004B000DDF800C048EA0C08C0F80880D0F804C095
:1004C0002CEA040C0C79C4F300149C4044EA0C049C
:1004D00044600C79E443A4070DD0D0F80CC04FEA77
:1004E000430805FA08F42CEA040C8C6804FA08F4B2
:1004F00044EA0C04C4600C7904F00304022C19D102
:10050000DC0800EB84040294246A4FEA437C4FEA3F
:10051000DC6CCDF810C007FA0CFC24EA0C04D1F80E
:100520001080DDF810C008FA0CF848EA0408029CB4
:10053000C4F8208004684FEA430805FA08FC24EA5E
:100540000C0491F804C00CF0030C0CFA08FC4CEA03
:10055000040CC0F800C04C6814F4403F6ED03D4C11
:10056000D4F818C04CF0010C00E067E0C4F818C0E3
:10057000A46923F0030C04F001040094364C644495
:100580000294A4684FEA837C4FEA1C7807FA08FCBF
:1005900024EA0C04B0F1904F06D0DFF8C0C06045EB
:1005A00005D14FF0010C12E04FF0000C0FE0DFF826
:1005B000B0C0604502D14FF0020C08E0DFF8A4C0E3
:1005C000604502D14FF0030C01E04FF0050C0CFA2E
:1005D00008FC4CEA040C029CC4F808C0D9F800409E
:1005E000CC46D1F8048094435FEAC82800D5144370
:1005F000CCF80040DAF80040D446D1F804809443A7
:100600005FEA882800D51443CCF80040DBF80040AE
:10061000DC46D1F8048094435FEA883800D514435F
:10062000CCF80040DEF80040F446D1F80480944352
:100630005FEAC83800D51443CCF800405B1C0A6858
:1006400032FA03F47FF410AF05B0BDE8F08F00007C
:10065000080401400010024000000140000400486E
:1006600000080048000C00480148806870470000FE
:100670002800002002488168027811448160704798
:1006800028000020074810B5016841F01001016002
:10069000032000F05FF8002000F006F800F024F8D6
:1006A000002010BD0020024070B50D4D04464FF4EF
:1006B0007A712878B1FBF0F00A490968B1FBF0F0D3
:1006C00000F002FD48B9102C07D200222146501E2E
:1006D00000F020F800206C6070BD012070BD0000AB
:1006E0002800002034000020094808B5816941F045
:1006F00001018161816901F001010091C16941F04D
:100700008051C161C06900F08050009008BD0000B8
:1007100000100240F0B40E4B1B680C46C3F30223DA
:10072000C3F10705042D00D90425191D072901D29D
:10073000002300E0DB1E012606FA05F1491E2140D8
:1007400099409E40761E16403143F0BC01F093BCA8
:100750000CED00E0064900F0070208684FF6FF03C1
:10076000184040EA0220034A104308607047000026
:100770000CED00E00000FA052DE9F84F0446006892
:100780000026574DC0036ED5E869C00008D4E8695B
:1007900040F08050E861E869012600F08050009048
:1007A00050480168C90512D40168804641F480713F
:1007B0000160FFF759FF074605E000BFFFF754FF50
:1007C000C01B642835D8D8F80000C005F6D5286AC3
:1007D00010F4407053D0A18801F4407181424ED092
:1007E000286A4FF4803191FAA1F2B2FA82F29700AE
:1007F0003D4A4FF00108174420F44070C7F80084C8
:1008000091FAA1F1B1FA81F102EB81010023C1F863
:1008100000342862C00732D0FFF726FF074641F2B6
:10082000883A4FF0020907E0FFF71EFFC11B514550
:1008300002D90320BDE8F88F99FAA9F1B1FA81F144
:1008400041F040014846B8EB511F01D129680CE046
:1008500090FAA0F1B1FA81F141F04001B0EB511FE3
:1008600002D1296A01E015E0696A99FAA9F0B0FAA3
:1008700080F000F01F0008FA00F21142D4D0286A7C
:10088000616820F44070084328621EB1E86920F0D6
:100890008050E8612078C00705D0286BA16820F05F
:1008A0000300084328632078800605D5286BE1689B
:1008B00020F01000084328632078000605D5E86A78
:1008C000216920F4F8700843E8622088C00405D547
:1008D000286B616920F48070084328630020A9E731
:1008E0000010024000700040000042422DE9F04735
:1008F0000F46050069D04A4E306800F00700B84244
:1009000009D2306820F0070038433060306800F0CA
:100910000700B84259D12878424C800705D5606855
:10092000A96820F0F000084360602878C0073DD037
:100930006968012001290DD0022923D05FF002034C
:1009400093FAA3F2B2FA82F242F02002520904D0E2
:10095000226803E04FF40033F2E7626A93FAA3F3EC
:10096000B3FA83F303F01F03984002422DD060686E
:1009700020F0030008436060FFF776FE804641F2F6
:1009800088390CE04FF00073DAE700BFFFF76CFE28
:10099000A0EB0801494502D90320BDE8F087606853
:1009A000696800F00C00B0EB810FEFD1306800F007
:1009B0000700B8420BD9306820F007003843306098
:1009C000306800F00700B84201D00120E5E7287840
:1009D000400705D56068E96820F4E060084360607E
:1009E0002878000706D56068296920F4605040EA3D
:1009F000C100606000F04EF86168F02292FAA2F245
:100A000001F0F001B2FA82F2D140074A515CC840CD
:100A10000649086006480068FFF746FE0020BCE76C
:100A200000200240001002406A210008340000202B
:100A30002C00002008480949006849684FF4E0622A
:100A400092FAA2F201F4E061B2FA82F2D140044AD1
:100A5000515CC84070470000340000200010024084
:100A60007A21000808480949006849684FF4605233
:100A700092FAA2F201F46051B2FA82F2D140044A31
:100A8000515CC84070470000340000200010024054
:100A90007A210008164A10B55168164801F00C0377
:100AA000042B20D0082B1ED14FF4701494FAA4F418
:100AB00001F47013B4FA84F4E3400F4CD26AE45C9E
:100AC0000F2393FAA3F302F00F02B3FA83F3DA4091
:100AD000094B1033C9039A5C06D500231946FFF76A
:100AE000C3FBA0FB040110BD0448A4FB000110BD22
:100AF0000010024000127A004A21000800093D005F
:100B00002DE9F84F050071D02878FC4EC0074FF052
:100B1000010425D070686704C0F38100012807D064
:100B20007068C0F3810002281BD17068C00318D51B
:100B300097FAA7F0B0FA80F040F02000400901D009
:100B4000306800E0706A97FAA7F1B1FA81F101F01C
:100B50001F0104FA01F1084265D068680028D2D06C
:100B600061E06868B0F5803F0BD010B1B0F5A02F00
:100B700017D0306820F480303060306820F4802056
:100B800002E0306840F480303060F06AA96820F0FC
:100B90000F000843F062686820B3FFF765FD8046E8
:100BA0000AE0306840F480203060EAE7FFF75CFD3F
:100BB000A0EB0800642871D897FAA7F0B0FA80F08B
:100BC00040F02000400901D0306800E0706A97FAD8
:100BD000A7F1B1FA81F101F01F0104FA01F1084215
:100BE000E4D020E0FFF740FD804607E0C2E000BF10
:100BF000FFF73AFDA0EB08006428DCD897FAA7F0CD
:100C0000B0FA80F040F02000400901D0306800E0E8
:100C1000706A97FAA7F1B1FA81F101F01F0104FAA5
:100C200001F10842E4D12878DFF8D48280074FF040
:100C3000000A4FF0020730D570684FF0F80B10F043
:100C40000C0F07D07068C0F38100022827D17068AC
:100C5000C00324D497FAA7F0B0FA80F040F0200047
:100C6000400901D0306800E0706A97FAA7F1B1FA44
:100C700081F101F01F0104FA01F1084202D0286954
:100C8000012877D130689BFAABF220F0F80168694F
:100C9000B2FA82F29040014331605AE064E128697F
:100CA00088B394FAA4F0B0FA80F048F82040FFF737
:100CB000DBFC814606E000BFFFF7D6FCA0EB090095
:100CC00002289AD897FAA7F0B0FA80F040F02000F6
:100CD000400901D0306800E0706A97FAA7F1B1FAD4
:100CE00081F101F01F0104FA01F10842E4D03068FB
:100CF0009BFAABF26969B2FA82F220F0F8009140F7
:100D00000843306025E0FFE794FAA4F0B0FA80F0E1
:100D100048F820A0FFF7A8FC814605E0FFF7A4FCF7
:100D2000A0EB09000228CCD897FAA7F0B0FA80F01F
:100D300040F02000400901D0306800E0706A97FA66
:100D4000A7F1B1FA81F101F01F0104FA01F10842A3
:100D5000E4D1287800076CD5A869A8B394FAA4F068
:100D6000B0FA80F008EB8000C0F88044FFF77CFC0C
:100D7000814607E0A4E100BFFFF776FCA0EB090085
:100D800002289ED897FAA7F0B0FA80F040F06000F1
:100D9000B4EB501F01D130680BE097FAA7F0B0FA1E
:100DA00080F040F06000B7EB501F01D1306A00E0E6
:100DB000706A97FAA7F1B1FA81F101F01F0104FA04
:100DC00001F21042D8D034E0FFE794FAA4F1B1FA6E
:100DD00081F108EB8101C1F880A4FFF745FC814651
:100DE00006E000BFFFF740FCA0EB090002289AD8FC
:100DF00097FAA7F0B0FA80F040F06000B4EB501F13
:100E000001D130680BE097FAA7F0B0FA80F040F01B
:100E10006000B7EB501F01D1306A00E0706A97FAAA
:100E2000A7F1B1FA81F101F01F0104FA01F21042B9
:100E3000D8D12878400768D5F0694FF00009C00084
:100E400009D4F06940F08050F061F0694FF0010979
:100E500000F0805000902B480168C90512D4016849
:100E600041F480710160FFF7FFFB834606E000BF9D
:100E7000FFF7FAFBA0EB0B00642875D82148006847
:100E8000C005F5D5E86801280AD008B1052811D0B9
:100E9000306A20F001003062306A20F0040002E085
:100EA000306A40F001003062E86868B3FFF7DCFBAD
:100EB00083460DE0306A40F004003062F0E700BF86
:100EC000FFF7D2FBA0EB0B0141F2883081424BD8F7
:100ED00097FAA7F0B0FA80F040F04000B4EB501F52
:100EE00001D1306813E097FAA7F0B0FA80F040F033
:100EF0004000B7EB501F09D1306A08E000100240F3
:100F000000004242007000400CE040E0706A97FA36
:100F1000A7F1B1FA81F101F01F0104FA01F21042C8
:100F2000CED02DE0FFF7A0FB834607E0FFF79CFB48
:100F3000A0EB0B0141F28830814215D897FAA7F057
:100F4000B0FA80F040F04000B4EB501F01D130689F
:100F50000CE097FAA7F0B0FA80F040F04000B7EB51
:100F6000501F02D1306A01E083E0706A97FAA7F15E
:100F7000B1FA81F101F01F0104FA01F21042D5D15A
:100F8000B9F1000F03D0F06920F08050F061E869FA
:100F900080B37168C1F38101022977D04FF080716D
:100FA0004F000228504609D091FAA1F1B1FA81F11F
:100FB00048F82100FFF758FB05465DE0894691FAA5
:100FC000A1F1B1FA81F1C24648F82100FFF74CFBCC
:100FD000804605E0FFF748FBA0EB0800022848D850
:100FE00097FAA7F0B0FA80F040F02000400902D054
:100FF000306801E066E0706A97FAA7F1B1FA81F112
:1010000001F01F0104FA01F10842E3D1D5E908100B
:101010000843716821F474110843706099FAA9F0CB
:10102000B0FA80F04AF82040FFF71EFB054604E0C6
:10103000FFF71AFB401B02281BD897FAA7F0B0FA5B
:1010400080F040F02000400901D0306800E0706A74
:1010500097FAA7F1B1FA81F101F01F0104FA01F149
:101060000842E5D02EE000BFFFF7FEFA401B022841
:1010700002D90320BDE8F88F97FAA7F0B0FA80F004
:1010800040F02000400902D0306801E00BE0706AB7
:1010900097FAA7F1B1FA81F101F01F0104FA01F109
:1010A0000842E1D10EE00128E4D070682A6A00F419
:1010B0008031914204D1696A00F47010884201D0F5
:1010C0000120D7E70020D5E710B5401EB0F1807FA2
:1010D00001D3012010BD4FF0E02460610F216017A3
:1010E00000F0C9FF0020A06107202061002010BD92
:1010F00030B590F83C20012A37D0012280F83C20FE
:10110000CA688C6822F4407222434C6822F48062E0
:1011100022430C6822F4006222430C6922F48052BC
:1011200022434C6922F4005222438C6A22F480420A
:1011300022430C8B22F4702242EA04420C4D0468D4
:101140000023AC420CD18D8C22F4700242EA05528D
:10115000CD6922F080722A43096A22F000720A43A4
:10116000626480F83C30002030BD022030BD0000B9
:10117000002C0140F0B590F83C20012A2CD001242D
:1011800080F83C40022280F83D2003685A689D6840
:10119000124EB34203D122F470074A683A4322F058
:1011A00070070A683A435A600268B24208D0B2F146
:1011B000804F05D00A4B9A4202D00A4B9A4204D182
:1011C000896825F080031943916080F83D40002133
:1011D00080F83C100846F0BD0220F0BD002C014014
:1011E000000400400040014010B5040003D094F812
:1011F0003D0010B107E0012010BD002084F83C0044
:10120000204600F023F8022084F83D00211D2068CC
:1012100000F084FB012084F8480084F83E0084F844
:101220003F0084F8400084F8410084F8420084F8CC
:10123000430084F8440084F8450084F8460084F8AC
:10124000470084F83D00002010BD000008B500688C
:101250000649884208D10648816941F400618161EC
:10126000806900F40060009008BD0000002C01407F
:101270000010024070B5044690F83C00002501289B
:1012800017D0012684F83C60022084F83D002268D3
:1012900090682F4B184020F47F40906008685028D9
:1012A00038D00DDC20284FD005DC90B3102811D1A8
:1012B0004AE0022070BD302846D040280AD13BE0E9
:1012C00060282FD070280DD0B0F5805F03D0B0F526
:1012D000005F12D0012584F83D60002084F83C00B6
:1012E000284670BDCB68D1E90121206800F067FB7A
:1012F0002068816841F0770109E0CB68D1E90121DC
:10130000206800F05CFB2068816841F480418160C6
:10131000E1E719E0CA684968206800F0C3FC502181
:10132000206806E0CA684968206800F0CCFC6021AB
:10133000206800F04EFBCEE7CA684968206800F0DC
:10134000B1FC40212068F4E7226801461046F0E72E
:1013500088FFFEFF10B586B0044614216846FEF7EC
:10136000FAFF0F492068884217D10E48416941F4BD
:10137000003141614069694600F4003005904FF446
:1013800080700090022001900020029003900620BF
:1013900004904FF09040FFF757F806B010BD0000E2
:1013A000002C01400010024070B5044690F83C004B
:1013B00000260D4601280BD0012084F83C000C2AA1
:1013C0004AD007DC82B1042A20D0082A06D131E0B5
:1013D000022070BD102A53D0142A63D001260020A9
:1013E00084F83C00304670BD206800F0FBFA2068AD
:1013F000816941F0080181612068816921F004015F
:101400008161206881692A69114311E0206800F038
:101410002DFB2068816941F4006181612068816948
:1014200021F480618161206881692A6941EA022191
:101430008161D4E7206800F059FB2068C16941F060
:101440000801C1612068C16921F00401C1612068FF
:10145000C1692A69114311E0206800F087FB206808
:10146000C16941F40061C1612068C16921F48061F2
:10147000C1612068C1692A6941EA0221C161AEE700
:10148000206800F0A9FB2068416D41F0080141652A
:101490002068416D21F0040141652068416D2A6991
:1014A000114311E0206800F0C9FB2068416D41F450
:1014B000006141652068416D21F4806141652068CB
:1014C000416D2A6941EA0221416588E710B50400AF
:1014D00003D094F83D0010B107E0012010BD0020BA
:1014E00084F83C00204600F022F8022084F83D00F9
:1014F000211D206800F012FA012084F8480084F8C9
:101500003E0084F83F0084F8400084F8410084F8ED
:10151000420084F8430084F8440084F8450084F8CD
:10152000460084F8470084F83D00002010BD704755
:1015300010B50446022269B1042912D0082917D037
:101540000C291CD0102921D094F84300012824D064
:10155000012010BD94F83E000128F9D184F83E2006
:101560001DE094F83F000128F2D184F83F2016E0F6
:1015700094F840000128EBD184F840200FE094F863
:1015800041000128E4D184F8412008E094F84200A9
:101590000128DDD184F8422001E084F843200122B3
:1015A000206800F0FFF915492068154A884207D0E5
:1015B000904205D0134B984202D0134B984203D16E
:1015C000436C43F4004343642068884207D0B0F181
:1015D000804F04D00D49884201D0904207D18168E4
:1015E0000B4A1140062906D0B1F5803F03D00168AF
:1015F00041F001010160002010BD0000002C0140FD
:101600000040014000440140004801400004004007
:101610000700010030B504460D460068002200F0C6
:10162000C1F9214B41F2111120688A10984208D06B
:101630001E4B984205D01E4B984202D01D4B98423B
:1016400009D1036A0B4206D1036A134203D1436CEA
:1016500023F4004343642068036A0B4206D1016A05
:10166000114203D1016821F00101016001205DB147
:10167000042D0CD0082D0DD00C2D0ED0102D0FD018
:1016800084F84300002030BD84F83E00FAE784F877
:101690003F00F7E784F84000F4E784F84100F1E701
:1016A00084F84200EEE70000002C014000400140B9
:1016B000004401400048014010B5040002D0E06F32
:1016C00010B107E0012010BD002084F8780020460A
:1016D00000F026F82420E0672068016821F001016D
:1016E0000160204600F0E0FB0128ECD0606A10B1F8
:1016F000204600F0FAFA2068416821F490414160E8
:101700002068816821F02A0181602068016841F029
:10171000010101602046BDE8104000F04ABB000016
:1017200010B586B0044614216846FEF714FE13492E
:101730002068884220D11248C16941F40031C1615A
:10174000C16901F400310591416941F40031416101
:101750004069694600F40030059048F204000090AA
:1017600002200190002002900320039007200490A3
:101770004FF09040FEF768FE06B010BD00440040F8
:1017800000100240FEE7000010B59AB00024179444
:10179000189415941694129413941C210BA8149465
:1017A000FEF7D9FD2C216846FEF7D5FD2A482949C8
:1017B00001600721C0E901146321C0E903144461F9
:1017C0008461FFF711FD08B172B6FEE74FF4805057
:1017D000159015A92048FFF74DFD08B172B6FEE738
:1017E0001D48FFF773FE08B172B6FEE7129413941A
:1017F00012A919481494FFF7BDFC08B172B6FEE7B0
:101800006020CDE90B040D940E940F9410940022E7
:101810000BA911481194FFF7C7FD08B172B6FEE796
:1018200000944FF40050CDE90440019402940394D5
:1018300000030694CDE907400994694606480A94D6
:10184000FFF756FC08B172B6FEE70348FFF782FDCA
:101850001AB010BD002C0140380000200C4810B513
:101860000A4901604FF416414160002181600C2259
:10187000C160C0E904128161C16101624162FFF788
:101880001BFF002801D072B6FEE710BD00440040E7
:1018900084000020FEE7FEE770477047FEF7EABECF
:1018A00010B596B028216846FEF755FD14210AA808
:1018B000FEF751FD18210FA8FEF74DFD0220009004
:1018C0000120049010200024059007946846FFF73B
:1018D00017F908B172B6FEE70F20CDE90A040C949F
:1018E0000D9400210AA80E94FFF700F808B172B613
:1018F000FEE74FF4805014940F900FA8FEF73CFFC2
:10190000002801D072B6FEE716B010BD024801688B
:1019100041F470010160704788ED00E0F0B50268A5
:101920001B4B1C4F4FF0804C984203D0604501D0B8
:10193000B84203D122F070044A682243164C174D76
:10194000174E984209D0604507D0B84205D0A04252
:1019500003D0A84201D0B04203D122F44077CA6834
:101960003A434F6922F080023A4302608A68C262B9
:101970000A688262984205D0A04203D0A84201D0F2
:10198000B04201D10969016301214161F0BD00004C
:10199000002C014000040040004001400044014090
:1019A0000048014010B501F01F030121046A99406D
:1019B0008C430462016A9A401143016210BD10B564
:1019C000846842EA032224F47F440A43224382606B
:1019D00010BD826822F070020A4342F00701816064
:1019E00070470000F0B5026A22F001020262056A47
:1019F00043688269184C25F0020522400C6822F0E9
:101A0000030214438A68164E2A43144D154FDFF81B
:101A100058C0A84205D0B04203D0B84201D06045BA
:101A200006D122F0080ECA6842EA0E0222F0040231
:101A3000A84205D0B04203D0B84201D0604505D1DC
:101A40004D6923F440731D438B692B4343608461CC
:101A5000496841630262F0BD8FFFFEFF002C014028
:101A600000400140004401400048014030B5026A96
:101A700022F010020262046A42688369164D2B400C
:101A80000D6823F4407343EA052524F020038C6895
:101A900043EA0413114CA04207D1CC6823F0800321
:101AA00043EA041323F0400308E00D4CA04205D0A4
:101AB0000C4CA04202D00C4CA04207D14C6922F43D
:101AC000406242EA84028C6942EA84024260856193
:101AD00049688163036230BDFF8FFFFE002C014027
:101AE00000400140004401400048014030B5026A16
:101AF00022F480720262046A4268C369164D2B4068
:101B00000D6823F003031D4324F400738C6843EA3B
:101B10000423124CA04207D1CC6823F4006343EAAB
:101B2000042323F4806308E00D4CA04205D00D4C43
:101B3000A04202D00C4CA04207D14C6922F4405282
:101B400042EA04128C6942EA04124260C5614968A3
:101B5000C163036230BD00008FFFFEFF002C014017
:101B600000400140004401400048014030B5026A95
:101B700022F480520262046A4268C369114D24F45F
:101B800000542B400D6823F4407343EA05238D680D
:101B900044EA05340C4DA84208D00C4DA84205D0AB
:101BA0000B4DA84202D00B4DA84204D14D6922F43E
:101BB000804242EA85124260C3614968016404625E
:101BC00030BD0000FF8FFFFE002C014000400140AF
:101BD000004401400048014030B5026A22F48032DE
:101BE0000262046A4268436D0F4D2B400D681D432D
:101BF00024F400330C8943EA04430C4CA04208D07F
:101C00000B4CA04205D00B4CA04202D00A4CA04283
:101C100004D14C6922F4803242EA042242604565D4
:101C200049688165036230BD8FFFFEFF002C0140D3
:101C300000400140004401400048014030B5026AC4
:101C400022F480120262046A4268436D104D24F44B
:101C500000142B400D6843EA05230D8944EA05541E
:101C60000C4DA84208D00C4DA84205D00B4DA842FF
:101C700002D00B4DA84204D14D6922F4802242EAE1
:101C80008522426043654968C165046230BD000039
:101C9000FF8FFFFE002C0140004001400044014046
:101CA0000048014010B5036A046A24F0010404628C
:101CB000846924F0F00444EA021423F00A020A437F
:101CC0008461026210BD10B5036A23F01003036241
:101CD0008369046A23F4704343EA023224F0A003C8
:101CE00043EA01118261016210BD90F82410C90716
:101CF00006D001684A68836A22F400321A434A60B7
:101D000090F82410890706D501684A68C36A22F44E
:101D100080321A434A6090F82410490706D50168BA
:101D20004A68036B22F480221A434A6090F8241018
:101D3000090706D501684A68436B22F400421A433A
:101D40004A6090F82410C90606D501688A68836B3A
:101D500022F480521A438A6090F82410890606D52E
:101D600001688A68C36B22F400521A438A6090F8B3
:101D70002410490611D501684A68036C22F48012C8
:101D80001A434A60016CB1F5801F06D101684A68A8
:101D9000436C22F4C0021A434A6090F824100906EA
:101DA00006D501684A68806C22F4002202434A602A
:101DB00070472DE9F84300260446C0F88460FEF71A
:101DC00053FC8046206800684FF0200500076FF044
:101DD0007E4712D54346002229042046009700F092
:101DE00003F950B1216851E8000F20F0800041E86C
:101DF0000002002AF6D1E56721E02068006840076C
:101E000022D5434600224FF480012046009700F07F
:101E1000EBF8C8B1216851E8000F20F4907041E858
:101E20000002002AF6D12068083050E8001F21F097
:101E3000010140E80012002AF5D1C4F8805084F86E
:101E400078600320BDE8F883E567C4F8805044F863
:101E5000606F666026760020F4E7016851E8002F85
:101E600022F4907241E80023002BF6D1016808317A
:101E700051E8002F22F0010241E80023002BF5D1A8
:101E8000016E012908D1026852E8001F21F01001FB
:101E900042E80013002BF6D12021C0F88010002169
:101EA000016681667047000070B50446806821694C
:101EB000E2690843616900251143226808431168FB
:101EC000434B19400143116020684168E26821F4E6
:101ED000405111434160A169206A084321688A6822
:101EE00022F4306202438A603A492068884210D165
:101EF0003948006B10F0030011D0012805D00228EA
:101F000005D003280DD102210CE004210AE00821AC
:101F100008E03249884202D03149884201D100218B
:101F200000E01021E3694FF400402E4A4FF6EF76AF
:101F3000834226D1092941D2DFE801F005080B4090
:101F40000D4040401000FEF775FD06E0FEF78AFDEB
:101F500003E0104602E0FEF79DFD80B3410060689B
:101F600001EB5001B1FBF0F0A0F11001B14225D816
:101F70004FF6F0710140C0F3420001432068C16098
:101F800021E009291AD2DFE801F005080B190D1923
:101F900019191000FEF74EFD06E0FEF763FD03E0A1
:101FA000104602E0FEF776FD48B1616800EB510093
:101FB000B0FBF1F0A0F11001B14201D9012502E01E
:101FC000216880B2C8600020A066E066284670BD27
:101FD000F369FFEF00380140001002400044004068
:101FE0000048004000127A002DE9F0479946174654
:101FF0000E4604464FF00008089D2FE0681C2DD0C7
:10200000FEF732FBA0EB0900A84214D89DB120686E
:102010000168490722D5C169C94309070DD40825BC
:1020200005622046FFF719FFC4F8845084F87880D1
:102030000120BDE8F0870320FBE7C069C04300052D
:102040000CD421684FF4006008622046FFF705FFBA
:102050002020C4F8840084F87880ECE72068C06908
:1020600036EA000004D00020B842C7D00020E0E7E4
:102070000120F9E7FEE70907090E002804DB00F15B
:10208000E02080F80014704700F00F0000F1E0201D
:1020900080F8141D7047000008B5FEF7F3FAFFF74B
:1020A000FFFB2348416941F480014161416901F42A
:1020B00080010091416941F400314161406900F4BF
:1020C00000300090FFF7CAFBFFF75EFB00211948C4
:1020D000FFF72EFA174D322628684663164FDFF8B1
:1020E0005C90A7F10E084FF4FA7A00240021114801
:1020F000FFF71EFA28684663395D38F81100296831
:10210000CA6A521C5043D9F80020B2FBF0F0401EBE
:1021100088625046FEF786F900210648FFF77AFAF2
:102120006420FEF77FF9641C182CDFDBDDE700007C
:1021300000100240380000200E0000203400002073
:102140004FF04070E1EE100A7047020304050607E5
:1021500008090A0B0C0D0E0F1010010203040506EE
:102160000708090A0B0C0D0E0F10000000000000FC
:102170000000010203040607080900000000010234
:1021800003040000A4210008000000203800000023
:10219000C4010008DC2100083800002038070000D6
:1021A000E0010008060126014A015D018801B8012D
:1021B000EE01000001000302000001000403000022
:1021C00000050302040401000302000001000000F6
:0C21D000100000000000000000127A0067
:040000050800018965
:00000001FF
