:020000040800F2
:10000000C007002031020008FB2900080B2000086F
:10001000F92900081F060008692E000800000000EA
:10002000000000000000000000000000FF290008A0
:100030002106000800000000FD290008012A000830
:100040004B0200084B0200084B0200084B0200085C
:100050004B0200084B0200084B0200084B0200084C
:100060004B0200084B0200084B0200084B0200083C
:100070004B0200084B0200084B0200084B0200082C
:100080004B0200084B0200084B0200084B0200081C
:100090004B0200084B0200084B0200084B0200080C
:1000A0004B0200084B0200084B0200084B020008FC
:1000B0004B0200084B020008000000001920000855
:1000C0000D20000800000000000000004B020008A6
:1000D000000000004B0200081D2E00084B02000823
:1000E0004B0200084B020008000000000000000066
:1000F0000000000000000000000000000000000000
:1001000000000000000000000000000000000000EF
:1001100000000000000000004B0200084B02000835
:1001200000000000000000000000000000000000CF
:1001300000000000000000000000000000000000BF
:100140004B0200084B020008000000000000000005
:10015000000000000000000000000000000000009F
:10016000000000000000000000000000000000008F
:10017000000000000000000000000000000000007F
:10018000000000004B02000800F002F800F041F807
:100190000AA090E8000C82448344AAF10107DA45E2
:1001A00001D100F036F8AFF2090EBAE80F0013F0F3
:1001B000010F18BFFB1A43F001031847C4300000B9
:1001C000E4300000103A24BF78C878C1FAD852074A
:1001D00024BF30C830C144BF04680C6070470000C1
:1001E0000023002400250026103A28BF78C1FBD840
:1001F000520728BF30C148BF0B607047642900F028
:10020000F780002070471FB503F018F81FBD10B528
:1002100010BD00F0CAF91146FFF7F5FF02F036FEF7
:1002200000F0E8F903B4FFF7F2FF03BC00F0F0F9C7
:100230000948804709480047FEE7FEE7FEE7FEE77A
:10024000FEE7FEE7FEE7FEE7FEE7FEE704480549B6
:10025000054A064B70470000712A00088901000812
:10026000C0010020C0070020C0030020C003002000
:1002700053EA020C00F069802DE9F04B4FF00006C4
:10028000002B1FBFB3FA83F503FA05F424FA05F631
:100290005E4012BF1643B2FA82F502FA05F4C5F1C8
:1002A00020051EBF22FA05FC44EA0C04203556EA5C
:1002B000044C4FEA144418BF641C4FF000084FF080
:1002C0000009904271EB030C39D3002919BFB1FA30
:1002D00081F701FA07F6B0FA80F700FA07F6C7F1DE
:1002E00020071EBF20FA07FC46EA0C062037B6FBA3
:1002F000F4FCA7EB0507103F07F01F0BCBF120061E
:100300000CFA0BFB2CFA06F644BFB3460026202F4E
:10031000A4BF5E464FF0000B5BEA060C08BF4FF02F
:10032000010B19EB0B09ABFB027C48EB0608C01B69
:1003300006FB02CC0BFB03CC71EB0C01C1E70B46B7
:10034000024641464846BDE8F08B13B54FF0000029
:100350004FF00001AFF30080BDE81C407047000083
:100360000FB41CB5074B06AA7B446946009005985C
:1003700000F003F90020694600F012F91CBC5DF89A
:1003800014FB0000350200002DE9F0410E46044642
:10039000002020622046E168884730B3252805D038
:1003A000D4E901219047206A401CF2E7E168204629
:1003B00000278847050018D0A5F14100192802D868
:1003C00020354FF400673246294620462760FFF764
:1003D00015FF40B1012804D0F61D26F007060836A7
:1003E000D8E7361DD6E72846DAE7206ABDE8F0816F
:1003F0002DE9F0410646002410687529314616A5FE
:1004000010D0AFF30080002802DA404213A507E0C5
:1004100031688A0701D512A502E0490704D511A564
:10042000012401E0AFF3008000210A2206F1240735
:1004300009E0B0FBF2FCB0FBF2F302FB1C00303031
:1004400078541846491C0028F3D123462A463046E2
:10045000BDE8F04100F032B8000000002D000000BF
:100460002B000000200000004FF0000200B51346F2
:1004700094469646203922BFA0E80C50A0E80C50C4
:10048000B1F12001BFF4F7AF090728BFA0E80C5075
:1004900048BF0CC05DF804EB890028BF40F8042B6E
:1004A00008BF704748BF20F8022B11F0804F18BFDB
:1004B00000F8012B70477047704770472DE9F047EF
:1004C0000D4699469246044600F1240801688806C4
:1004D00004D5E06921F01001216000E00120A8426C
:1004E00001DD471B00E00027A1697A1902EB090032
:1004F000081AA0612078C00602D42046AFF300801D
:10050000002608E0D4E901211AF806009047206A85
:10051000401C761C20624E45F4DB2078C0060AD5CC
:100520002046AFF3008006E0D4E901213020904757
:10053000206A401C2062381EA7F10107F4DC07E0A6
:10054000D4E9012118F805009047206A401C206278
:10055000281EA5F10105F3DC2046AFF300802078CA
:10056000000602D50220BDE8F0870120FBE700006D
:1005700001694A1C02610878704700B58FB0CDE967
:1005800001310021059105497944CDE90310114657
:100590006846FFF7F9FE0FB000BD0000E5FFFFFF62
:1005A0000A6802F8010B0A607047754600F02CF8E3
:1005B000AE4605006946534620F00700854618B050
:1005C00020B5FFF743FEBDE820404FF000064FF096
:1005D00000074FF000084FF0000B21F00701AC4678
:1005E000ACE8C009ACE8C009ACE8C009ACE8C00997
:1005F0008D46704710B50446AFF300802046BDE835
:100600001040FFF70FBE0000004870475C0100205B
:1006100001491820ABBEFEE7260002007047FEE746
:10062000704710B590F821100022022905D004214E
:10063000816380F82020012010BD01680B6823F041
:100640000E030B6001680B6823F001030B6090F848
:100650004030C46B012101FA03F3636080F821107C
:1006600080F82020002010BD10B590F82110002443
:10067000022903D004218163012418E001680A687B
:1006800022F00E020A6001680A6822F001020A6084
:1006900090F84020C36B012101FA02F25A6080F801
:1006A0002110002180F82010416B01B188472046BD
:1006B00010BD90F82100704770B5044600F02CF989
:1006C0000546601C02D004480078044400F024F978
:1006D000401BA042FAD370BD0C0000202DE9F04F62
:1006E000DFF80092002301260325A9F1040B85B051
:1006F0000F2709F1040AABF1040EEAE006FA03F44D
:1007000022407CD091F804C00CF0030CBCF1010F26
:1007100002D0BCF1020F26D1D0F808C0CDF800C03D
:100720004FEA430C05FA0CF8CDF810C0DDF800C014
:100730002CEA080CCDF800C0D1F80C80DDF810C010
:1007400008FA0CF8DDF800C048EA0C08C0F8088088
:10075000D0F804C02CEA040C0C79C4F300149C40BB
:1007600044EA0C0444600C79E443A4070DD0D0F8AB
:100770000CC04FEA430805FA08F42CEA040C8C6814
:1007800004FA08F444EA0C04C4600C7904F003048D
:10079000022C19D1DC0800EB84040294246A4FEA8D
:1007A000437C4FEADC6CCDF810C007FA0CFC24EA5D
:1007B0000C04D1F81080DDF810C008FA0CF848EAF3
:1007C0000408029CC4F8208004684FEA430805FA34
:1007D00008FC24EA0C0491F804C00CF0030C0CFA99
:1007E00008FC4CEA040CC0F800C04C6814F4403F0C
:1007F0006ED03D4CD4F818C04CF0010C00E067E01E
:10080000C4F818C0A46923F0030C04F00104009498
:10081000364C64440294A4684FEA837C4FEA1C7807
:1008200007FA08FC24EA0C04B0F1904F06D0DFF878
:10083000C0C0604505D14FF0010C12E04FF0000C34
:100840000FE0DFF8B0C0604502D14FF0020C08E0C5
:10085000DFF8A4C0604502D14FF0030C01E04FF077
:10086000050C0CFA08FC4CEA040C029CC4F808C005
:10087000D9F80040CC46D1F8048094435FEAC828F8
:1008800000D51443CCF80040DAF80040D446D1F843
:10089000048094435FEA882800D51443CCF80040D4
:1008A000DBF80040DC46D1F8048094435FEA8838E6
:1008B00000D51443CCF80040DEF80040F446D1F8EF
:1008C000048094435FEAC83800D51443CCF8004054
:1008D0005B1C0A6832FA03F47FF410AF05B0BDE880
:1008E000F08F0000080401400010024000000140A9
:1008F0000004004800080048000C0048426921EA52
:1009000002030A4043EA0241816170470AB18161F2
:10091000704781627047000001488068704700009E
:100920000C00002090F84120202A24D190F840208B
:10093000012A20D0012280F84020242280F8412082
:100940000268136823F0010313600268136823F43C
:1009500080531360026813680B43136001680A68D0
:1009600042F001020A60202180F84110002180F845
:100970004010084670470220704790F84120202A16
:1009800022D190F84020012A1ED0012280F8402078
:10099000242280F841200268136823F001031360C9
:1009A0000268136823F4706343EA0121116001684F
:1009B0000A6842F001020A60202180F841100021FB
:1009C00080F8401008467047022070477047704713
:1009D00030B403689A691968D243D40509D4CC436A
:1009E000240606D4446C44F0010444644FF480743B
:1009F000DC6153050AD4CB431B0607D4436C43F098
:100A00000803436404684FF48063E36192050AD4E9
:100A1000C943090607D4416C41F0020141640268F0
:100A20004FF40071D161416C11F00B0F02D030BC5A
:100A300001F088BB30BC7047026891691268436B53
:100A4000002B00D0184770477047000070B50400B5
:100A500004D094F84100002510B106E0012070BDDB
:100A600084F84050204600F009FA242084F8410020
:100A70002068016821F0010101606068216820F0B0
:100A8000706008612068816821F400418160E0683D
:100A90000128A06807D040F4044021688860E0681D
:100AA000022803D006E040F40040F6E721684FF446
:100AB0000060486020684168114A11434160206825
:100AC000C16821F40041C160D4E904010843A1696F
:100AD00040EA01202168C860D4E907010843216881
:100AE00008602068016841F0010101606564202010
:100AF00084F84100256384F84250002070BD000056
:100B0000008000022DE9FC4700250446019590F87D
:100B100041001E469246894620287ED12068806981
:100B2000C043000479D594F84000012875D0012015
:100B300084F84000242084F8410065644FF02008C8
:100B4000E06801280AD0364949EA010035490840E1
:100B500021684860FFF7E0FE07460CE0324949EAA9
:100B600001003249F3E7701C05D0FFF7D5FEC01B2A
:100B7000B04219D8C6B1216888698969C0F34010AC
:100B8000C1F300110843EED0206880693346C043AA
:100B9000C0064FF000024FF020012046009717D505
:100BA00001F0A5FD68BB09E084F8418054F8440FCA
:100BB00040F0200044F80409257022E02168C1F8C3
:100BC0001C8084F8418084F840500020BDE8FC87F8
:100BD00001F08DFDA8B921681020C8612168C1F815
:100BE0001C800199514512D12068416841F480412F
:100BF00041603346002220212046009701F077FD16
:100C000010B10120E2E708E02168C1F81C800198DA
:100C1000401C0190504593D3C6E70220D6E7000060
:100C200000280002FF2B000200200002FF23000228
:100C3000704700002DE9F84F044690F84100DDF8B8
:100C400028A01F4690468B4620287ED194F840006D
:100C500001287AD0012084F84000FFF75DFE0646A7
:100C6000012200901923D103204601F040FDE0BB92
:100C7000222084F84100102084F842000025656499
:100C8000C4F8248067856563618D3148FF274FF084
:100C900080784FF00079FF2903D927853A460090E4
:100CA00039E0618D218500903AE05946204601F0F7
:100CB000F1FC13E001F052FDB8B92068406A616AA6
:100CC0000870606A401C6062208D401E80B22085E2
:100CD000618D491E6185618D01B168B1608D3246BB
:100CE000002851462046E5D100E002E001F08AFDEF
:100CF000D0B10120BDE8F88F534600228021204664
:100D0000009601F0F4FC0028F3D1608DFF2804D98F
:100D100027853A4600954346C7E7608D20850095B4
:100D200094F828204B46C0E721682020C86121683C
:100D30004A68084B1A404A6084F8410084F84250DF
:100D400084F840500020D5E7FFE70220D2E70000FA
:100D50000024008000E800FE2DE9F84F044690F8DA
:100D60004100DDF828A01F4690468B4620287ED102
:100D700094F8400001287AD0012084F84000FFF761
:100D8000CBFD0646012200901923D103204601F035
:100D9000AEFCE0BB212084F84100102084F8420022
:100DA00000256564C4F8248067856563618D3148DA
:100DB000FF274FF080784FF00079FF2903D927856E
:100DC0003A46009039E0618D218500903AE059461D
:100DD000204601F05FFC13E001F03FFDB8B9606A06
:100DE000216800788862606A401C6062608D401EE5
:100DF0006085208D401E80B22085618D01B168B173
:100E0000608D3246002851462046E5D100E002E0E0
:100E100001F0F8FCD0B10120BDE8F88F5346002264
:100E200080212046009601F062FC0028F3D1608DFD
:100E3000FF2804D927853A4600954346C7E7608DC9
:100E40002085009594F828204B46C0E72168202093
:100E5000C86121684A68084B1A404A6084F841001A
:100E600084F8425084F840500020D5E7FFE7022084
:100E7000D2E700000020008000E800FE10B586B038
:100E8000044614216846FFF7EFFA1A4920688842A1
:100E90002ED1194C606940F4802060616069694618
:100EA00000F480200590C0200090122001900020C6
:100EB000029003200390042004901048FFF70EFCDA
:100EC000E06940F40010E061E069002200F40010E5
:100ED000059011461F2000F073F81F2000F062F803
:100EE00000221146202000F06BF8202000F05AF874
:100EF00006B010BD0054004000100240000400483D
:100F000070477047024881680278114481607047D9
:100F10000C000020074810B5016841F01001016085
:100F2000032000F06DF8002000F006F800F024F82F
:100F3000002010BD0020024070B50D4D04464FF456
:100F40007A712878B1FBF0F00A490968B1FBF0F03A
:100F500000F0B2FD48B9102C07D200222146501EE5
:100F600000F02EF800206C6070BD012070BD000004
:100F70000C00002018000020094808B5816941F0E4
:100F800001018161816901F001010091C16941F0B4
:100F90008051C161C06900F08050009008BD000020
:100FA00000100240002809DB00F01F0201219140DF
:100FB0004009800000F1E020C0F8001170470000F7
:100FC000F0B40E4B1B680C46C3F30223C3F10705B4
:100FD000042D00D90425191D072901D2002300E0A2
:100FE000DB1E012606FA05F1491E214099409E406C
:100FF000761E16403143F0BC01F037BF0CED00E027
:10100000064900F0070208684FF6FF03184040EA5F
:101010000220034A10430860704700000CED00E016
:101020000000FA052DE9F84F044600680026574DE8
:10103000C0036ED5E869C00008D4E86940F080506C
:10104000E861E869012600F080500090504801688E
:10105000C90512D40168804641F480710160FFF730
:101060005BFC074605E000BFFFF756FCC01B642889
:1010700035D8D8F80000C005F6D5286A10F44070BD
:1010800053D0A18801F4407181424ED0286A4FF4B8
:10109000803191FAA1F2B2FA82F297003D4A4FF004
:1010A0000108174420F44070C7F8008491FAA1F1B8
:1010B000B1FA81F102EB81010023C1F8003428620A
:1010C000C00732D0FFF728FC074641F2883A4FF0BC
:1010D000020907E0FFF720FCC11B514502D903209C
:1010E000BDE8F88F99FAA9F1B1FA81F141F0400118
:1010F0004846B8EB511F01D129680CE090FAA0F1E5
:10110000B1FA81F141F04001B0EB511F02D1296ADF
:1011100001E015E0696A99FAA9F0B0FA80F000F0F0
:101120001F0008FA00F21142D4D0286A616820F446
:101130004070084328621EB1E86920F08050E861E1
:101140002078C00705D0286BA16820F00300084371
:1011500028632078800605D5286BE16820F0100010
:10116000084328632078000605D5E86A216920F441
:10117000F8700843E8622088C00405D5286B6169CF
:1011800020F48070084328630020A9E70010024083
:1011900000700040000042422DE9F0470F46050074
:1011A00069D04A4E306800F00700B84209D2306872
:1011B00020F0070038433060306800F00700B84284
:1011C00059D12878424C800705D56068A96820F07D
:1011D000F000084360602878C0073DD069680120AE
:1011E00001290DD0022923D05FF0020393FAA3F264
:1011F000B2FA82F242F02002520904D0226803E0DF
:101200004FF40033F2E7626A93FAA3F3B3FA83F37D
:1012100003F01F03984002422DD0606820F00300C5
:1012200008436060FFF778FB804641F288390CE0A4
:101230004FF00073DAE700BFFFF76EFBA0EB080189
:10124000494502D90320BDE8F0876068696800F06D
:101250000C00B0EB810FEFD1306800F00700B8420E
:101260000BD9306820F0070038433060306800F058
:101270000700B84201D00120E5E72878400705D5EE
:101280006068E96820F4E06008436060287800073F
:1012900006D56068296920F4605040EAC1006060AA
:1012A00000F04EF86168F02292FAA2F201F0F0012B
:1012B000B2FA82F2D140074A515CC8400649086040
:1012C00006480068FFF738FE0020BCE70020024017
:1012D00000100240663200081800002010000020B4
:1012E00008480949006849684FF4E06292FAA2F29E
:1012F00001F4E061B2FA82F2D140044A515CC84084
:1013000070470000180000200010024076320008EC
:1013100008480949006849684FF4605292FAA2F2FD
:1013200001F46051B2FA82F2D140044A515CC840E3
:1013300070470000180000200010024076320008BC
:10134000164A10B55168164801F00C03042B20D042
:10135000082B1ED14FF4701494FAA4F401F4701306
:10136000B4FA84F4E3400F4CD26AE45C0F2393FA9E
:10137000A3F302F00F02B3FA83F3DA40094B103300
:10138000C9039A5C06D500231946FEF771FFA0FB3E
:10139000040110BD0448A4FB000110BD0010024070
:1013A00000127A004632000800093D002DE9F84F8E
:1013B000050071D02878FC4EC0074FF0010425D0FD
:1013C00070686704C0F38100012807D07068C0F31B
:1013D000810002281BD17068C00318D597FAA7F0C6
:1013E000B0FA80F040F02000400901D0306800E001
:1013F000706A97FAA7F1B1FA81F101F01F0104FABE
:1014000001F1084265D068680028D2D061E06868C0
:10141000B0F5803F0BD010B1B0F5A02F17D03068D9
:1014200020F480303060306820F4802002E03068A2
:1014300040F480303060F06AA96820F00F00084363
:10144000F062686820B3FFF767FA80460AE0306808
:1014500040F480203060EAE7FFF75EFAA0EB080076
:10146000642871D897FAA7F0B0FA80F040F0200015
:10147000400901D0306800E0706A97FAA7F1B1FA2C
:1014800081F101F01F0104FA01F10842E4D020E0EB
:10149000FFF742FA804607E0C2E000BFFFF73CFAE0
:1014A000A0EB08006428DCD897FAA7F0B0FA80F027
:1014B00040F02000400901D0306800E0706A97FADF
:1014C000A7F1B1FA81F101F01F0104FA01F108421C
:1014D000E4D12878DFF8D48280074FF0000A4FF07B
:1014E000020730D570684FF0F80B10F00C0F07D0E2
:1014F0007068C0F38100022827D17068C00324D42B
:1015000097FAA7F0B0FA80F040F02000400901D02F
:10151000306800E0706A97FAA7F1B1FA81F101F042
:101520001F0104FA01F1084202D02869012877D18D
:1015300030689BFAABF220F0F8016869B2FA82F2E7
:101540009040014331605AE064E1286988B394FA1D
:10155000A4F0B0FA80F048F82040FFF7DDF98146AA
:1015600006E000BFFFF7D8F9A0EB090002289AD8DF
:1015700097FAA7F0B0FA80F040F02000400901D0BF
:10158000306800E0706A97FAA7F1B1FA81F101F0D2
:101590001F0104FA01F10842E4D030689BFAABF273
:1015A0006969B2FA82F220F0F80091400843306095
:1015B00025E0FFE794FAA4F0B0FA80F048F820A004
:1015C000FFF7AAF9814605E0FFF7A6F9A0EB0900AD
:1015D0000228CCD897FAA7F0B0FA80F040F02000AB
:1015E000400901D0306800E0706A97FAA7F1B1FABB
:1015F00081F101F01F0104FA01F10842E4D12878D9
:1016000000076CD5A869A8B394FAA4F0B0FA80F0EA
:1016100008EB8000C0F88044FFF77EF9814607E0C0
:10162000A4E100BFFFF778F9A0EB090002289ED8DB
:1016300097FAA7F0B0FA80F040F06000B4EB501FCA
:1016400001D130680BE097FAA7F0B0FA80F040F0D3
:101650006000B7EB501F01D1306A00E0706A97FA62
:10166000A7F1B1FA81F101F01F0104FA01F2104271
:10167000D8D034E0FFE794FAA4F1B1FA81F108EB95
:101680008101C1F880A4FFF747F9814606E000BF59
:10169000FFF742F9A0EB090002289AD897FAA7F0C1
:1016A000B0FA80F040F06000B4EB501F01D1306818
:1016B0000BE097FAA7F0B0FA80F040F06000B7EBCB
:1016C000501F01D1306A00E0706A97FAA7F1B1FAB1
:1016D00081F101F01F0104FA01F21042D8D12878FB
:1016E000400768D5F0694FF00009C00009D4F069DF
:1016F00040F08050F061F0694FF0010900F0805037
:1017000000902B480168C90512D4016841F480712A
:101710000160FFF701F9834606E000BFFFF7FCF820
:10172000A0EB0B00642875D821480068C005F5D5EA
:10173000E86801280AD008B1052811D0306A20F0E5
:1017400001003062306A20F0040002E0306A40F0AC
:1017500001003062E86868B3FFF7DEF883460DE009
:10176000306A40F004003062F0E700BFFFF7D4F8C1
:10177000A0EB0B0141F2883081424BD897FAA7F0D9
:10178000B0FA80F040F04000B4EB501F01D1306857
:1017900013E097FAA7F0B0FA80F040F04000B7EB02
:1017A000501F09D1306A08E0001002400000424298
:1017B000007000400CE040E0706A97FAA7F1B1FABF
:1017C00081F101F01F0104FA01F21042CED02DE0A8
:1017D000FFF7A2F8834607E0FFF79EF8A0EB0B01A6
:1017E00041F28830814215D897FAA7F0B0FA80F01C
:1017F00040F04000B4EB501F01D130680CE097FA84
:10180000A7F0B0FA80F040F04000B7EB501F02D1D3
:10181000306A01E083E0706A97FAA7F1B1FA81F1CA
:1018200001F01F0104FA01F21042D5D1B9F1000F05
:1018300003D0F06920F08050F061E86980B37168EE
:10184000C1F38101022977D04FF080714F00022847
:10185000504609D091FAA1F1B1FA81F148F821007E
:10186000FFF75AF805465DE0894691FAA1F1B1FA11
:1018700081F1C24648F82100FFF74EF8804605E0A6
:10188000FFF74AF8A0EB0800022848D897FAA7F01B
:10189000B0FA80F040F02000400902D0306801E04A
:1018A00066E0706A97FAA7F1B1FA81F101F01F01C1
:1018B00004FA01F10842E3D1D5E908100843716840
:1018C00021F474110843706099FAA9F0B0FA80F01D
:1018D0004AF82040FFF720F8054604E0FFF71CF81F
:1018E000401B02281BD897FAA7F0B0FA80F040F00E
:1018F0002000400901D0306800E0706A97FAA7F133
:10190000B1FA81F101F01F0104FA01F10842E5D0BA
:101910002EE000BFFFF700F8401B022802D9032089
:10192000BDE8F88F97FAA7F0B0FA80F040F02000F9
:10193000400902D0306801E00BE0706A97FAA7F125
:10194000B1FA81F101F01F0104FA01F10842E1D17D
:101950000EE00128E4D070682A6A00F480319142D8
:1019600004D1696A00F47010884201D00120D7E7E1
:101970000020D5E770B5040009D0606A002540B1A9
:1019800025616561A56294F85D0040B10CE001201D
:1019900070BD6068B0F5827FF4D0E561F2E784F84D
:1019A0005C50204600F056F8022084F85D00206864
:1019B000016821F040010160E1684FF4E06291426A
:1019C00001D9002001E04FF48050B1F5706F02D0D2
:1019D000914200D0A562A188228901F4827102F4AB
:1019E00004421143227C02F002021143227D02F0E4
:1019F00001021143228B02F400721143227F02F094
:101A00003802114394F8202002F080021143228D05
:101A100002F40052114322681160A169042202EA13
:101A2000114194F8242000F4805002F01002114378
:101A300094F8342002F008021143A28902F4706283
:101A400011430143206841602566012084F85D0050
:101A5000002070BD10B586B0044614216846FEF71C
:101A600003FD1349206888421FD11248816941F45F
:101A700080518161816901F480510591416941F48E
:101A8000003141614069694600F400300590E02072
:101A90000090022001900020029003200390052076
:101AA00004904FF09040FEF719FE06B010BD000004
:101AB000003001400010024010B5401EB0F1807FA0
:101AC00001D3012010BD4FF0E02460610F216017A9
:101AD00001F0CBF90020A06107202061002010BD9B
:101AE00070477047704700002DE9F04102680446D6
:101AF000D0691168936840F60F0528424FF0000541
:101B00004FF0020605D187067ED58F067CD5A16EE3
:101B10002AE1DFF884C203F0010701EA0C0C57EA5E
:101B20000C0C71D05FEAC07C0CD05FEAC15C09D5B7
:101B30004FF0010CC2F820C0D4F8842042F001021A
:101B4000C4F88420820709D5DA0707D02268166214
:101B5000D4F8842042F00402C4F8842042070AD555
:101B6000DA0708D0236804221A62D4F8842042F0ED
:101B70000202C4F8842002070CD501F020023A4387
:101B800008D0236808221A62D4F8842042F00802A0
:101B9000C4F8842002050BD54A0109D523684FF407
:101BA00000621A62D4F8842042F02002C4F8842033
:101BB000D4F88420002A36D0800605D5880603D5BF
:101BC000A16E09B120468847D4F88400216889684D
:101BD000490602D410F0280F27D0204601F012F851
:101BE0002068806840061BD52068083050E8001F38
:101BF00021F0400140E80012002AF5D1606F78B171
:101C000066494163606F00E015E0FEF72DFD002896
:101C100009D0606F416B00E02046BDE8F041084705
:101C20002046FFF75FFFBDE8F0812046FFF75AFF2F
:101C3000C4F88450F7E7D4F860C02027BCF1010F46
:101C40007DD15FEAC06C7ED55FEAC16C7BD5102088
:101C5000106220688068400642D5616F086840685D
:101C60000004000CDFD0B4F858208242DBD9A4F87D
:101C70005A00886920282BD0216851E8000F20F4F1
:101C8000807041E80002002AF6D12068083050E850
:101C9000001F21F0010140E80012002AF5D1206860
:101CA000083050E8001F21F0400140E80012002AEF
:101CB000F5D1C4F880702566206850E8001F21F037
:101CC000100140E80012002AF6D1606FFEF7A9FC6F
:101CD0006666B4F85800B4F85A10401A81B22CE085
:101CE000B4F85800B4F85A10401A81B2B4F85A0047
:101CF000002898D0002996D0226852E8000F20F4DE
:101D0000907042E80003002BF6D12068083050E8BC
:101D1000002F22F0010240E80023002BF5D1C4F887
:101D200080702566A566206850E8002F22F010021A
:101D300040E80023002BF6D16666204600E002E072
:101D4000FFF7CEFE6FE7C60209D55B0207D54FF459
:101D5000801010622046BDE8F041FFF7C2BE0206C7
:101D600006D50A0604D5E16E00297FF455AF5AE77F
:101D70004006E7D54806E5D52046026852E8001F30
:101D800021F0400142E80013002BF6D1C767C56679
:101D900000F03AF947E7000020010004F12B0008A9
:101DA00010B5040002D0E06F10B107E0012010BDB3
:101DB000002084F87800204600F026F82420E06710
:101DC0002068016821F001010160204600F040FF19
:101DD0000128ECD0606A10B1204600F051FE206866
:101DE000416821F4904141602068816821F02A0116
:101DF00081602068016841F0010101602046BDE872
:101E0000104000F0A1BE000010B586B004461421B9
:101E10006846FEF729FB17492068884228D11648F2
:101E2000C16941F40031C161C16901F4003105911A
:101E3000416941F4003141614069694600F4003074
:101E4000059048F2040000900220019000200290CA
:101E500003200390072004904FF09040FEF73EFCD3
:101E6000002211462620FFF7ABF82620FFF79AF84C
:101E700006B010BD00440040001002402DE9F84FAC
:101E80000446D0F880009B4616460D46202802D016
:101E90000220BDE8F88FC5B1BEB10027C4F8847038
:101EA0002220C4F8800027661C34FEF735FDA68783
:101EB0008246E68754F8140C4FF48053FF211C3CF3
:101EC000984207D1226912B119E00120E1E740F2FE
:101ED000FF1114E07F2280B1B0F1805F12D0A4F82E
:101EE0005C7000BFB4F85C704FF02008984201D1DC
:101EF000206970B12E4600250CE0266936B9A4F899
:101F00005C10EFE7216909B13F21F8E7A4F85C20F4
:101F1000E8E7002607F0FF09B4F85A00F0B153468D
:101F2000002220212046CDF800B000F031FF18B18A
:101F3000C4F880800320ACE72068808C56B100EAAA
:101F4000090006F8010B00BFB4F85A00401EA4F8BF
:101F50005A00E1E7384025F8020BF5E7C4F8808025
:101F6000002096E72DE9F8430446C06F98461646D0
:101F70000D46202802D00220BDE8F88395B18EB12D
:101F80000020C4F884002120E067FEF7C5FCA4F817
:101F900050608146A4F85260A0682027B0F5805FA9
:101FA00002D003E00120E7E7206910B12E460025AA
:101FB00010E000260EE08021204600F0E9FEC0B9C6
:101FC000D6B116F8010B21680885B4F85200401EFE
:101FD000A4F85200B4F852004B464FF00002CDF87E
:101FE00000800028E7D14FF04001204600F0D0FEED
:101FF00038B1E7670320BFE735F8020BC0F30800EC
:10200000E1E7E7670020B7E77047FEE70148FEF722
:10201000DFBC00001C0000200148FEF70DBD0000E1
:102020001C000020406A0021826B02B15163C26B28
:1020300002B1516300F046BB10B50022CC074FF04F
:10204000280306D090F84140422233EA040400D02D
:10205000F2228C0707D590F8414042F04402A34396
:1020600001D042F0B0020B0401D542F0B8021029B1
:1020700004D0202905D0402906D007E042F0900284
:1020800004E042F0200201E042F0400200680168F2
:102090009143016010BD01688A69D243920701D45F
:1020A00000228A6200688169C943C90703D0816937
:1020B00041F00101816170472DE9F041044690F83B
:1020C00041002821814320684FF000054FF00803AC
:1020D00004D0C36184F84050BDE8F0818169C1F348
:1020E00000478169FE2202EA11468168C1F30902B4
:1020F000C168D4F80CE001F0FE014FF4004CBEF1D1
:10210000020F17D14FF0060E06F006060EEAD21E99
:1021100076450ED1A16C491CA164A16C0229DBD1CA
:10212000A564C36184F8405039462046FEF74FFC51
:10213000D2E70E4661462046FFF77EFF84F8405006
:102140003246F1E770B5044690F84100002584F866
:102150004250404AE2626585626C0A436264282804
:1021600033D0292831D02A282FD048F20301204625
:10217000FFF762FF2046FFF78EFF94F841006028CA
:1021800013D0202184F8411020688269D24392063E
:102190000BD48269D243D20605D41022C261606C8E
:1021A00040F0040060642068C1616563206B2A4EC2
:1021B000A16B19B1112812D0212810D0E16BE9B31D
:1021C000122824D0222822D03EE003212046FFF707
:1021D00033FF282084F8410020486063E6E7206848
:1021E0000168490403D5016821F480410160A06BB6
:1021F000FEF75FFA012827D0A06B466384F84050B1
:10220000A06BFEF731FA002823D0A06B18E02068FD
:102210000168090403D5016821F400410160E06B05
:10222000FEF747FA01280FD0E06B466384F8405070
:10223000E06BFEF719FA00280BD000E004E0E06B39
:10224000416BBDE8704008472046BDE8704000F093
:1022500039BA70BD0000FFFF252000087525000871
:1022600070B504461648E06200252563202084F8F6
:10227000410084F84250C8436563400711D4206888
:10228000406A616A0870606A401C6062208D40B1DB
:10229000401E2085608D401E6085606C40F004000B
:1022A000606448F203012046FFF7C6FE2168102053
:1022B000C86184F840502046FEF7BAFC70BD0000AB
:1022C0000000FFFF2DE9F04102680446156890F810
:1022D00041000E462027D761212806D0292804D0A6
:1022E000222809D02A2807D00DE048F20101204613
:1022F000FFF7A2FE212005E048F202012046FFF789
:102300009BFE222020632068416841F40041416027
:1023100020684168354A114041602046FFF7BBFE06
:10232000E843410406D42068016821F4804101603B
:10233000A06B07E0000409D42068016821F4004183
:102340000160E06B10B1006840686085F0434007B1
:102350000FD4206826F00406406A616A0870606A3B
:10236000401C6062208D20B1401E2085608D401E83
:102370006085608D18B1606C40F0040060640025D9
:1023800084F842506563606C68B1616C2046FFF769
:10239000D9FE94F84100282815D131462046BDE8E1
:1023A000F041FFF75DBFE06A114EB0420DD020460C
:1023B00000F020F8E66284F84170256384F840500C
:1023C0002046FEF735FCBDE8F08194F8410084F822
:1023D00041702228256384F84050204602D0FEF741
:1023E00090FDF0E7FEF78CFDEDE7000000E800FE51
:1023F0000000FFFF70B5044600680168002584F8FE
:102400004250C9434A0403D4016821F4804104E0E6
:10241000090403D4016821F40041016094F84110DB
:102420002820292911D094F841102A290CD184F8A8
:1024300041002220206302212046FFF7FDFD84F8A1
:1024400040502046FEF75CFD70BD84F8410021201D
:10245000206301212046FFF7EFFD84F8405020461D
:10246000FEF74FFD70BD00002DE9F04704460068FF
:1024700089460026816935461746C9064FF020086F
:1024800041D51021C1612FE0B9F1FF3F2CD0FEF7FB
:1024900043FAC11B494502D8B9F1000F24D1206885
:1024A000416894F8422001F480418369DB431B04B6
:1024B00015D4B1F5804F12D0202A10D0416841F4D4
:1024C00080414160FEF728FA074608E0FEF724FA4B
:1024D000C01B192803D945F02005012604E0206817
:1024E0008069C0438006F1D420688069C0438006BB
:1024F00002D5002EC8D003E016B92168C1F81C80AF
:1025000045F00405012621688869C20505D54FF408
:10251000807245F00105CA610126410509D522688E
:102520004FF4806145F00805D1610126800502D491
:102530000AE0800507D521684FF4007045F00205D8
:10254000C861012600E086B12046FFF7A4FD54F8DB
:10255000240B4168064A11404160206A28432062EA
:1025600084F81D800020A07720773046BDE8F087F2
:1025700000E800FE2DE9F041C56A044690F84000ED
:102580008846012826D0012084F840006FEA080719
:10259000B8066FEA020605D4B00603D441462046C9
:1025A000FFF790FE3A49F8064FF0807231D4F006FA
:1025B0002FD4638D102083B12168C861606C40F016
:1025C000040060640DB195425ED1616C2046FFF756
:1025D000B9FD59E00220BDE8F08194F84120282A95
:1025E00002D1B5F1007F04D094F84120292A05D00A
:1025F0000CE041462046FFF733FE45E08D4205D012
:102600002168C8612046FFF746FD3AE02168C861AD
:102610003AE0780715D4700713D4608D60B1206854
:10262000406A626A1070606A401C6062208D401EC1
:102630002085608D401E6085608D28BB8D4220D135
:1026400022E0380706D4300704D441462046FFF77D
:1026500033FD19E0B80717D4B00715D4608D68B101
:10266000606A216800788862606A401C6062608DE0
:10267000401E6085208D401E208505E0954200D0DB
:1026800015B92046FFF7B6FE002084F84000A2E707
:102690000000FFFF10B5C1F3090141EA02410268E1
:1026A000029C19432143506821F000414FF480639C
:1026B00003EA5453024C234398430843506010BD2F
:1026C000FF63FF0310B590F841200021602A05D078
:1026D000016380F84010FEF7B7F910BD202280F8A2
:1026E0004120016380F84010FEF770F910BD2DE91C
:1026F000F0411E4617460D460446DDF8188020E0DE
:10270000701C1ED0FEF708F9A0EB0800B04200D8FC
:10271000BEB92068806935EA000010D00020B842B8
:102720000FD154F8440F40F0200044F80409202051
:1027300060700020A07020700120BDE8F0810120B1
:10274000EDE72068806935EA000004D00020B84237
:10275000D6D00020F1E70120F9E700002DE9F04193
:10276000202690460F460446002541E04246394661
:102770002046FFF779FE10BB20688069C0438006C1
:102780001ED420688169C943490701D4218D71BBDA
:102790008169C943C90604D41021C1610420606461
:1027A00000E065642068C66120684168144A1140F1
:1027B000416084F8416084F8425084F8405013E04E
:1027C000FEF7AAF8A0EB0800B84200D887B9206845
:1027D0008069C04340070BD554F8440F40F02000F7
:1027E00044F80409667025700120BDE8F08104E01A
:1027F00020688069C0434007B8D40020F5E7000096
:1028000000E800FE70B516460D4604461EE032464E
:1028100029462046FFF728FE08B1012070BDFEF7CB
:102820007BF8801BA84200D885B920688069C04326
:1028300080060BD554F8440F40F0200044F80409FA
:10284000202060700020A0702070E6E7206880697A
:10285000C0438006DBD4002070BD70B516460D461F
:10286000044620E0324629462046FFF7FDFD08B128
:10287000012070BD681C16D0FEF74EF8801BA842E0
:1028800000D885B920688069C04380070BD554F80B
:10289000440F40F0200044F804092020607000201C
:1028A000A0702070E4E720688069C0438007D9D415
:1028B000002070BD10B586B014216846FDF7D4FD28
:1028C0001548416941F480014161416901F4800189
:1028D0000591416941F400314161416901F40031E0
:1028E0000591416941F48021416140690B4C00F43C
:1028F00080200590002208212046FEF707F80820D6
:10290000009001200021CDE9010103916946204694
:10291000FDF7E4FE06B010BD0010024000040048C0
:10292000124810B51049016011494160002101228F
:10293000C0E90212016141618161C1610162FEF77A
:1029400085F808B172B6FEE700210848FDF7EAFFF6
:1029500008B172B6FEE700210448FEF70EF8002821
:1029600001D072B6FEE710BD005400401C000020EC
:102970000E090020114810B50F4901604FF4827113
:10298000416000214FF44072C0E902124FF400721E
:102990000161C0E90512C161016207224162C0E91B
:1029A0000A12016308214163FEF7E4FF002801D009
:1029B00072B6FEE710BD000000300140700000203C
:1029C0000C4810B50A4901604FF4165141600021CE
:1029D00081600C22C160C0E904128161C1610162A1
:1029E0004162FFF7DDF9002801D072B6FEE710BDA5
:1029F00000440040D4000020FEE7FEE77047704727
:102A0000FEF780BA10B596B028216846FDF72CFD78
:102A100014210AA8FDF728FD18210FA8FDF724FDB1
:102A200002200090012004901020002405900794BB
:102A30006846FEF7BBFC08B172B6FEE70F20CDE991
:102A40000A040C940D9400210AA80E94FEF7A4FB2E
:102A500008B172B6FEE720200F9012940FA8FEF77F
:102A6000E1FA002801D072B6FEE716B010BD0000F2
:102A70000248016841F470010160704788ED00E090
:102A800090F82410C90706D001684A68836A22F4C6
:102A900000321A434A6090F82410890706D501686D
:102AA0004A68C36A22F480321A434A6090F82410BC
:102AB000490706D501684A68036B22F480221A434D
:102AC0004A6090F82410090706D501684A68436BEC
:102AD00022F400421A434A6090F82410C90606D531
:102AE00001688A68836B22F480521A438A6090F8E6
:102AF0002410890606D501688A68C36B22F4005247
:102B00001A438A6090F82410490611D501684A6872
:102B1000036C22F480121A434A60016CB1F5801FE5
:102B200006D101684A68436C22F4C0021A434A6025
:102B300090F82410090606D501684A68806C22F4D2
:102B4000002202434A6070472DE9F84300260446FC
:102B5000C0F88460FDF7E0FE8046206800684FF012
:102B6000200500076FF07E4712D543460022290456
:102B70002046009700F00CF950B1216851E8000F91
:102B800020F0800041E80002002AF6D1E56721E04C
:102B900020680068400722D5434600224FF4800198
:102BA0002046009700F0F4F8C8B1216851E8000F02
:102BB00020F4907041E80002002AF6D12068083025
:102BC00050E8001F21F0010140E80012002AF5D171
:102BD000C4F8805084F878600320BDE8F883E56786
:102BE000C4F8805044F8606F666026760020F4E7F1
:102BF00010B5406A0021A0F85A10A0F85210FEF754
:102C000071FF10BD016851E8002F22F4907241E875
:102C10000023002BF6D10168083151E8002F22F083
:102C2000010241E80023002BF5D1016E012908D1F2
:102C3000026852E8001F21F0100142E80013002B47
:102C4000F6D12021C0F8801000210166816670470E
:102C500070B5044680682169E2690843616900250E
:102C60001143226808431168434B19400143116026
:102C700020684168E26821F4405111434160A16934
:102C8000206A084321688A6822F4306202438A601D
:102C90003A492068884210D13948006B10F003008F
:102CA00011D0012805D0022805D003280DD102211A
:102CB0000CE004210AE0082108E03249884202D0F1
:102CC0003149884201D1002100E01021E3694FF42D
:102CD00000402E4A4FF6EF76834226D1092941D291
:102CE000DFE801F005080B400D4040401000FEF702
:102CF000F7FA06E0FEF70CFB03E0104602E0FEF7F1
:102D00001FFB80B34100606801EB5001B1FBF0F0A4
:102D1000A0F11001B14225D84FF6F0710140C0F387
:102D2000420001432068C16021E009291AD2DFE88E
:102D300001F005080B190D1919191000FEF7D0FA4A
:102D400006E0FEF7E5FA03E0104602E0FEF7F8FAC7
:102D500048B1616800EB5100B0FBF1F0A0F1100147
:102D6000B14201D9012502E0216880B2C86000208B
:102D7000A066E066284670BDF369FFEF00380140A9
:102D800000100240004400400048004000127A0059
:102D90002DE9F047994617460E4604464FF00008C5
:102DA000089D2FE0681C2DD0FDF7B6FDA0EB0900B3
:102DB000A84214D89DB120680168490722D5C1698D
:102DC000C94309070DD4082505622046FFF71AFFFD
:102DD000C4F8845084F878800120BDE8F08703208F
:102DE000FBE7C069C04300050CD421684FF40060C4
:102DF00008622046FFF706FF2020C4F8840084F80C
:102E00007880ECE72068C06936EA000004D0002032
:102E1000B842C7D00020E0E70120F9E710B50E481E
:102E2000FEF762FE4FF47A7301220C490A48FFF75D
:102E300025F800200A490B4A01230C5C2D2C04D0F4
:102E4000401C13600628F8DB10BD044B1B78303B98
:102E50000B540020106010BDD40000200A00002098
:102E60000400002000000020FEE70907090E0028EA
:102E700004DB00F1E02080F80014704700F00F0040
:102E800000F1E02080F8141D70470000A6B0FEF7A6
:102E900041F8FFF7B7FDFFF70DFDFFF741FDFFF725
:102EA0008FFDFEF737F8FFF7ADFDFFF703FDFFF7E6
:102EB00087FDFFF735FDFFF75DFDD8480068016825
:102EC00041F020010160D5484FF0FF330A22D021A4
:102ED000B838FDF717FE58B9D14D0124082128460E
:102EE000FDF70CFDFA20FDF7E7FB641C0A2CF5DD6D
:102EF00000208DF880008DF88100C8480A24022344
:102F000020AAD021B8380094FDF726FF01208DF8C3
:102F1000840046208DF88500C048022321AAD021D4
:102F2000B8380094FDF718FF02208DF87C001220BD
:102F30008DF87D00B94802231FAAD021B83800942B
:102F4000FDF70AFF642104A8FDF78EFAB3480123B8
:102F500020AAD021B8380094FDF7FEFEAF48012327
:102F60000DF1800BD121B8380DF181020094FDF7ED
:102F700061FE9DF881000123070900F00F08A748B2
:102F800021AAD021B8380094FDF7E6FEA34801231A
:102F90000DF1840AD121B8380DF185020094FDF7B6
:102FA00049FE9DF885000123050900F00F069B48A6
:102FB0001FAAD021B8380094FDF7CEFE9748012310
:102FC0000DF17D02D121B8380094FDF733FE9DF854
:102FD0007D008DE8E001C0F3001200F00F0391A125
:102FE00004A8FDF7BDF90A23642204A98B48FEF763
:102FF000B9FF0026904D286800287CD007208DF866
:103000008800281D02234179027941EA02118DF8D6
:10301000891008218DF88C10C178827841EA02115C
:103020008DF88D1009218DF89010417800788DF879
:10303000744041EA00108DF891000E208DF8940044
:103040001D208DF895000F208DF8780088208DF8D0
:10305000790080208DF87500704822AAD021B838F8
:103060000094FDF779FE6D48022323AAD021B838D9
:103070000094FDF771FE6948022324AAD021B838D4
:103080000094FDF769FE654802231DAAD021B838D7
:103090000094FDF761FE6148022325AAD021B838CB
:1030A0000094FDF759FE5D4802231EAAD021B838CE
:1030B0000094FDF751FE59480126334620AAD0213D
:1030C000B8380094FDF748FE544801230BF1010283
:1030D000D121B8380094FDF7ADFD9DF881000123A2
:1030E0004FEA101C00F00F074C48CDE9004CD021EE
:1030F00021AAB83800E03AE0FDF72EFE4748012348
:103100000AF10102D121B8380094FDF793FD9DF832
:10311000850001234FEA101800F00F093F481FAA4D
:10312000D021B8380094FDF717FE3C4801230DF17B
:103130007D02D121B8380094FDF77CFD9DF87D001B
:10314000DDF804C0CDE902C7C0F3001200F00F03A0
:1031500034A104A8CDE90089FDF702F90A2364220D
:1031600004A92E48FEF7FEFE0020286001E0002E94
:103170004FD02A48012320AAD021B8380094FDF767
:10318000EBFD264801230BF10102D121B838009450
:10319000FDF750FD9DF8810001234FEA101800F063
:1031A0000F091E4821AAD021B8380094FDF7D4FD9C
:1031B0001A4801230AF10102D121B8380094FDF721
:1031C00039FD9DF885000123050900F00F0713481C
:1031D0001FAAD021B8380094FDF7BEFD0F48012387
:1031E0000DF17D02D121B8380094FDF723FD9DF843
:1031F0007D008DE8A003C0F3001200F00F0309A1C9
:1032000004A8FDF7ADF80A23642204A90348FEF7D9
:10321000A9FE4FF47A70FDF74FFAEBE6D4000020D8
:1032200000040048256425643A256425643A256431
:1032300025640D0A00000000000000204FF04070DF
:10324000E1EE100A704702030405060708090A0B9D
:103250000C0D0E0F10100102030405060708090AE1
:103260000B0C0D0E0F10000000000000000001020A
:10327000030406070809000000000102030400001F
:10328000A0320008000000201C000000C40100085B
:10329000BC3200081C000020A4070000E001000868
:1032A000000000002D2D2D2D2D2D0000010000000F
:0C32B000100000000000000000127A0076
:040000050800018965
:00000001FF
